:020000040000FA
:100000000C9453010C9484010C9484010C9484018D
:100010000C9484010C9484010C9484010C9484014C
:100020000C9484010C9484010C9484010C9484013C
:100030000C9484010C9484010C9484010C9484012C
:100040000C9484010C9484010C9484010C9484011C
:100050000C9484010C9484010C9484010C948717F3
:100060000C9484010C9451170C9427170C94840160
:100070000C9484010C9484010C9484010C948401EC
:100080000C9484010C9484010C9484010C948401DC
:100090000C9484010C9484010C9484010C94D11769
:1000A0000C9484010C9484010C9484010C948401BC
:1000B0000C9484010C9484010C9484010C948401AC
:1000C0000C9484010C9484010C9484010C9484019C
:1000D0000C9484010C9484010C9484010C9484018C
:1000E0000C9484010C94EE040C9475040C94F003AD
:1000F0000C94F5180C94E4040C94BF030C9456056E
:100100000C94C7050C940F090C9429050C948403D6
:100110000C9409050C94CE030C9487050C941105DE
:100120000C9417050C9480090C9424050C94F60487
:100130000C94ED0C0C9428040C94FF040C941B05F7
:100140000C9487010C943C090C94EA040C94FC0870
:100150000C94ED080C941F050C947F090C94E20399
:100160000C9425050C94F2040C9403050C940D05D5
:100170000C9492030C94EC080C94F9040C94460E25
:100180000C94860100002100240027002A002D0085
:100190003000330001010000040107010A010000E2
:1001A0002200250028002B002E003100340002011F
:1001B0000000050108010B010000200023002600BB
:1001C00029002C002F00320000010000030106016D
:1001D00009010505050507050808080802020202CD
:1001E0000A0A0808040404040101010101010101D3
:1001F0000303030303030303040707070C0C0C0C9E
:100200000C0C0C0C02020202060606060606060686
:100210000B0B0B0B0B0B0B0B010210202008081013
:100220002040102040800201020108040201010266
:10023000040810204080804020100804020180043F
:10024000020180402010080402010804020101029A
:1002500004081020408001020408102040800000A3
:100260000A0B02090C0D0E08070304010000000030
:10027000000000000000000000000000000000007E
:10028000000000000000000000001211100000003B
:10029000000000000000000000000000000000005E
:1002A00000000000F51811241FBECFEFD1E2DEBF21
:1002B000CDBF00E00CBF18E0A0E0B2E0EEE7F3E64F
:1002C00000E00BBF02C007900D92A23CB107D9F726
:1002D0002BE0A2ECB8E001C01D92A631B207E1F715
:1002E00011E0C3E5D1E000E006C021970109802FAD
:1002F000FE010E947C30C235D10780E00807A9F7D3
:100300000E94001C0C94BD310C94000008950895C7
:1003100096E0899FD0011124A757B54F90967C9302
:100320006E935F9791E091969C939197E091F60A76
:10033000F091F70A9091F50A992339F0309751F02E
:10034000811108C08091A50A1994309719F05C9624
:100350008C91FACF0895CF92DF92EF92FF920F9394
:100360001F9396E0899FF0011124E757F54F11A2E2
:10037000278D30A12130310551F178F0223031053F
:1003800009F451C02330310509F452C01F910F9177
:10039000FF90EF90DF90CF9008956623B9F361E06E
:1003A00070E00E9488012FB7F894809150099091D5
:1003B0005109A0915209B09153092FBF8093E10ACE
:1003C0009093E20AA093E30AB093E40ADFCF9FB7C9
:1003D000F894C0905009D0905109E0905209F090E3
:1003E00053099FBF0091E10A1091E20A2091E30AAC
:1003F0003091E40AC01AD10AE20AF30A0091F30A22
:100400001091F40A30E020E00C151D052E053F0583
:1004100050F462E070E01F910F91FF90EF90DF9039
:10042000CF900C9488016111B1CF63E070E0F3CFFD
:1004300070E060E0F0CF4F925F926F927F928F9268
:100440009F92AF92BF92CF92DF92EF92FF920F9363
:100450001F93CF93DF93CDB7DEB76C970FB6F894A9
:10046000DEBF0FBECDBF6D877E878F87988B298BB0
:100470003A8B4B8B5C8B2CA93DA94EA95FA96CAD27
:100480007DAD8EAD9FAD0E94BA2D6D8B7E8B8F8B17
:10049000988F2D853E854F855889C801B7010E94E8
:1004A000BA2D6D837E838F83988728A939A94AA99D
:1004B0005BA968AD79AD8AAD9BAD0E94BA2D698FFD
:1004C0007A8F8B8F9C8F29893A894B895C89C601E9
:1004D000B5010E94BA2D69877A878B879C872D8109
:1004E0003E814F8158856D897E898F89988D0E94C4
:1004F0008B2F4B015C0129853A854B855C85698D85
:100500007A8D8B8D9C8D0E948B2F9B01AC01C50138
:10051000B4010E94BA2D2B013C0120E030E0A9017A
:100520000E94272E87FF04C077FA709477F87094A2
:100530002FE632E143E85AE3C301B2010E94272EBD
:1005400087FDE0C02CA93DA94EA95FA969897A89D8
:100550008B899C890E94BA2D4B015C0128A939A97D
:100560004AA95BA96D857E858F8598890E94BA2DE1
:1005700069837A838B839C83A5019401698D7A8D2D
:100580008B8D9C8D0E948B2F6B017C0129813A8180
:100590004B815C816D897E898F89988D0E948B2F1C
:1005A0009B01AC01C701B6010E94BA2D6B017C0111
:1005B00020E030E0A9010E94272E87FF04C0F7FA4F
:1005C000F094F7F8F094A50194016D817E818F81FC
:1005D00098850E948B2F4B015C0129813A814B81C8
:1005E0005C8169857A858B859C850E948B2F9B0118
:1005F000AC01C501B4010E94BA2D4B015C0120E0A1
:1006000030E0A9010E94272E87FF04C0B7FAB094FA
:10061000B7F8B094A3019201C701B6010E942C2E35
:100620006B017C0120E030E0A9010E94272E87FDAC
:1006300069C020E030E040E85FE3C701B6010E94F6
:10064000862F18160CF45EC0A3019201C501B401F7
:100650000E942C2E4B015C0120E030E0A9010E9499
:10066000272E87FD4FC020E030E040E85FE3C50162
:10067000B4010E94862F18160CF444C0A7019601FD
:100680006D817E818F8198850E948B2F2D853E857F
:100690004F8558890E94BB2D2296EEADFFAD229763
:1006A0006083718382839383A701960169857A852C
:1006B0008B859C850E948B2F29893A894B895C897F
:1006C0000E94BB2D2496EEADFFAD2497608371830D
:1006D0008283938381E06C960FB6F894DEBF0FBEE1
:1006E000CDBFDF91CF911F910F91FF90EF90DF90E1
:1006F000CF90BF90AF909F908F907F906F905F90C2
:100700004F90089580E0E7CF8091450A9091460A86
:10071000891B990B0895DC01ED91FC910190F0810A
:10072000E02D1994AF92BF92CF92DF92EF92FF9299
:100730000F931F93CF93DF936C017B018B01040F09
:10074000151FEB015E01AE18BF08C017D10759F0A5
:100750006991D601ED91FC910190F081E02DC601E7
:100760001995892B79F7C501DF91CF911F910F91D1
:10077000FF90EF90DF90CF90BF90AF900895FC0175
:10078000538D448D252F30E0842F90E0821B930BF6
:10079000541710F0CF96089501970895FC01918D9C
:1007A000828D981761F0A28DAE0FBF2FB11D5D969F
:1007B0008C91928D9F5F9F73928F90E008958FEF41
:1007C0009FEF0895FC01918D828D981731F0828DF5
:1007D000E80FF11D858D90E008958FEF9FEF08954C
:1007E000FC01918D228D892F90E0805C9F4F821BB0
:1007F00091098F739927089582EA99E00E94F00386
:1008000021E0892B09F420E0822F0895FC01A48DBA
:10081000A80FB92FB11DA35ABF4F2C91848D90E022
:1008200001968F739927848FA689B7892C93A08905
:10083000B1898C91837080648C93938D848D98138F
:1008400006C00288F389E02D80818F7D8083089522
:10085000EF92FF920F931F93CF93DF93EC0181E010
:10086000888F9B8D8C8D98131AC0E889F9898081B7
:1008700085FF15C09FB7F894EE89FF896083E889EA
:10088000F98980818370806480839FBF81E090E0DC
:10089000DF91CF911F910F91FF90EF900895F62E69
:1008A0000B8D10E00F5F1F4F0F731127E02E8C8D03
:1008B0008E110CC00FB607FCFACFE889F989808148
:1008C00085FFF5CFCE010E940604F1CFEB8DEC0F32
:1008D000FD2FF11DE35AFF4FF0829FB7F8940B8F65
:1008E000EA89FB8980818062CFCFCF93DF93EC01CF
:1008F000888D8823B9F0AA89BB89E889F9898C9108
:1009000085FD03C0808186FD0DC00FB607FCF7CFC3
:100910008C9185FFF2CF808185FFEDCFCE010E94C3
:100920000604E9CFDF91CF91089580E090E0892B14
:1009300029F00E94FC0381110E94000080E090E0F9
:10094000892B49F080E090E0892B29F00E9400007B
:1009500081110E94000080E090E0892B49F080E046
:1009600090E0892B29F00E94000081110E94000074
:1009700080E090E0892B49F080E090E0892B29F01D
:100980000E94000081110C94000008958150823172
:1009900008F05AC0E82FF0E08827EE52FB4F8F4F47
:1009A0000C947C30F204F604E404EA04EE0424051A
:1009B000F904FF04030509050D05110517051B05BD
:1009C00024051F0525052905809180008F778093D8
:1009D00080000895809180008F7DF9CF8091800004
:1009E000877FF5CF84B58F7784BD089584B58F7DDB
:1009F000FBCF8091B0008F778093B00008958091F5
:100A0000B0008F7DF9CF809190008F778093900018
:100A10000895809190008F7DF9CF80919000877F1D
:100A2000F5CF8091A0008F778093A00008958091EA
:100A3000A0008F7DF9CF8091A000877FF5CF8091B6
:100A400020018F77809320010895809120018F7D70
:100A5000F9CF80912001877FF5CFCF93DF93282FA7
:100A600030E0F901E25AFD4F8491F901E85EFD4F53
:100A7000D491F901EE52FE4FC491CC23A1F0811123
:100A80000E94C604EC2FF0E0EE0FFF1FE854FE4F6B
:100A9000A591B491EC91ED2381E090E009F480E020
:100AA000DF91CF91089580E090E0FACF862F0C94EB
:100AB0002D051F93CF93DF93282F30E0F901E25AE1
:100AC000FD4F8491F901E85EFD4FD491F901EE529A
:100AD000FE4FC491CC23A9F0162F81110E94C604A9
:100AE000EC2FF0E0EE0FFF1FE256FE4FA591B49100
:100AF0008FB7F894EC91111108C0D095DE23DC93E8
:100B00008FBFDF91CF911F910895DE2BF8CF862FF5
:100B1000642F0C945905CF93DF9390E0FC01E85EBD
:100B2000FD4F24918E529E4FFC0184918823C9F081
:100B300090E0880F991FFC01EC57FE4FA591B491EE
:100B4000FC01E256FE4FC591D49161110DC09FB7D3
:100B5000F8948C91209582238C9388812823288374
:100B60009FBFDF91CF910895623051F49FB7F89401
:100B70003C91822F809583238C93E8812E2BEFCF9D
:100B80008FB7F894EC912E2B2C938FBFEACF862F42
:100B9000642F0C948B056F927F928F929F92AF92ED
:100BA000BF92CF92DF92EF92FF920F931F93CF935A
:100BB000DF9381E08093F50A8FB7F8944091500954
:100BC0005091510960915209709153098FBF8091E2
:100BD000E50A9091E60AA091E70AB091E80A481B5D
:100BE000590B6A0B7B0B8091F10A9091F20AB0E0ED
:100BF000A0E084179507A607B70708F01DC1C0E05D
:100C00008091EF0AC81760F4E091EB0AF091EC0ACA
:100C1000EC0FF11D62E080810E948B05CF5FF0CF69
:100C2000712C812C912C540183948091F00A7816B8
:100C300008F05FC0072D10E0E091ED0AF091EE0A98
:100C4000E00FF11F61E080810E948B05E091ED0AC9
:100C5000F091EE0AE00FF11F60E080810E945905DB
:100C6000D501C401072C04C0880F991FAA1FBB1F00
:100C70000A94D2F76C017C01E094F094612C80918D
:100C8000EF0A6816F8F4C62DD0E0E091EB0AF09177
:100C9000EC0AEC0FFD1F80810E942D052496CC0FDD
:100CA000DD1FC757D54F892B41F4888199818C2945
:100CB0009D29998388836394E2CF888199818E21CD
:100CC0009F21F7CFE091ED0AF091EE0AE00FF11FBE
:100CD00061E080810E9459058091ED0A9091EE0AB1
:100CE000080F191F60E0F80180810E948B05739442
:100CF0009CCFC9E8DAE0FE018FEF9FEF278D30A18E
:100D0000232B21F4148E968F858F11A236962AE01C
:100D1000E53CF20799F7F12C96E0D92E8091EF0A85
:100D2000F81608F050C0E12C0F2D10E0000F111F35
:100D30000F56154F2091F00AE21608F042C0F80154
:100D4000608171810E2C02C0769567950A94E2F756
:100D5000F29E900111242E0D311DE9E8FAE080E0A9
:100D6000458D568D2417350709F46AC08F5F369676
:100D70008A30B1F760FF23C0E9E8FAE090E080E054
:100D8000448D411117C0E091E90AF091EA0AE20F9F
:100D9000F31F4081D89EF001D99EF00D1124E75732
:100DA000F54F448F368F258F10A2178E61E00E9479
:100DB000AB0105C0019636968A30910509F7E39498
:100DC000B9CFF394ABCF80E099A19111892F2696EA
:100DD000FAE0C53CDF07C1F79FB7F894409150098E
:100DE0005091510960915209709153099FBF4093EE
:100DF000E50A5093E60A6093E70A7093E80A8823AD
:100E0000D9F08091AA0A8823B9F08091A80A90911C
:100E1000A90A019789F48091A50ADF91CF911F91CA
:100E20000F91FF90EF90DF90CF90BF90AF909F9089
:100E30008F907F906F9008951092F50A80E0EDCF2B
:100E40006170B5CF863308F0865320917B00982FD0
:100E50009870277F922B90937B008770806480939B
:100E60007C0080917A00806480937A0080917A007F
:100E700086FDFCCF809178009091790008953FB76E
:100E8000F8948091070990910809A0910909B091FF
:100E90000A0926B5A89B05C02F3F19F00196A11D90
:100EA000B11D3FBFBA2FA92F982F8827BC01CD01B4
:100EB000620F711D811D911D42E0660F771F881F13
:100EC000991F4A95D1F708958F929F92AF92BF9242
:100ED000CF92DF92EF92FF924B015C010E943F079D
:100EE0006B017C010E943F076C197D098E099F09E7
:100EF000683E734081059105A8F321E0821A9108AC
:100F0000A108B10888EEC80E83E0D81EE11CF11CD0
:100F100081149104A104B10429F7FF90EF90DF90B0
:100F2000CF90BF90AF909F908F9008952091E3084D
:100F3000260F3327331F21323105ECF420917A0933
:100F4000FC0190E080E0243069F082E00895A091F7
:100F5000E3082191AC014D53574FA40FB52FB11D9C
:100F60002C930196861798F38091E308680F60939D
:100F7000E30880E0089581E0089510927A0981E005
:100F8000809379091092540961E084E10E94590527
:100F900061E085E10E945905E9EBF0E080818E7FF8
:100FA000808380818D7F808388E48093B80085E48E
:100FB0008093BC000895CF93DF9391E09093C20893
:100FC0008823B9F0C091B800D091BA008091BC00DC
:100FD0008A7B8093BC0060E084E10E94590560E058
:100FE00085E10E9459050E94BD07D093BA00C093C5
:100FF000B800DF91CF9108958F929F92AF92BF92E8
:10100000CF92DF92EF92FF920F931F93CF93DF93D4
:10101000D091430AD13208F0D7C0182FC091A1094E
:101020000E943F076B017C0180917A0981116BC09E
:1010300082E080937A09109379098FEF8093780981
:1010400010927709D0937609A1E8B9E0E6E5F9E0D6
:1010500080E0D81391C01092550980915509CC0FAA
:10106000C82BC093550980915409813009F088C07C
:10107000109254090E943F076B017C018091550931
:101080008093BB0080917C0990917D09A0917E099D
:10109000B0917F09892B8A2B8B2BA1F00E943F07EF
:1010A00000917C0910917D0920917E0930917F0982
:1010B0006C197D098E099F0906171707280739073C
:1010C00008F442C08091BC0083FDD8CF85EC8093AA
:1010D000BC000E943F076B017C0180917A0982303D
:1010E00009F450C0809178098F3F09F46FC0809156
:1010F0007809803209F46CC080917809803309F452
:1011000069C084E026C080917C0990917D09A091FE
:101110007E09B0917F09892B8A2B8B2B09F484CF10
:101120000E943F0780907C0990907D09A0907E09E5
:10113000B0907F096C197D098E099F098616970664
:10114000A806B90608F070CF80917B090E94DB07E2
:1011500085E01092440A1092430A10928009DF91B0
:10116000CF911F910F91FF90EF90DF90CF90BF90A4
:10117000AF909F908F9008959D9191938F5F69CFCD
:1011800085EEA5CF80917C0990917D09A0917E0983
:10119000B0917F09892B8A2B8B2B09F49ECF0E945B
:1011A0003F0700917C0910917D0920917E093091C3
:1011B0007F096C197D098E099F09061717072807F3
:1011C000390708F08ACFC0CF81E0C3CF80E0C1CF1C
:1011D00082E0BFCF83E0BDCF0895E091460A8091C1
:1011E000450AE81730F4F0E0E55FF64F808190E0C3
:1011F00008958FEF9FEF08959091460A8091450AD8
:101200002FEF3FEF981748F4E92FF0E0E55FF64F36
:10121000208130E09F5F9093460AC9010895CF92E4
:10122000DF92EF92FF920F931F93CF93DF937C0196
:10123000CB018A0120918009222389F0EB016B0107
:10124000C40ED51ECC15DD0569F06991D701ED916D
:10125000FC910190F081E02DC7011995F3CF642F27
:101260000E949607C801DF91CF911F910F91FF90C7
:10127000EF90DF90CF900895CF93DF931F92CDB77B
:10128000DEB76983209180092223F9F02091430A77
:10129000203258F021E030E0FC013383228390E0DB
:1012A00080E00F90DF91CF9108958091440AE82F5C
:1012B000F0E0EF57F64F998190838F5F8093440A57
:1012C0008093430A81E090E0ECCF61E0CE0101968B
:1012D0000E949607F7CFFC01248131E0309380090A
:1012E0002093A1091092440A1092430A8385682B27
:1012F00087E49AE00E943C0981E00C94FC07089581
:1013000090E080E008958F929F92AF92BF92CF922B
:10131000DF92EF92FF920F931F93CF93DF93EC0135
:101320008A819B818230910509F453C03CF4019776
:10133000D9F1E12CF12C00E010E03CC083309105A4
:1013400009F49EC00497A9F788819981813091059D
:1013500009F4EFC0029769F708851985C8010E9452
:1013600083096B017C010A84DB85C02D20E030E01D
:10137000A9010E94862F181654F0CE010E948309FD
:1013800020E030E0A9010E94862F181694F6CE01C5
:101390000E9483099B01AC01C701B6010E94862F00
:1013A00018160CF0BDCFECC0EC81FD81E088F1880F
:1013B00002891389B701C801DF91CF911F910F9165
:1013C000FF90EF90DF90CF90BF90AF909F908F9065
:1013D0000895888199818130910539F1029709F04A
:1013E000A8CFEC81FD81A088B188C288D388EE8126
:1013F000FF81E088F1880289138920E030E0A901AB
:10140000B501C6010E94862F181654F020E030E086
:10141000A901B701C8010E94862F18160CF089CFC8
:101420009501A601B701C80124C0EC81FD81A08807
:10143000B188C288D38820E030E0A901B501C60197
:101440000E94862F18160CF074CFEE81FF81E08881
:10145000F1880289138920E030E0A901B701C801B1
:101460000E94862F18160CF064CF9701A801B501D1
:10147000C6010E94272E87FF9DCF750186019ACF56
:10148000888199818130910551F1029709F051CFFE
:10149000EC81FD81E088F188028913890884D9856F
:1014A000C02D20E030E0A901B701C8010E94862FBD
:1014B00018165CF0CE010E94830920E030E0A901FB
:1014C0000E94862F18160CF034CFCE010E9483099B
:1014D0009701A8010E94272E87FF22CF6BCFEC81B6
:1014E000FD81E088F1880289138920E030E0A901BC
:1014F000B701C8010E94862F18160CF01ACF088475
:10150000D985C02DCE010E9483094B015C0120E0EA
:1015100030E0A9010E94862F18160CF00ACF97011F
:10152000A801C501B4010E94862F18160CF0F8CE50
:1015300041CF08851985C8010E9483096B017C0190
:1015400020E030E0A9010E94862F18160CF0F1CEA1
:101550000A84DB85C02DCE010E9483094B015C010A
:1015600020E030E0A9010E94862F18160CF0E1CE91
:10157000A5019401C701B6010E94272E87FFD0CE96
:10158000E801CECEFC014115510589F061157105C8
:1015900071F081E090E09183808383E090E0938319
:1015A0008283558344837187608781E0089580E05A
:1015B0000895FC0111821082138212821582148216
:1015C0001782168211861086138612860895DC0112
:1015D000ED91FC913097A1F0A081B1818D919C910A
:1015E00011976817790741F412962D933D934D9307
:1015F0005C93159781E008950280F381E02DEACF96
:1016000080E00895EF92FF920F931F93CF93DF93A3
:101610007C010AE010E0D0E0C0E0F70180850E9484
:101620002207C80FD91F6AE070E080E090E00E94B6
:1016300064070150110989F7CE016AE070E00E9449
:101640006830EB01072E000C880B990B0E94D62EF8
:10165000F7016083718382839383CE01DF91CF9101
:101660001F910F91FF90EF9008950F931F93CF93C9
:10167000DF93EC018B0184E090E00E9498300097AA
:10168000D1F0FC011183008313821282E881F98179
:10169000309749F49983888381E0DF91CF911F913E
:1016A0000F910895F9012281338121153105D1F778
:1016B00093838283F1CF80E0F0CF0F931F93CF937A
:1016C000DF93EC018B0184E090E00E94983000975A
:1016D000D1F0FC011183008313821282EE81FF811D
:1016E000309749F49F838E8381E0DF91CF911F91E2
:1016F0000F910895F9012281338121153105D1F728
:1017000093838283F1CF80E0F0CF8F929F92AF924C
:10171000BF92CF92DF92EF92FF920F931F93CF93DE
:10172000DF93EC014A015B01680179018CE090E0F4
:101730000E949830FC0180E0309799F0118210826D
:1017400082829382A482B582C682D782E086F186A5
:1017500013861286A881B981109789F4F983E883EA
:1017600081E0DF91CF911F910F91FF90EF90DF907B
:10177000CF90BF90AF909F908F900895DC011A9604
:101780008D919C911B970097C9F7B183A0831B96FD
:10179000FC93EE931A97E4CF0F931F93CF93DF93AD
:1017A000EC018B0184E090E00E9498300097D1F02A
:1017B000FC011183008313821282EC81FD8130973A
:1017C00049F49D838C8381E0DF91CF911F910F912C
:1017D0000895F9012281338121153105D1F79383D1
:1017E0008283F1CF80E0F0CF0F931F93CF93DF93ED
:1017F000EC018B0184E090E00E9498300097D1F0DA
:10180000FC011183008313821282E881F9813097F1
:1018100049F49983888381E0DF91CF911F910F91E3
:101820000895F9012281338121153105D1F7938380
:101830008283F1CF80E0F0CF0F931F93CF938C0181
:10184000C62F0E946B096C2F6460C8010E946B094F
:101850006C2F6B7FC8010E946B0983EC90E00197AD
:10186000F1F7CF911F910F9108950F931F93CF938D
:10187000DF938C01D62FC42F607F642B0E941C0C39
:1018800080E1D89FB00111246C2BC801DF91CF916A
:101890001F910F910C941C0C40E061E083E59AE0ED
:1018A0000E94350C8BE39FE10197F1F70895CF93E8
:1018B000DF93823028F09091580A98609093580AEC
:1018C00080935B0A62E370E080E090E00E9464072E
:1018D00060915E0A83E59AE00E946B0968EE73E00E
:1018E00080E090E00E94640760E383E59AE00E9454
:1018F0001C0CCBE4D6E4CE010197F1F760E383E55D
:101900009AE00E941C0C2197F1F760E383E59AE0CE
:101910000E941C0C83E592E00197F1F760E283E5F9
:101920009AE00E941C0C6091580A606240E083E5D6
:101930009AE00E94350C84E08093590A40E06CE004
:1019400083E59AE00E94350C0E944C0C82E0809363
:101950005A0A40E066E083E59AE00E94350C40E0D8
:1019600062E083E59AE00E94350C8BE39FE10197EA
:10197000F1F7DF91CF910895CF93DF9300D000D09E
:101980001F921F92CDB7DEB788E0EDE1F2E0DE01F5
:10199000119601900D928A95E1F780915B0A811171
:1019A0001AC08FEF90E0880F991F21E030E02C0FD4
:1019B0003D1F820F931FFC016081606840E083E55A
:1019C0009AE028960FB6F894DEBF0FBECDBFDF9128
:1019D000CF910C94350C81E0E5CF41E00E94350CAD
:1019E00081E090E00895CF93DF93EC0160E08E8179
:1019F0000E94590561E08E810E94590560E08E8148
:101A00000E9459058BE891E00197F1F7DF91CF91A2
:101A10000895CF92DF92EF92FF920F931F93CF938F
:101A2000DF936C017C0187E0E80EF11CD0E0C0E0A0
:101A3000062F10E0B8010C2E02C0759567950A9428
:101A4000E2F76170F70181917F010E9459052196AB
:101A5000C430D10579F7C601DF91CF911F910F9165
:101A6000FF90EF90DF90CF900C94F30CCF92DF9229
:101A7000EF92FF920F931F93CF93DF93EC01F62E1B
:101A8000642F8C810E9459058D818F3F19F060E091
:101A90000E9459050F2D10E08F8584FF25C06E012F
:101AA00087E0C80ED11CF12CE12CB8010E2C02C02D
:101AB000759567950A94E2F76170F60181916F015F
:101AC0000E945905FFEFEF1AFF0A88E0E816F104BB
:101AD00061F7CE01DF91CF911F910F91FF90EF90B1
:101AE000DF90CF900C94F30CB80184E07595679566
:101AF0008A95E1F7CE010E94090D6F2DCE01DF918D
:101B0000CF911F910F91FF90EF90DF90CF900C94A9
:101B1000090D40E0682F8FE59AE00C94360D81E0C6
:101B20000E94890D8BE39FE10197F1F70895CF9310
:101B3000DF93823029F490916E0A986090936E0A38
:101B40008093720A1092730A80E48093740A80E191
:101B50008093750A80E58093760A61E08091630A3C
:101B60000E948B058091640A8F3F19F061E00E940A
:101B70008B0561E08091650A0E948B05CFE5DAE074
:101B80009E012F553A4080916E0A84FD0BC084E07F
:101B900090E021962817390744F461E08E810E9475
:101BA0008B05EECF88E090E0F4CF8BE39DE00197CA
:101BB000F1F760E08091630A0E94590560E080912E
:101BC000650A0E9459058091640A8F3F19F060E010
:101BD0000E94590580916E0A84FD34C063E08FE550
:101BE0009AE00E94090DCBE4D6E4CE010197F1F70B
:101BF00063E08FE59AE00E94090D2197F1F763E019
:101C00008FE59AE00E94090D83E592E00197F1F7D4
:101C100062E08FE59AE00E94090D80916E0A806271
:101C20000E94890D84E080936F0A8CE00E94890DE8
:101C30000E948F0D82E08093700A86E0DF91CF9141
:101C40000C94890D80620E94890D8BE496E40197C3
:101C5000F1F780916E0A80620E94890D83E592E01F
:101C60000197F1F780916E0A80620E94890DD5CFAD
:101C7000E091720AE23040F4E150F0E0E15AF54FB1
:101C8000848980680C94890DE1E0F7CF41E00E94DF
:101C9000360D81E090E00895CF93DF93EB016A85E4
:101CA0007B856115710511F00E944C0ECE01DF910C
:101CB000CF910C943431FB0101900020E9F731976A
:101CC000AF01461B570BDC01ED91FC910280F381C3
:101CD000E02D19948F929F92AF92BF92EF92FF9254
:101CE0000F931F93CF93DF93CDB7DEB7A1970FB6B6
:101CF000F894DEBF0FBECDBF7C01FA01CB0119A263
:101D0000223008F42AE08E010F5D1F4F822E912CA5
:101D1000B12CA12CBF01A50194010E94892DF901CC
:101D2000CA016A300CF5605DD8016E938D01232BDA
:101D3000242B252B79F790E080E0109721F0BD014E
:101D4000C7010E945B0EA1960FB6F894DEBF0FBECE
:101D5000CDBFDF91CF911F910F91FF90EF90BF907A
:101D6000AF909F908F900895695CDECFCF92DF9205
:101D7000EF92FF920F931F93CF93DF9377FF1DC0D6
:101D80006A017B01EC016DE20E948B038C01442708
:101D90005527BA014C195D096E097F092AE0CE0169
:101DA0000E946A0E800F911FDF91CF911F910F91BA
:101DB000FF90EF90DF90CF9008952AE0DF91CF91D0
:101DC0001F910F91FF90EF90DF90CF900C946A0ECF
:101DD000AB01770F660B770B0C94B60E2F923F92E8
:101DE0004F925F926F927F928F929F92AF92BF922B
:101DF000CF92DF92EF92FF921F93CF93DF93EC018C
:101E00006A017B01722EAB019601CB01B6010E94E3
:101E10003E306BE672E0811126C046015701E8941E
:101E2000B7F82FEF3FEF4FE75FE7C501B4010E941E
:101E30003E3081110CC02FEF3FEF4FE75FE7C50148
:101E4000B4010E94272E6FE672E0181664F02FEF9F
:101E50003FEF4FE75FE4C701B6010E94862F1816D7
:101E6000B4F463E772E0CE01DF91CF911F91FF9050
:101E7000EF90DF90CF90BF90AF909F908F907F902A
:101E80006F905F904F903F902F900C945B0E2FEFD0
:101E90003FEF4FE75FECC701B6010E94272E87FD99
:101EA000E0CF20E030E0A901C701B6010E94272E53
:101EB000312C212C87FF09C06DE2CE010E948B03DB
:101EC0001C01F7FAF094F7F8F09410E060E070E08D
:101ED00080E09FE3711641F020E030E040E251E401
:101EE0000E942C2E1F5FF6CFA70196010E94BB2DEA
:101EF0002B013C010E94A52E4B015C012AE0BC0194
:101F0000A401CE010E946A0E7C01E20CF31C112395
:101F1000C1F1C501B4010E94D42E9B01AC01C301E3
:101F2000B2010E94BA2D4B015C016EE2CE010E940B
:101F30008B03E80EF91E115020F120E030E040E262
:101F400051E4C501B4010E948B2F2B013C010E947A
:101F5000A52E4B01B12CA12C2AE0B501A401CE0184
:101F60000E946A0EE80EF91EC501B4010E94D42E2B
:101F70009B01AC01C301B2010E94BA2D4B015C016F
:101F8000DACFC701DF91CF911F91FF90EF90DF90E3
:101F9000CF90BF90AF909F908F907F906F905F9009
:101FA0004F903F902F90089522E00C94EE0E67E73B
:101FB00072E00C945B0ECF93DF93BC0182EA99E050
:101FC0000E945B0EEC0182EA99E00E94D70F8C0F11
:101FD0009D1FDF91CF910895CF93DF93AB01BC019B
:101FE00022E082EA99E00E94EE0EEC0182EA99E09A
:101FF0000E94D70F8C0F9D1FDF91CF9108950C94F5
:102000005B0E85ED8093BC0080917C0990917D09E9
:10201000A0917E09B0917F090796A11DB11D23E013
:10202000B695A795979587952A95D1F72091BC00ED
:1020300024FD03C010927A09089540917C095091C3
:102040007D0960917E0970917F09452B462B472BB6
:1020500069F30097A105B10541F025E32A95F1F751
:1020600000000197A109B109E1CF80917B090C948F
:10207000DB074F925F926F927F928F929F92AF9207
:10208000BF92CF92DF92EF92FF92CF93DF9300D077
:1020900000D0CDB7DEB79E838D830E943F072B0112
:1020A0003C01C12CD12C7601812C912C54010E9431
:1020B0003F07641975098609970960327E448105D6
:1020C000910570F5AD81BE818D919D910D90BC9172
:1020D000A02D89839A83AB83BC83ED81FE818085AB
:1020E0000E942207BC01990F880B990B0E94D62EE3
:1020F0009B01AC0169817A818B819C810E94BA2D00
:102100000E949E2E9B01AC010E945830860E971EA5
:10211000A81EB91EFFEFCF1ADF0AEF0AFF0AC7CFCA
:10212000C501B401A70196010E94892DCA01B90118
:102130000E94D42E0E94FE2F20E030EC4FE754E4A2
:102140000E942C2E20E030E040EA50E40E948B2FC9
:10215000AD81BE8114962D913D914D915C91179763
:102160000E942C2E26960FB6F894DEBF0FBECDBF70
:10217000DF91CF91FF90EF90DF90CF90BF90AF9025
:102180009F908F907F906F905F904F9008952F92C7
:102190003F924F925F926F927F928F929F92AF92F7
:1021A000BF92CF92DF92EF92FF920F931F93CF9344
:1021B000DF93CDB7DEB768970FB6F894DEBF0FBEDA
:1021C000CDBF80E89AE00E94020B87E79AE00E9468
:1021D000020B82E00E94970D1092460A1092450A67
:1021E0001092440A1092430A0E94BD0786E891E0CB
:1021F0009093400A80933F0A87E891E09093420AC7
:102200008093410A1092580A80915D0A0E94570CEF
:1022100088E080935E0A60E083E59AE00E946B09A3
:1022200082E00E94570C60E082E40E948B0560E02F
:1022300083E40E948B0561E08EE00E948B0561E0E3
:102240008FE00E948B0561E089E00E948B0561E0D0
:1022500088E00E948B0561E082E00E948B0561E0CE
:1022600083E00E948B0561E084E00E948B05E09191
:10227000B209F091B30982E08083E091AE09F09158
:10228000AF091082E091B009F091B1098FEC808321
:102290001092BA09E091B609F091B70986E08083FF
:1022A000E091B409F091B509808180618083E0916B
:1022B000B409F091B509808188608083E091B40908
:1022C000F091B509808180688083E091B409F09134
:1022D000B50980818F7D808360E089E00E94590587
:1022E00060E088E00E94590560E08EE00E94590598
:1022F00068EC70E080E090E00E94640780E00E945B
:102300002207BC01990F880B990B61157105810596
:10231000910511F00E944E2D6AE772E08FE59AE078
:102320000E94FF0F6AE772E083E59AE00E94FF0FC8
:102330008BE892E00E94DB0F81EB92E00E94DB0FC2
:1023400061E08FE00E94590564E670E080E090E073
:102350000E94640760E08FE00E94590564E670E027
:1023600080E090E00E94640761E08FE00E945905E0
:1023700064E670E080E090E00E94640760E08FE037
:102380000E94590564E670E080E090E00E946407D6
:1023900061E08FE00E94590564E670E080E090E023
:1023A0000E94640760E08FE00E9459050E948F0D33
:1023B0000E944C0C88E090E00E9498308C01EE2442
:1023C000E394F12CD801ED92FC92F8011282138271
:1023D0001482158217821682A0900E0BB0900F0BFC
:1023E000B501C8010E945D0B80910C0B90910D0B03
:1023F0009C878B87BC01C8010E945D0BA0910A0BD2
:10240000B0910B0BBE87AD87BD01C8010E945D0B6B
:10241000E091100BF091110BF88FEF8BB801CF0109
:102420000E94F40B88E090E00E9498308C0182E0DA
:1024300090E0D8018D939C93F8011282138214824C
:102440001582178216828091080B9091090B98874C
:102450008F83BC01C8010E945D0BA091060BB09157
:10246000070BBA87A987BD01C8010E945D0BB8019F
:102470008F89988D0E94F40B88E090E00E9498303C
:102480008C0183E090E0F8019183808312821382B3
:102490001482158217821682E091040BF091050BCD
:1024A000FC83EB83BF01C8010E945D0B8091020B8E
:1024B0009091030B9E838D83BC01C8010E945D0B2C
:1024C000B8018F89988D0E94F40B88E090E00E94FB
:1024D00098308C0184E090E0D8018D939C93F801B2
:1024E0001282138214821582178216828091000B49
:1024F0009091010B9A838983BC01C8010E945D0BF6
:102500004090FE0A5090FF0AB201C8010E945D0B84
:102510002090FC0A3090FD0AB101C8010E945D0BB9
:10252000B8018F89988D0E94F40B8AE090E00E9498
:1025300098308C01DC01ED92FC92FC011282138236
:10254000148215821782168282E090E00E949830F1
:10255000DC011D921C92F801918780878090FA0A15
:102560009090FB0AB401C8010E945D0B8091F80AAB
:102570009091F90A988B8F87BC01C8010E945D0B6E
:1025800084E090E00E9498303C01009709F454C028
:10259000DC0111961C930E9313961C921E921297B7
:1025A000F801F681FD8BD8011796BC91BE8BEF2EFA
:1025B000FB2EE114F10499F10D891E890115110515
:1025C00049F1F801C280D380C114D10419F180818E
:1025D00091819A8B898BD6010D90BC91A02DBC8BDB
:1025E000AB8BFC0120813181428153816D917D91C2
:1025F0008D919C910E94272E87FF0AC0EB89FC8950
:10260000D801ED93FC93E989FA89D601ED93FC9307
:102610008601D4CFD7011296ED90FC90CACFAF8936
:10262000B88D1296ED91FC911397309709F008C47C
:1026300013967C926E9212978CE090E00E949830F4
:102640008C010E94D90AA114B104C1F0EF81F88570
:102650003097A1F081E090E0D80111969C938E9381
:1026600082E090E013969C938E9312971596BC92FD
:10267000AE9214971796FC93EE9316978CE090E029
:102680000E9498307C010E94D90A4D815E81B80178
:10269000C7010E94C20A8CE090E00E9498306C0151
:1026A0000E94D90A49815A81B701C6010E94C20A13
:1026B00082E090E00E9498303C01FC01118210827F
:1026C000B4010E94350B87E090E00E949830FC0135
:1026D00081E090E0918380831282D482C3827682EB
:1026E0006582BF018F89988D0E94CC0B8CE090E0B1
:1026F0000E9498306C010E94D90AA201B701C6015C
:102700000E94C20A87E090E00E949830FC01A2E09B
:10271000B0E0B183A0831282D482C38276826582C4
:10272000BC018F89988D0E94CC0B8CE090E00E94B8
:1027300098306C010E94D90AA101B701C6010E941C
:10274000C20A82E090E00E9498304C01FC011182A4
:1027500010826F8578890E94350B87E090E00E9497
:102760009830FC0183E090E0918380831282D482D0
:10277000C38296828582BF018F89988D0E94CC0B7F
:102780008CE090E00E9498307C010E94D90A4B8135
:102790005C81B801C7010E94C20A8CE090E00E94EF
:1027A00098308C010E94D90A49815A81B701C80129
:1027B0000E94C20A87E090E00E949830FC0184E009
:1027C00090E09183808312821483038376826582F2
:1027D000BF018F89988D0E94CC0B8CE090E00E9405
:1027E00098308C010E94D90AA201B701C8010E9449
:1027F000C20A87E090E00E949830FC0185E090E0FA
:102800009183808312821483038376826582BF0161
:102810008F89988D0E94CC0B8CE090E00E949830BC
:102820008C010E94D90AA101B701C8010E94C20A05
:1028300087E090E00E949830FC0186E090E0918370
:10284000808312821483038396828582BF018F89DD
:10285000988D0E94CC0B8CE090E00E9498308C0107
:102860000E94D90AA114B104D1F089859A85892BD7
:10287000B1F0E1E0F0E0D8011196FC93EE9382E034
:1028800090E013969C938E9312971596BC92AE92FD
:102890001497E985FA851796FC93EE9316978CE0CA
:1028A00090E00E9498307C010E94D90A4D815E819F
:1028B000B801C7010E94C20A8CE090E00E949830E3
:1028C0006C010E94D90A49815A81B701C6010E9450
:1028D000C20A87E090E00E949830FC0187E090E017
:1028E000918380831282D482C38276826582BF0103
:1028F0008F89988D0E94CC0B8CE090E00E949830DC
:102900006C010E94D90AA201B701C6010E94C20A45
:1029100087E090E00E949830FC0188E090E091838D
:1029200080831282D482C38276826582BF018F89BE
:10293000988D0E94CC0B8CE090E00E9498306C0146
:102940000E94D90AA101B701C6010E94C20A87E00C
:1029500090E00E949830FC0189E090E091838083B0
:102960001282D482C38296828582BF018F89988D1C
:102970000E94CC0B8CE090E00E9498307C010E9479
:10298000D90A4B815C81B801C7010E94C20A8CE060
:1029900090E00E9498308C010E94D90A49815A81A6
:1029A000B701C8010E94C20A87E090E00E949830F7
:1029B000FC018AE090E09183808312821483038378
:1029C00076826582BF018F89988D0E94CC0B8CE046
:1029D00090E00E9498308C010E94D90AA201B701B0
:1029E000C8010E94C20A87E090E00E949830FC0172
:1029F0008BE090E09183808312821483038396821C
:102A00008582BF018F89988D0E94CC0B8CE090E06D
:102A10000E9498308C010E94D90AA101B701C80117
:102A20000E94C20A87E090E00E949830FC018CE08E
:102A300090E091838083128214830383968285823F
:102A4000BF018F89988D0E94CC0B8CE090E00E9492
:102A500098308C010E94D90A8B859C85892B89F03E
:102A6000AD85BE85109769F082E090E0F801918312
:102A70008083938382838B859C8595838483B783AE
:102A8000A6838CE090E00E9498306C010E94D90AE5
:102A90004F815885B801C6010E94C20A8CE090E0BF
:102AA0000E9498307C010E94D90A4D815E81B60156
:102AB000C7010E94C20A8CE090E00E9498305C013D
:102AC0000E94D90A49815A81B701C5010E94C20AF0
:102AD00087E090E00E949830FC018DE090E09183C7
:102AE00080831282B482A38276826582BF018F893D
:102AF000988D0E94CC0B8CE090E00E9498305C0195
:102B00000E94D90AA201B701C5010E94C20A87E04A
:102B100090E00E949830FC018EE090E091838083E9
:102B20001282B482A38296828582BF018F89988D9A
:102B30000E94CC0B8CE090E00E9498305C010E94D7
:102B4000D90AA101B701C5010E94C20A87E090E03D
:102B50000E949830FC018FE090E091838083128284
:102B6000B482A38296828582BF018F89988D0E944C
:102B7000CC0B8CE090E00E9498307C010E94D90A36
:102B80004B815C81B601C7010E94C20A8CE090E0D3
:102B90000E9498306C010E94D90A49815A81B7017C
:102BA000C6010E94C20A87E090E00E949830FC01B2
:102BB00080E190E0918380831282D482C382768206
:102BC0006582BF018F89988D0E94CC0B8CE090E0CC
:102BD0000E9498306C010E94D90AA201B701C60177
:102BE0000E94C20A87E090E00E949830FC0181E1D7
:102BF00090E0918380831282D482C3827682658240
:102C0000BF018F89988D0E94CC0B8CE090E00E94D0
:102C100098306C010E94D90AA101B701C6010E9437
:102C2000C20A87E090E00E949830FC0182E190E0C7
:102C3000918380831282D482C38296828582BF016F
:102C40008F89988D0E94CC0B8CE090E00E94983088
:102C50007C010E94D90A49855A85B801C7010E94A2
:102C6000C20A8CE090E00E9498308C010E94D90A40
:102C70004D815E81B701C8010E94C20A8CE090E0DC
:102C80000E9498306C010E94D90A49815A81B8018A
:102C9000C6010E94C20A87E090E00E949830FC01C1
:102CA00083E190E0918380831282D482C3829682F2
:102CB0008582BF018F89988D0E94CC0B8CE090E0BB
:102CC0000E9498306C010E94D90AA201B801C60185
:102CD0000E94C20A87E090E00E949830FC0184E1E3
:102CE00090E0918380831282D482C382968285820F
:102CF000BF018F89988D0E94CC0B8CE090E00E94E0
:102D000098306C010E94D90AA101B801C6010E9445
:102D1000C20A87E090E00E949830FC0185E190E0D3
:102D2000918380831282D482C38296828582BF017E
:102D30008F89988D0E94CC0B8CE090E00E94983097
:102D40008C010E94D90A4B815C81B701C8010E94A5
:102D5000C20A8CE090E00E9498307C010E94D90A5F
:102D600049815A81B801C7010E94C20A87E090E0F8
:102D70000E949830FC0186E190E09183808312826A
:102D8000F482E38276826582BF018F89988D0E94EA
:102D9000CC0B8CE090E00E9498307C010E94D90A14
:102DA000A201B801C7010E94C20A87E090E00E9418
:102DB0009830FC0187E190E0918380831282F48255
:102DC000E38296828582BF018F89988D0E94CC0B09
:102DD0008CE090E00E9498307C010E94D90AA10109
:102DE000B801C7010E94C20A87E090E00E949830B3
:102DF000FC0188E190E0918380831282F482E38277
:102E000096828582BF018F89988D68960FB6F89457
:102E1000DEBF0FBECDBFDF91CF911F910F91FF900D
:102E2000EF90DF90CF90BF90AF909F908F907F906A
:102E30006F905F904F903F902F900C94CC0BFC01C3
:102E4000828193810097D9F773826282F5CB1F92BA
:102E50000F920FB60F9211240BB60F922F933F9340
:102E60004F935F936F937F938F939F93AF93BF9392
:102E7000EF93FF9382EA99E00E940604FF91EF919D
:102E8000BF91AF919F918F917F916F915F914F9182
:102E90003F912F910F900BBE0F900FBE0F901F9080
:102EA00018951F920F920FB60F9211240BB60F9226
:102EB0002F938F939F93EF93FF93E091B209F0913B
:102EC000B3098081E091B809F091B90982FD1DC074
:102ED00090818091BB098F5F8F732091BC0982170D
:102EE00041F0E091BB09F0E0EE55F64F958F8093ED
:102EF000BB09FF91EF919F918F912F910F900BBE86
:102F00000F900FBE0F901F9018958081F2CF1F92E7
:102F10000F920FB60F9211242F933F938F939F938D
:102F2000AF93BF938091500990915109A09152099C
:102F3000B09153093091060923E0230F2D3758F53E
:102F40000196A11DB11D209306098093500990930D
:102F50005109A0935209B0935309809107099091A8
:102F60000809A0910909B0910A090196A11DB11D96
:102F70008093070990930809A0930909B0930A095F
:102F8000BF91AF919F918F913F912F910F900FBE65
:102F90000F901F90189526E8230F0296A11DB11DD2
:102FA000D2CF1F920F920FB60F9211240BB60F9231
:102FB0002F933F934F935F936F937F938F939F9341
:102FC000AF93BF93EF93FF938091B900887F8036D2
:102FD00009F44DC008F040C0883209F4A9C028F5B2
:102FE000803109F49DC0C8F4882309F4FBC08830FF
:102FF00009F496C0FF91EF91BF91AF919F918F918E
:103000007F916F915F914F913F912F910F900BBEE8
:103010000F900FBE0F901F901895883109F488C04B
:10302000803241F78093780914C0803409F49DC040
:1030300040F48033B9F38833E9F68093780985EC5E
:10304000B0C0803509F485C0883509F496C088344D
:1030500089F60E940110CECF883909F48CC038F56A
:10306000883729F050F4883611F0803719F683E05C
:1030700080937A091092050957C0883809F47BC0FB
:10308000803919F0803809F0B5CF80910509803278
:1030900008F071C0E091050981E08E0F8093050969
:1030A0008091BB00F0E0EB51F74F80833DC0803B47
:1030B00039F0E0F4803A09F479C0883A09F09ACFFF
:1030C00084E080937A091092E4081092E308E0917A
:1030D0003F0AF091400A19958091E30881110FC0D1
:1030E00081E08093E3081092C30809C0803C09F492
:1030F000A6CF883C09F4A3CF883B09F07BCFE091B1
:10310000E40881E08E0F8093E408F0E0ED53F74F80
:1031100080818093BB009091E4088091E30829C0EE
:10312000809155098093BB0085EC8093BC0062CFF1
:103130009091770980917609981758F5E091770971
:1031400081E08E0F80937709F0E0EA5AF64F808194
:10315000E9CFE091770981E08E0F80937709809124
:10316000BB00F0E0EA5AF64F808390917709809196
:1031700076099817C8F285E8D8CFE091770981E001
:103180008E0F809377098091BB00F0E0EA5AF64FEA
:1031900080838091790981115CCF81E0809354090B
:1031A00084EA8093BC0010927A0924CF85EC809346
:1031B000BC0010927A0980910509803230F4E091C8
:1031C0000509F0E0EB51F74F10826091050970E0BE
:1031D000E091410AF091420A85EE98E0199510922B
:1031E000050908CF1092780934CF4F925F926F9201
:1031F0007F928F929F92AF92BF92CF92DF92EF9287
:10320000FF921092A5091092A40988EE93E0A0E025
:10321000B0E08093A6099093A709A093A809B09362
:10322000A90929E232E03093A3092093A20925ECF1
:1032300030E03093AF092093AE0924EC30E03093B6
:10324000B1092093B00920EC30E03093B30920930A
:10325000B20921EC30E03093B5092093B40922EC97
:1032600030E03093B7092093B60926EC30E0309374
:10327000B9092093B8091092BB091092BC091092A9
:10328000BD091092BE0910924A0A1092490A809311
:103290004B0A90934C0AA0934D0AB0934E0A8BE3CD
:1032A00092E09093480A8093470A1092460A10923F
:1032B000450A1092440A1092430A0E94BD0786E80C
:1032C00091E09093400A80933F0A87E891E09093C1
:1032D000420A8093410A86E090E00E949830FC0107
:1032E0001182108213821282158214829093110B24
:1032F0008093100B84E190E00E949830FC01C12C77
:10330000D12C80EAE82E80E4F82EC082D182E282BD
:10331000F38280E090E0A0ECB0E484839583A68300
:10332000B783412C512C98E8692E91E4792E408680
:10333000518662867386812C912C20E9A22E21E48D
:10334000B22E84869586A686B786108A118A128A3E
:10335000138AF0930F0BE0930E0B84E190E00E9430
:103360009830FC014082518262827382848295820D
:10337000A682B78280E090E0A8EBB1E480879187D5
:10338000A287B38780E090E0A0ECB1E484879587C2
:10339000A687B787108A118A128A138AF0930D0BB9
:1033A000E0930C0B84E190E00E949830FC01812CAA
:1033B000912C30EAA32E30ECB32E80829182A2822F
:1033C000B3821482158216821782C086D186E28665
:1033D000F38680E090E0A0ECB0E484879587A68730
:1033E000B787108A118A128A138AF0930B0BE09325
:1033F0000A0B84E190E00E949830FC018082918267
:10340000A282B3821482158216821782412C512C1B
:1034100040EA642E41E4742E4086518662867386AB
:10342000C12CD12C58EAE52E51E4F52EC486D58660
:10343000E686F786108A118A128A138A9093090BFE
:103440008093080B84E190E00E949830FC01408258
:10345000518262827382C482D582E682F78280E0E2
:1034600090E0A0EFB1E480879187A287B38784873B
:103470009587A687B787108A118A128A138AF093D4
:10348000070BE093060B84E190E00E949830FC016A
:1034900080E090E0A0E2B1EC80839183A283B383CB
:1034A00084829582A682B782108611861286138640
:1034B000C12CD12C60E8E62E6FE3F62EC486D586AB
:1034C000E686F786108A118A128A138AF093050B12
:1034D000E093040B84E190E00E949830FC0110829C
:1034E000118212821382C482D582E682F782412C35
:1034F000512C70E2672E71E4772E408651866286E9
:1035000073864486558666867786108A118A128A63
:10351000138A9093030B8093020B84E190E00E9446
:103520009830FC01812C912CA0E1AA2EA1E4BA2EA6
:1035300080829182A282B38244825582668277829F
:1035400080E090E0A0E4B1E480879187A287B38710
:1035500084879587A687B787108A118A128A138A6B
:10356000F093010BE093000B84E190E00E9498300F
:10357000FC011082118212821382C482D582E682FB
:10358000F78280E090E0A0E0B1E480879187A28795
:10359000B38784869586A686B786108A118A128A92
:1035A000138AF093FF0AE093FE0A84E190E00E9400
:1035B0009830FC0180E090E0A0E8BFEB808391832D
:1035C000A283B38314821582168217821086118615
:1035D00012861386C486D586E686F786108A118AF7
:1035E000128A138AF093FD0AE093FC0A84E190E0CA
:1035F0000E949830FC01C082D182E282F382812C49
:10360000912CA12CB0E4BB2E84829582A682B78235
:1036100080869186A286B38680E090E0A0E4B0E444
:1036200084879587A687B787108A118A128A138A9A
:10363000F093FB0AE093FA0A84E190E00E9498304C
:10364000FC011082118212821382C482D582E6822A
:10365000F782C086D186E286F38684869586A68622
:10366000B786108A118A128A138A9093F90A809376
:10367000F80A10928B0A10928F0A10928E0A1092FA
:10368000900A85E692E090938A0A8093890AE5EA97
:10369000FAE0108214821382158236969AE0E13E97
:1036A000F907B9F783E092E09093EC0A8093EB0A74
:1036B00080E092E09093EE0A8093ED0A84E080939C
:1036C000EF0A83E08093F00A87E092E09093EA0AA1
:1036D0008093E90A8AE090E09093F20A8093F10ADD
:1036E00084EF91E09093F40A8093F30A1092F70A22
:1036F0001092F60A1092E50A1092E60A1092E70A72
:103700001092E80A1092F50A40E050E060E074E49C
:103710004093800A5093810A6093820A7093830ACF
:1037200084EA90E7ADE3BEE38093840A9093850A30
:10373000A093860AB093870A26E32093880A4093D1
:10374000770A5093780A6093790A70937A0A809383
:103750007B0A90937C0AA0937D0AB0937E0A87E34C
:1037600080937F0A1092620A1092610A89E592E0C2
:103770009093600A80935F0A85E38093630A8FEFDA
:103780008093640A84E38093650A83E38093660AE6
:1037900082E38093670A81E38093680A80E38093E1
:1037A000690A10926A0A10926B0A10926C0A1092BF
:1037B0006D0A10926E0A81E00E94970D1092560ACF
:1037C0001092550A8DE492E09093540A8093530A24
:1037D00080E28093570A80E180935C0A82E08093C4
:1037E0005D0A10925E0AFF90EF90DF90CF90BF903D
:1037F000AF909F908F907F906F905F904F900895C3
:10380000CF93DF93CDB7DEB7C954D1090FB6F89483
:10381000DEBF0FBECDBF789484B5826084BD84B511
:10382000816084BD85B5826085BD85B5816085BDBB
:1038300080916E00816080936E0010928100809173
:1038400081008260809381008091810081608093FB
:103850008100809180008160809380008091B10020
:1038600084608093B1008091B00081608093B0004B
:10387000809191008260809391008091910081609D
:10388000809391008091900081608093900080915E
:10389000A10082608093A1008091A100816080934B
:1038A000A1008091A00081608093A00080912101FF
:1038B00082608093210180912101816080932101A8
:1038C0008091200181608093200180917A00846042
:1038D00080937A0080917A00826080937A00809150
:1038E0007A00816080937A0080917A00806880936A
:1038F0007A001092C1000E94C7109E01205F3F4FC6
:103900003B8F2A8FCE0144969D8F8C8FDE011896B7
:10391000BF8FAE8F01E00093800988E68093A109F4
:103920001092440A1092430A60E087E49AE00E94F1
:103930003C0981E00E94FC07182F8823D1F01092E7
:103940002F0980912F09882311F40C94AF2C80E368
:1039500098E00E94DB0F8FE598E00E94DB0F82EA7F
:1039600099E00E94D70F68EE73E080E090E00C943D
:10397000562C00932F090E943F076B017C01809118
:103980007A09811164C081E080937A098093790972
:103990009FEF909378091092770996E090937609BB
:1039A0008093550980915509806D809355098091C8
:1039B0005409813009F0C4C4109254090E943F0791
:1039C0006B017C01809155098093BB0080917C093B
:1039D00090917D09A0917E09B0917F09892B8A2B56
:1039E0008B2BA1F00E943F0780907C0990907D096D
:1039F000A0907E09B0907F096C197D098E099F09FE
:103A000086169706A806B90608F442C08091BC0045
:103A100083FDD8CF85EC8093BC000E943F076B01EB
:103A20007C0180917A09813009F48CC480917709F6
:103A3000873008F0A9C480917709A6E5B9E0EBE0EA
:103A4000F9E0181749F19D9191931F5FFACF80918A
:103A50007C0990917D09A0917E09B0917F09892B05
:103A60008A2B8B2B09F48BCF0E943F0780907C0917
:103A700090907D09A0907E09B0907F096C197D0916
:103A80008E099F0986169706A806B90608F077CF13
:103A900080917B090E94DB071092460A1093450A29
:103AA000173008F44ECF87E49AE00E94FC08D82E25
:103AB000829587701AE0BD2DBF708B2E819F800C80
:103AC000112487E49AE00E94FC08982F92959F7039
:103AD0008F70A82E919FA00C112487E49AE00E9479
:103AE000FC08982F929593708F70F82E919FF00C90
:103AF000112487E49AE00E94FC08982F92959F7009
:103B00008F70919F800D11248C8387E49AE00E942E
:103B1000FC08982F92959F708F70C82E919FC00CB3
:103B2000112487E49AE00E94FC08982F92959F70D8
:103B30008F70E82E919FE00C112487E49AE00E9498
:103B4000FC08982F92959F70082F0F70025E919F2E
:103B5000000D1124D7FCF5CE60ED77E080E090E019
:103B60000E94640782E40E942207BC01990F880B1F
:103B7000990B0E94D62E20E030E040EA50E40E94EB
:103B80008B2F20E030E040E85AE30E948B2F2CE896
:103B90003EE24AEB5DE30E942C2E60934C09709349
:103BA0004D0980934E0990934F0983E40E942207A8
:103BB000BC01990F880B990B0E94D62E20E030E0B3
:103BC00040EA50E40E948B2F20E030E040E85AE3C6
:103BD0000E948B2F2CE83EE24AEB5DE30E942C2EE4
:103BE000609348097093490980934A0990934B095F
:103BF00067E073E08FE59AE00E94FF0F409144096F
:103C00005091450960914609709147094F5F5F4F98
:103C10006F4F7F4F8FE59AE00E94B60E67E073E02A
:103C200083E59AE00E94FF0F4091440950914509B5
:103C300060914609709147094F5F5F4F6F4F7F4F0B
:103C400083E59AE00E94B60E63E173E082EA99E0B0
:103C50000E94FF0F40914409509145096091460927
:103C6000709147094F5F5F4F6F4F7F4F82EA99E036
:103C70000E94B60E84E497E00E94DB0F89E792E091
:103C80000E94DB0F8EE293E00E94DB0F60ED77E095
:103C900080E090E00E9464070E948F0D0E944C0C0F
:103CA00060E673E08FE59AE00E94FF0FEF2DF0E0F1
:103CB000F9A3E8A3BF018FE59AE00E94E80E6AE34A
:103CC0008FE59AE00E948B03B12CB5018FE59AE055
:103CD0000E94E80E6AE38FE59AE00E948B03912C24
:103CE000B4018FE59AE00E94E80E0E94380E64E568
:103CF00073E08FE59AE00E94FF0FD12CB6018FE5AB
:103D00009AE00E94E80E6FE28FE59AE00E948B0332
:103D1000F12CB7018FE59AE00E94E80E6FE28FE583
:103D20009AE00E948B0310E00E54184FB8018FE503
:103D30009AE00E94E80E6CE573E082EA99E00E9446
:103D4000FF0F68A179A182EA99E00E94E80E6AE378
:103D500082EA99E00E948B03B50182EA99E00E9411
:103D6000E80E6AE382EA99E00E948B03B40182EADA
:103D700099E00E94E80E68E673E082EA99E00E940A
:103D8000FF0FB60182EA99E00E94E80E6FE282EA34
:103D900099E00E948B03B70182EA99E00E94E80E45
:103DA0006FE282EA99E00E948B03B80182EA99E00F
:103DB0000E94E80E82EA99E00E94D70F89E792E01C
:103DC0000E94DB0F8AE793E00E94DB0F63EA73E057
:103DD00082EA99E00E94FF0F40914C0950914D09F1
:103DE00060914E0970914F0982EA99E00E94D40FC8
:103DF0006FEA73E082EA99E00E94FF0F68EB73E0DC
:103E000082EA99E00E94FF0F4091480950914909C8
:103E100060914A0970914B0982EA99E00E94D40F9F
:103E200086EC93E00E94DB0FC0904C09D0904D09C6
:103E3000E0904E09F0904F0920E030E040E451E47A
:103E4000C701B6010E94862F87FD20C020E030E028
:103E500040E451E4609148097091490980914A0910
:103E600090914B090E94862F87FD10C060E082E090
:103E70000E94590560E083E00E94590510922B09C9
:103E800010922C0910922D0910922E098090480949
:103E900090904909A0904A09B0904B09A50194015E
:103EA000C701B6010E94272E87FF1EC020E030E028
:103EB00040E85FE3C701B6010E94862F1816A4F4FC
:103EC00080912B0990912C09A0912D09B0912E0978
:103ED000892B8A2B8B2B41F460E082E00E945905EC
:103EE00060E083E00E945905A5019401C701B60175
:103EF0000E94862F18160CF049C220E030E040E8FE
:103F00005FE3C501B4010E94862F18160CF03EC273
:103F100080912B0990912C09A0912D09B0912E0927
:103F2000892B8A2B8B2BA1F461E082E00E9459053A
:103F300061E083E00E94590581E090E0A0E0B0E0FC
:103F400080932B0990932C09A0932D09B0932E09EF
:103F500020E030E040E85FE3C701B6010E94272E71
:103F600087FD3EC220E030E040E85FE3C501B401D8
:103F70000E94272E87FF10C060E082E00E94590552
:103F800060E083E00E94590510922B0910922C09E1
:103F900010922D0910922E0980912B0990912C09D5
:103FA000A0912D09B0912E09892B8A2B8B2BA1F47E
:103FB0008DEC93E00E94DB0F80914C0990914D09AC
:103FC000A0914E09B0914F0980933409909335091F
:103FD000A0933609B093370980912B0990912C0951
:103FE000A0912D09B0912E090197A105B105A1F469
:103FF00087EE93E00E94DB0F809148099091490978
:10400000A0914A09B0914B098093340990933509E6
:10401000A0933609B0933709C0903409D090350980
:10402000E0903609F090370920E030E040E85FE3A7
:10403000C701B6010E94862F181624F461E084E0BF
:104040000E94590520E030E040E85FE3C701B60177
:104050000E94272E87FF04C060E084E00E9459057B
:1040600060ED77E080E090E00E94640789E792E0ED
:104070000E94DB0F60ED77E080E090E00E94640733
:104080000E948F0D61E074E08FE59AE00E94FF0FBF
:1040900062E174E083E59AE00E94FF0F40914C09D1
:1040A00050914D0960914E0970914F0983E59AE056
:1040B0000E94D40F6AE174E083E59AE00E94FF0F4A
:1040C0000E94BC0C6DE174E083E59AE00E94FF0F52
:1040D000409148095091490960914A0970914B09F2
:1040E00083E59AE00E94D40F6AE174E083E59AE0E8
:1040F0000E94FF0F60ED77E080E090E00E9464078F
:104100000E948F0D0E944C0C85E294E00E94DB0F10
:1041100062E077E082EA99E00E94FF0F6BE474E0CE
:104120008FE59AE00E94FF0F87E79AE00E9439101E
:104130006B017C0120E030E0A9010E94272E811153
:1041400030C08091440990914509A0914609B091F1
:104150004709892B8A2B8B2B61F481E090E0A0E04A
:10416000B0E08093400990934109A0934209B09335
:10417000430910923C0910923D0910923E09109299
:104180003F0982E594E00E94DB0F65E574E08FE56E
:104190009AE00E94FF0F88E493E090933B0980939C
:1041A0003A0920E030E0A901C701B6010E94862F3C
:1041B0001816E4F480E090E0A0E8BFE380933C09A7
:1041C00090933D09A0933E09B0933F0988E594E0A0
:1041D0000E94DB0F6CE574E08FE59AE00E94FF0F10
:1041E00086EE90E090933B0980933A0920E030E01E
:1041F000A90160913C0970913D0980913E0990911F
:104200003F090E94272E811112C18091400990918F
:104210004109A0914209B0914309892B8A2B8B2B2C
:1042200009F005C18091380990913909019709F089
:10423000FEC020E030E040E85FE360913409709117
:10424000350980913609909137090E94862F1816FA
:104250000CF0EDC061E08EE00E94590561E08FE056
:104260000E94590568EB7BE080E090E00E946407C3
:1042700060E08FE00E94590560E674E083E59AE013
:104280000E94FF0F60ED77E080E090E00E946407FD
:104290000E944C0C61E774E083E59AE00E94FF0FF6
:1042A00060ED77E080E090E00E9464070E944C0C93
:1042B00064E874E083E59AE00E94FF0F0E94BC0C62
:1042C00069E974E083E59AE00E94FF0F8CEA94E0CC
:1042D0000E94DB0F86ED94E00E94DB0F89EF94E0F3
:1042E0000E94DB0F8DE395E00E94DB0F80E795E0F5
:1042F0000E94DB0F0E94CB05082FF12CE12C1AE065
:10430000033209F47BC00A3209F475C0ACF080EDC9
:10431000800F8A3088F4602F82EA99E00E948B0334
:104320001E9D90011F9D300D1124802F000F990BB1
:10433000C0977C01E20EF31E0E94CB05082FE0CF50
:1043400085EE69CB80917C0990917D09A0917E09D1
:10435000B0917F09892B8A2B8B2B09F462CB0E94A9
:104360003F0780907C0990907D09A0907E09B090D5
:104370007F096C197D098E099F0986169706A80684
:10438000B90608F04ECB84CB87E057CB20E030E075
:1043900040E85FE3C701B6010E94272E87FFE2CD08
:1043A00080912B0990912C09A0912D09B0912E0993
:1043B000892B8A2B8B2BA1F461E082E00E945905A6
:1043C00061E083E00E94590581E090E0A0E0B0E068
:1043D00080932B0990932C09A0932D09B0932E095B
:1043E00020E030E040E85FE3C501B4010E94272EE1
:1043F00087FFF2CDC1CDF12CE12C9ECFEA94EF28BE
:10440000B1F481E090E0A0E0B0E0809340099093A7
:104410004109A0934209B093430989E792E00E94C1
:10442000DB0F60E08EE00E9459050E944C0C60EDAD
:1044300077E080E090E00E9464070E948F0D20E00A
:1044400030E0A90160913C0970913D0980913E09DD
:1044500090913F090E94272E811144C0809140090C
:1044600090914109A0914209B09143090197A1059A
:10447000B105C1F520E030E040E85FE36091340928
:104480007091350980913609909137090E94862FE5
:10449000181644F58091380990913909029710F562
:1044A0006BE875E08FE59AE00E94FF0F0E94380EDE
:1044B0006AE975E08FE59AE00E94FF0F88EA95E0CF
:1044C0000E94DB0F61E089E00E94590561E088E00D
:1044D0000E94590560ED77E080E090E00E9464075B
:1044E0000E948F0D89E792E00E94DB0F68EE73E077
:1044F00080E090E00E94640769EF75E08FE59AE044
:104500000E94FF0F85E096E00E94DB0F80E89AE0B2
:104510000E9439106B017C0168EE73E080E090E04E
:104520000E94640760913A0970913B09072E000CC4
:10453000880B990B0E94D62EA70196010E948B2F03
:104540006093300970933109809332099093330955
:104550006BE276E082EA99E00E94FF0F4091300919
:1045600050913109609132097091330982EA99E0E2
:104570000E94D40F82E496E00E94DB0F0E94380E66
:1045800069E476E08FE59AE00E94FF0F40913009E0
:104590005091310960913209709133098FE59AE0A9
:1045A0000E94D40F60E576E08FE59AE00E94FF0F4D
:1045B00089E792E00E94DB0F68EE73E080E090E014
:1045C0000E9464070E948F0D60913009709131093B
:1045D00080913209909133090E949E2E4B014090A8
:1045E0003C0950903D0960903E0970903F09C3011D
:1045F000B2010E949E2E6AA37BA38CA39DA360910F
:1046000034097091350980913609909137090E94DB
:104610009E2E6B0120E030E0A901C301B2010E948F
:10462000272E811134C08091400990914109A091B9
:104630004209B09143090197A105B10541F5809167
:10464000380990913909029710F587E596E00E94A4
:10465000DB0F60E089E00E94590560E088E00E947D
:1046600059056DE976E083E59AE00E94FF0F0E940C
:10467000BC0C6EEA76E083E59AE00E94FF0F60EDE5
:1046800077E080E090E00E9464070E944C0C60910B
:104690003C0970913D0980913E0990913F090E942B
:1046A0009E2E609340097093410980934209909334
:1046B00043098BEB96E00E94DB0F61EE76E08FE51D
:1046C0009AE00E94FF0F61EE76E083E59AE00E9497
:1046D000FF0F68EE73E080E090E00E9464070E94A4
:1046E0008F0D0E944C0C60EF76E08FE59AE00E94FF
:1046F000FF0F68A179A18FE59AE00E94E80E0E9461
:10470000380E69EF76E08FE59AE00E94FF0FB40162
:104710008FE59AE00E94E80E62E077E083E59AE098
:104720000E94FF0F6AA17BA183E59AE00E94E80E38
:104730000E94BC0C6FE077E083E59AE00E94FF0FD7
:10474000B60183E59AE00E94E80E83E59AE00E94B4
:10475000D70F6FEE76E082EA99E00E94FF0F68A122
:1047600079A182EA99E00E94E80E67EF76E082EA9A
:1047700099E00E94FF0FB40182EA99E00E94E80EDE
:1047800060E077E082EA99E00E94FF0F6AA17BA1D6
:1047900082EA99E00E94E80E69E077E082EA99E017
:1047A0000E94FF0FB60182EA99E00E94E80E82EAB9
:1047B00099E00E94D70F89E792E00E94DB0F2090DA
:1047C000100B3090110BA8A1B9A1BD01BB0F880B34
:1047D000990B0E94D62E9B01AC0161E070E0C101F3
:1047E0000E94E70AB401990C880B990B0E94D62EFF
:1047F0009B01AC0162E070E0C1010E94E70AEAA1FE
:10480000FBA1BF01FF0F880B990B0E94D62E9B01C5
:10481000AC0163E070E0C1010E94E70AB601DD0C63
:10482000880B990B0E94D62E9B01AC0164E070E0CE
:10483000C1010E94E70AD1010D90BC91A02DB9A33E
:10484000A8A39D0121153105D9F0F901A081B181FD
:1048500016960D90BC91A02D109769F08D919C91AA
:104860001197FC01108A118A128A138A12960D90F0
:10487000BC91A02DF1CFD90112962D913C91E2CFA0
:10488000F1010280F381E02DFFA7EEA79F01211522
:10489000310509F4E2C0F901A081B18116960D90AD
:1048A000BC91A02D109769F08D919C911197FC01FE
:1048B000108A118A128A138A12960D90BC91A02D2B
:1048C000F1CFD90112962D913C91E1CFC701B601EC
:1048D0000E94862F87FD39C0A7019601C301B2014E
:1048E0000E94862F18168CF52AA13BA14CA15DA130
:1048F000C301B2010E94BA2D9B01AC0160E070E0DF
:1049000080E89FE30E942C2E4B015C01A3019201E1
:10491000C701B6010E94BA2D9B01AC01C501B401CB
:104920000E948B2F20E030E040E85FE30E94BB2D27
:10493000F801608B718B828B938BEEA1FFA10280BB
:10494000F381E02DFFA3EEA398C0D80118968D90B7
:104950009D90AD90BC901B97A7019601C301B20139
:104960000E94272E181694F0A7019601C501B401E4
:104970000E94862F87FD0AC080E090E0A0E8BFE398
:10498000F801808B918BA28BB38BD7CFD8011C966B
:104990008D919D910D90BC91A02D88A799A7AAA754
:1049A000BBA7A7019601C501B4010E94272E87FF6E
:1049B00027C028A539A54AA55BA5C701B6010E9455
:1049C000272E1816ECF028A539A54AA55BA5C50128
:1049D000B4010E94BA2D9B01AC0160E070E080E858
:1049E0009FE30E942C2E2B013C01A5019401C701DD
:1049F000B6010E94BA2D9B01AC01C301B20190CF58
:104A000028A539A54AA55BA5C701B6010E94862F36
:104A100018160CF092CF28A539A54AA55BA5C501AB
:104A2000B4010E94272E811171C0A3019201C5011A
:104A3000B4010E94272E882309F468C02AA13BA153
:104A40004CA15DA1C301B2015DC0A8A1B9A112969C
:104A50000D90BC91A02DB9A3A8A3E8A1F9A130970E
:104A600009F45CC0208131813DA72CA7D90116969D
:104A70000D90BC91A02DBFA3AEA3EEA1FFA13097D6
:104A800021F300811181ACA5BDA51296CD90DD90DA
:104A9000ED90FC901597D8018D919D910D90BC9152
:104AA000A02D8AA39BA3ACA3BDA3F801448055808D
:104AB000668077809C01AD01C701B6010E94272E58
:104AC0002AA13BA14CA15DA187FF00CFC301B20188
:104AD0000E94272E81111AC0D8011896CD90DD9022
:104AE000ED90FC901B97A7019601C301B2010E94B3
:104AF000272E882359F0F80124853585468557856A
:104B0000C701B6010E94272E811136CFD8015096D9
:104B10001D921D921D921C9253970FCFF10104819B
:104B20001581772473940115110509F0B2C09E0117
:104B3000245F3F4F398F288F2EA53FA521153105C2
:104B400009F431C4D9018D909C90F4010085118540
:104B5000D8016D917C916115710519F0C8010E9411
:104B60004C0EF80111821082D40116966D907C9043
:104B70006114710409F412C2F3010081118120E073
:104B800030E0A901D80150966D917D918D919C9155
:104B900053970E94862F18160CF077C1F801C08039
:104BA000D180E280F380A7019601648175818681BE
:104BB00097810E94272E882359F000E010E0980189
:104BC000B701A601D40118968D919C910E94850B86
:104BD000F30100811181D80114962D903D904D90E4
:104BE0005C9017975096CC9050975196DC905197C7
:104BF0005296EC9052975396FC905397A2019101D4
:104C000018966D917D918D919C911B970E94272EF6
:104C1000811140C1F801F081F8A3D8011196BC912F
:104C2000BAA3F801F281FEA3D8011396BC91B8A7EC
:104C3000F801F485FCA7D8011D96BC901D971E961F
:104C4000AC901E971F961C9178A16AA19EA188A581
:104C5000272F362F492F582FBF2F6B2F7B2D8A2DB3
:104C6000912F0E94272E882309F493C120E030E081
:104C700040E85FE36C2D7D2D8E2D9F2D0E94272E09
:104C8000811149C000E010E020E83FE3B201A1013A
:104C900023C1D801ED90FC90F701838194810097A6
:104CA000B1F1C580D680C114D10489F10E94830975
:104CB0004B015C0120E030E0A9010E94862F18160C
:104CC0001CF5D70112967C92D601ED90FC90E11470
:104CD000F104E9F0F701C080D180D60150962D9102
:104CE0003D914D915C915397C501B4010E94862F6F
:104CF00018162CF4F601808A918AA28AB38AD70109
:104D00001296ED90FC90E3CFF7011282DDCFF8010F
:104D10000281138108CF2C8A3D8A4E8A5F8A9601D0
:104D2000A701C901DA01888B998BAA8BBB8BFB8DFC
:104D3000FF938A8D8F939D8D9F93AC8DAF935F93DF
:104D40004F933F932F931F93AF92BF92BCA5BF93F6
:104D50005F934F933F932F93E8A5EF93FEA1FF93AB
:104D60002AA12F9338A13F93A12CB12C30E8C32E58
:104D70003FE3D32E8201710120E030E0A901B8A108
:104D8000AAA1FEA1E8A56B2F7A2F8F2F9E2F0E943C
:104D90001B02088919892A893B894C895D896E899A
:104DA0007F89D40118968D919C910E94850BD30127
:104DB000ED91FC9160857185828593856C877D87F7
:104DC0008E879F870089118932892389A801A32FA3
:104DD000B22F9D01088719872A873B87E484F584D1
:104DE000068517852F8D2F933E8D3F93298D2F9309
:104DF000388D3F93BF93AF935F934F931F930F9360
:104E0000FF92EF92BF93AF935F934F9323812F93C2
:104E100022812F9321812F9320812F93A12CB12CBC
:104E2000650120E030E040E85FE30E941B020FB61E
:104E3000F894DEBF0FBECDBF088519852A853B8556
:104E40004C855D856E857F85D40118968D919C91EA
:104E50000E94850BD301ED91FC91C484D584E68436
:104E6000F7842085318542855385C701B6010E94AC
:104E7000272E882351F000E010E09801B701A60129
:104E8000F401808591850E94850BD30112966D9067
:104E90007C906ECE20E030E040E85FE36C2D7D2D0D
:104EA0008E2D9F2D0E94272E81111AC000E010E048
:104EB00020E83FE3B201A101F401808591850E94C1
:104EC000850BD301ED91FC910089118922893389E9
:104ED0004085518562857385F40180859185B8CFC1
:104EE0002C8A3D8A4E8A5F8A9601A701C901DA01A0
:104EF000888B998BAA8BBB8BD8017C9111966C9176
:104F0000119712969C91129713968C91BB8DBF931B
:104F1000EA8DEF93FD8DFF93AC8DAF935F934F932D
:104F20003F932F93D8011F96EC911F97EF931E96F6
:104F3000EC911E97EF931D96EC911D97EF931C96A5
:104F4000EC91EF935F934F933F932F938F939F93A6
:104F50006F937F93A12CB12C20E8C22E2FE3D22E89
:104F60008201710120E030E0A901DB01FC016B2F1F
:104F70007A2F8F2F9E2F0E941B02088919892A8958
:104F80003B894C895D896E897F89F4018085918593
:104F90000CCF0C2D1D2D2E2D3F2D78CEF40100842D
:104FA000F185E02D2696FFAFEEAF26972080318069
:104FB0002114310409F4EEC18101D801ED90FC9077
:104FC0001197E114F10409F4DFC112968D919D91BE
:104FD0000D90BC91A02D88A799A7AAA7BBA7F70100
:104FE0002281338144815581BC01CD010E94272E4D
:104FF00087FFCEC119A308A3A8A1B9A10D90BC91A8
:10500000A02DB9A3A8A3109709F4BEC1ED91FC91FE
:10501000FFA3EEA3309781F3D8011A960D90BC91AF
:10502000A02DBDA7ACA7D80116968D919D910D908E
:10503000BC91A02D88AB99ABAAABBBABA8A1B9A181
:1050400012968D919D910D90BC91A02D8CAB9DAB36
:10505000AEABBFABA8A1B9A116968D919D910D9055
:10506000BC91A02D88AF99AFAAAFBBAF9C01AD0199
:1050700066817781808591850E94BA2D2A966CAFD2
:105080007DAF8EAF9FAF2A9728A539A54AA55BA50E
:10509000ECA5FDA562817381848195810E94BA2D62
:1050A0006CAF7DAF8EAF9FAF2CA93DA94EA95FA974
:1050B000AEA1BFA112966D917D918D919C91159796
:1050C0000E94BA2D2B013C0128A939A94AA95BA944
:1050D000ECA5FDA566817781808591850E94BA2D1A
:1050E00024966CAF7DAF8EAF9FAF24972CAD3DADB6
:1050F0004EAD5FAD2A966CAD7DAD8EAD9FAD2A975E
:105100000E948B2F6B017C0124962CAD3DAD4EADE2
:105110005FAD2497C301B2010E948B2F9B01AC01AC
:10512000C701B6010E94BA2D6AA37BA38CA39DA3DD
:1051300020E030E0A9010E94272E87FF09C08AA144
:105140009BA1ACA1BDA1B0588AA39BA3ACA3BDA356
:105150002FE632E143E85AE36AA17BA18CA19DA12D
:105160000E94272E87FD48CF28AD39AD4AAD5BADF3
:1051700068A979A98AA99BA90E94BA2D4B015C0153
:105180002CA93DA94EA95FA968A579A58AA59BA5CB
:105190000E94BA2D6B017C01A5019401C301B201EB
:1051A0000E948B2F2B013C01A70196012A966CAD22
:1051B0007DAD8EAD9FAD2A970E948B2F9B01AC01D8
:1051C000C301B2010E94BA2D2B013C0120E030E066
:1051D000A9010E94272E87FF04C077FA709477F800
:1051E0007094A50194016CAD7DAD8EAD9FAD0E9414
:1051F0008B2F4B015C01A701960124966CAD7DAD10
:105200008EAD9FAD24970E948B2F9B01AC01C501F1
:10521000B4010E94BA2D6B017C0120E030E0A901AD
:105220000E94272E87FF04C0F7FAF094F7F8F09455
:105230002AA13BA14CA15DA1C301B2010E942C2E69
:105240004B015C0120E030E0A9010E94272E87FD80
:10525000D3CE20E030E040E85FE3C501B4010E9416
:10526000862F18160CF4C8CE2AA13BA14CA15DA133
:10527000C701B6010E942C2E6B017C0120E030E0BA
:10528000A9010E94272E87FDB7CE20E030E040E83C
:105290005FE3C701B6010E94862F18160CF4ACCE4E
:1052A0008CE090E00E9498307C01009709F4A4CE35
:1052B000EEA1FFA1DC01ED93FC93A50194016CAD7F
:1052C0007DAD8EAD9FAD0E948B2F28A539A54AA537
:1052D0005BA50E94BB2DD70112966D937D938D9394
:1052E0009C931597A501940124966CAD7DAD8EAD70
:1052F0009FAD24970E948B2F28A939A94AA95BA9A1
:105300000E94BB2DF70166837783808791872CA548
:105310003DA533872287AEA1BFA11B96FC92EE92DA
:105320001A97F901F182E082D80112968D909D9032
:10533000AD90BC90159716964D905D906D907C90B9
:105340001997EC901196FC90C8010E943431A50188
:1053500094016CA97DA98EA99FA90E94272E811175
:105360000AC0A301920168AD79AD8AAD9BAD0E94E0
:10537000272E882319F08701EF28B1F62696EEAD87
:10538000FFAD269720803180F1012284338410CE36
:10539000870113CEAEA5BFA512960D90BC91A02D8E
:1053A000BFA7AEA7C9CB60ED77E080E090E00E9498
:1053B00064070E948F0D0E944C0C89E197E00E94C7
:1053C000DB0F62E577E082EA99E00E94FF0FE0914F
:1053D0000E0BF0910F0B408951896289738982EA23
:1053E00099E00E94D40F60E677E082EA99E00E949B
:1053F000FF0FE0910C0BF0910D0B408951896289F0
:10540000738982EA99E00E94D40F6DE677E082EA20
:1054100099E00E94FF0FE0910A0BF0910B0B60895D
:105420007189828993890E94EC0F6AE777E082EAAA
:1054300099E00E94FF0FE091080BF091090B408961
:1054400051896289738982EA99E00E94D40F6AE8DF
:1054500077E082EA99E00E94FF0FE091060BF0915D
:10546000070B60897189828993890E94EC0F66E934
:1054700077E082EA99E00E94FF0FE091040BF0913F
:10548000050B408951896289738982EA99E00E94FB
:10549000D40F63EA77E082EA99E00E94FF0FE0917F
:1054A000020BF091030B60897189828993890E94B4
:1054B000EC0F6CEA77E082EA99E00E94FF0FE0913E
:1054C000000BF091010B408951896289738982EA4E
:1054D00099E00E94D40F69EC77E082EA99E00E949B
:1054E000FF0FE091FE0AF091FF0A4089518962891D
:1054F000738982EA99E00E94D40F69ED77E082EA2D
:1055000099E00E94FF0FE091FC0AF091FD0A60898A
:105510007189828993890E94EC0FE091100BF091C0
:10552000110B0280F381E02D309709F4CBC1A081EB
:10553000B1818D919C911197019799F71896ED91F2
:10554000FC910190F081E02D18AA19AA1AAA1BAAB1
:105550001CAA1DAA1EAA1FAA309709F430C10285F1
:1055600013850115110509F42AC1C280D380E48096
:10557000F580D80112968D909D90AD90BC901597B6
:10558000B681B8A327812AA320843184A501940180
:10559000C701B6010E94272E882309F404C1D8014F
:1055A0001696BC91BEA7F801F781FEA3D801189604
:1055B000BC91B8A7F801F185FCA720E030E0A90173
:1055C00068A17AA1C1010E94272E882359F020E00A
:1055D00030E0A9016EA57EA188A59CA50E94272E7A
:1055E00081115CC020E030E0A90168A17AA1C1016D
:1055F0000E94862F18160CF044C028A128AF3AA1AB
:105600003CAF21962FAE219725963FAE2597A70157
:105610009601C501B4010E94BA2D2B013C0128ADB1
:105620003CAD21964FAD219725965FAD25970E9401
:105630008B2F20E030E040E05FE30E948B2F4B0196
:105640005C012EA53EA148A55CA568A17AA1C10177
:105650000E94272E20E030E040EC5FE387FD04C08D
:1056600020E030E040E450E4C301B2010E942C2E5F
:105670009B01AC01C701B6010E94BB2D6B017C01EF
:105680004EC08EA588AF9EA19CAFA8A52196AFAFB6
:105690002197BCA52596BFAF2597B9CF20E030E074
:1056A000A90168A17AA1C1010E94862F18160CF0E9
:1056B0007EC020E030E0A9016EA57EA188A59CA552
:1056C0000E94862F18160CF072C02EA53EA148A588
:1056D0005CA568A17AA1C1010E94272EA7019601AD
:1056E00081113DC0C501B4010E94BA2D4B015C017E
:1056F00020E030E040E05FE30E948B2F9B01AC0193
:10570000C701B6010E94BB2D6B017C0128A13AA103
:10571000A101C501B4010E948B2F4B015C01A701BF
:105720009601B401C5010E948B2F9B01AC016CA9AD
:105730007DA98EA99FA90E94BB2D6CAB7DAB8EABC2
:105740009FAB9401A50168A979A98AA99BA90E9488
:10575000BB2D68AB79AB8AAB9BABF801FDCEC50125
:10576000B4010E94BA2D2B013C012EA53EA148A5F3
:105770005CA568A17AA1C1010E94BB2D20E030E0A8
:1057800040E05FE30E948B2FA30192010E948B2FC8
:105790004B015C0120E030E040E05FE3C301B20177
:1057A0000E948B2F65CF88A09AA05101B8CFC12C41
:1057B000D12C7601812C912CA12CB12CB0CF20E0E2
:1057C00030E0A90168A979A98AA99BA90E94272E7E
:1057D000882309F477C028A939A94AA95BA96CA92B
:1057E0007DA98EA99FA90E942C2E6B017C0189E7BF
:1057F00092E00E94DB0F82EE97E00E94DB0F69E0EF
:1058000078E082EA99E00E94FF0F20E030E040E873
:105810005FE3C701B6010E94272E811157C089E1BD
:1058200098E00E94DB0F60E089E00E94590560E08B
:1058300088E00E94590561E08FE00E94590564E606
:1058400070E080E090E00E94640760E08FE00E94DA
:10585000590581E090E0909339098093380989E7F0
:1058600092E00E94DB0F89E792E00E94DB0F89E75C
:1058700092E00E94DB0F89E792E00E94DB0F8091AB
:10588000440990914509A0914609B09147090196B4
:10589000A11DB11D8093440990934509A093460929
:1058A000B093470964E670E080E090E00E946407EE
:1058B00068EB7BE080E090E00E9464070E94950422
:1058C0000C948A1CC12CD12C760191CF20E030E0C1
:1058D00040E050E4C701B6010E94272E811131C07B
:1058E0008EE198E00E94DB0F61E089E00E9459059B
:1058F00061E088E00E94590561E08FE00E9459054F
:1059000064E670E080E090E00E94640760E08FE071
:105910000E94590564E670E080E090E00E94640710
:1059200061E08FE00E94590564E670E080E090E05D
:105930000E94640760E08FE00E94590582E090E0D9
:105940008ACF20E030E0A901C701B6010E94272ECE
:10595000811185CF86E298E00E94DB0F80CF81E93C
:1059600098E00C94AD1C8F929F92AF92BF92CF9211
:10597000DF92EF92FF92CF93DF93EC016881798100
:105980008A819B81611571058105910521F464E28D
:1059900079ED8BE597E02DE133EF41E050E00E9497
:1059A000572D49015A019B01AC01A7EAB1E40E94BD
:1059B000762D6B017C01ACEEB4EFA50194010E9441
:1059C000842DC60ED71EE81EF91EF7FE06C081E024
:1059D000C81AD108E10880E8F80AC882D982EA82A8
:1059E000FB82C701B6019F77DF91CF91FF90EF90C7
:1059F000DF90CF90BF90AF909F908F9008958F923F
:105A00009F92AF92BF92CF92DF92EF92FF926091FE
:105A10001302709114028091150290911602611583
:105A200071058105910521F464E279ED8BE597E03C
:105A30002DE133EF41E050E00E94572D49015A011A
:105A40009B01AC01A7EAB1E40E94762D6B017C01B9
:105A5000ACEEB4EFA50194010E94842DC60ED71EB2
:105A6000E81EF91EF7FE06C081E0C81AD108E10859
:105A700080E8F80AC0921302D0921402E092150254
:105A8000F0921602C701B6019F77FF90EF90DF906A
:105A9000CF90BF90AF909F908F9008956093130226
:105AA0007093140280931502909316020895052EA8
:105AB00097FB1EF400940E946E2D57FD07D00E94A4
:105AC000892D07FC03D04EF40C946E2D5095409513
:105AD000309521953F4F4F4F5F4F0895909580959A
