:020000040000FA
:100000000C944D010C947E010C947E010C947E01A5
:100010000C947E010C947E010C947E010C947E0164
:100020000C947E010C947E010C947E010C947E0154
:100030000C947E010C947E010C947E010C947E0144
:100040000C947E010C947E010C947E010C947E0134
:100050000C947E010C947E010C947E010C94ED0DA9
:100060000C947E010C94B70D0C948D0D0C947E01B4
:100070000C947E010C947E010C947E010C947E0104
:100080000C947E010C947E010C947E010C947E01F4
:100090000C947E010C947E010C947E010C94370E1E
:1000A0000C947E010C947E010C947E010C947E01D4
:1000B0000C947E010C947E010C947E010C947E01C4
:1000C0000C947E010C947E010C947E010C947E01B4
:1000D0000C947E010C947E010C947E010C947E01A4
:1000E0000C947E010C945B0F0C94D5030C94730854
:1000F0000C940F050C941C050C94BF050C94170868
:100100000C9417050C94E3030C9444080C941D05FF
:100110000C94E6040C946D040C9404080C94F407FD
:100120000C94F7040C947E030C94F5070C94B20322
:100130000C94FB040C9413050C944E050C94800154
:100140000C9409050C94C1030C94EA040C947F05EB
:100150000C94EE040C94DC040C94E2040C9405055D
:100160000C9401050C9485030C9481010C941B04E0
:100170000C9421050C94F1040000210024002700B8
:100180002A002D00300033000101000004010701A6
:100190000A0100002200250028002B002E0031005B
:1001A000340002010000050108010B0100002000DD
:1001B0002300260029002C002F003200000100003F
:1001C00003010601090105050505070508080808DA
:1001D000020202020A0A08080404040401010101DF
:1001E00001010101030303030303030304070707DA
:1001F0000C0C0C0C0C0C0C0C02020202060606067F
:10020000060606060B0B0B0B0B0B0B0B010210204B
:10021000200808102040102040800201020108043C
:1002200002010102040810204080804020100804D0
:100230000201800402018040201008040201080429
:10024000020101020408102040800102040810206D
:10025000408000000A0B02090C0D0E080703040180
:10026000000000000000000000000000000000008E
:10027000000000000000000000000000000012115B
:10028000100000000000000000000000000000005E
:1002900000000000000000005B0F11241FBECFEF24
:1002A000D1E2DEBFCDBF00E00CBF18E0A0E0B2E0BD
:1002B000E0E1FAE500E00BBF02C007900D92AE3717
:1002C000B107D9F72AE0AEE7B8E001C01D92AC3A19
:1002D000B207E1F711E0CDE4D1E000E006C02197DC
:1002E0000109802FFE010E94C52BCC34D10780E08C
:1002F0000807A9F70E9421120C94062D0C94000007
:100300000895089596E0899FD0011124A15EB54F0C
:1003100090967C936E935F9791E091969C939197C2
:10032000E0918C0AF0918D0A90918B0A992339F013
:10033000309751F0811108C080913B0A1994309791
:1003400019F05C968C91FACF0895CF92DF92EF92DC
:10035000FF920F931F9396E0899FF0011124E15EB5
:10036000F54F11A2278D30A12130310551F178F0E0
:100370002230310509F451C02330310509F452C04F
:100380001F910F91FF90EF90DF90CF90089566231B
:10039000B9F361E070E00E9482012FB7F894809178
:1003A000580990915909A0915A09B0915B092FBF42
:1003B0008093770A9093780AA093790AB0937A0A87
:1003C000DFCF9FB7F894C0905809D0905909E090BA
:1003D0005A09F0905B099FBF0091770A1091780A43
:1003E0002091790A30917A0AC01AD10AE20AF30AF6
:1003F0000091890A10918A0A30E020E00C151D0551
:100400002E053F0550F462E070E01F910F91FF90C0
:10041000EF90DF90CF900C9482016111B1CF63E037
:1004200070E0F3CF70E060E0F0CF4F925F926F9298
:100430007F928F929F92AF92BF92CF92DF92EF9274
:10044000FF920F931F93CF93DF93CDB7DEB76C97D7
:100450000FB6F894DEBF0FBECDBF6D877E878F8746
:10046000988B298B3A8B4B8B5C8B2CA93DA94EA981
:100470005FA96CAD7DAD8EAD9FAD0E9403296D8BE4
:100480007E8B8F8B988F2D853E854F855889C8012F
:10049000B7010E9403296D837E838F83988728A9E3
:1004A00039A94AA95BA968AD79AD8AAD9BAD0E9417
:1004B0000329698F7A8F8B8F9C8F29893A894B8981
:1004C0005C89C601B5010E94032969877A878B87F9
:1004D0009C872D813E814F8158856D897E898F89CA
:1004E000988D0E94D42A4B015C0129853A854B8561
:1004F0005C85698D7A8D8B8D9C8D0E94D42A9B01A1
:10050000AC01C501B4010E9403292B013C0120E08C
:1005100030E0A9010E94702987FF04C077FA709427
:1005200077F870942FE632E143E85AE3C301B20151
:100530000E94702987FDE0C02CA93DA94EA95FA9A2
:1005400069897A898B899C890E9403294B015C0106
:1005500028A939A94AA95BA96D857E858F859889C7
:100560000E94032969837A838B839C83A50194016C
:10057000698D7A8D8B8D9C8D0E94D42A6B017C01B4
:1005800029813A814B815C816D897E898F89988D23
:100590000E94D42A9B01AC01C701B6010E94032925
:1005A0006B017C0120E030E0A9010E94702987FFE7
:1005B00004C0F7FAF094F7F8F094A50194016D8166
:1005C0007E818F8198850E94D42A4B015C0129810C
:1005D0003A814B815C8169857A858B859C850E94F7
:1005E000D42A9B01AC01C501B4010E9403294B012F
:1005F0005C0120E030E0A9010E94702987FF04C05F
:10060000B7FAB094B7F8B094A3019201C701B6014C
:100610000E9475296B017C0120E030E0A9010E9455
:10062000702987FD69C020E030E040E85FE3C70142
:10063000B6010E94CF2A18160CF45EC0A3019201E5
:10064000C501B4010E9475294B015C0120E030E036
:10065000A9010E94702987FD4FC020E030E040E8EA
:100660005FE3C501B4010E94CF2A18160CF444C000
:10067000A70196016D817E818F8198850E94D42A81
:100680002D853E854F8558890E9404292296EEAD1E
:10069000FFAD22976083718382839383A7019601C4
:1006A00069857A858B859C850E94D42A29893A8917
:1006B0004B895C890E9404292496EEADFFAD2497F6
:1006C000608371838283938381E06C960FB6F89484
:1006D000DEBF0FBECDBFDF91CF911F910F91FF9075
:1006E000EF90DF90CF90BF90AF909F908F907F90D2
:1006F0006F905F904F90089580E0E7CF8091FF0961
:100700009091000A891B990B0895AF92BF92CF92E6
:10071000DF92EF92FF920F931F93CF93DF936C01C1
:100720007B018B01040F151FEB015E01AE18BF08A2
:10073000C017D10759F06991D601ED91FC91019054
:10074000F081E02DC6011995892B79F7C501DF915C
:10075000CF911F910F91FF90EF90DF90CF90BF90BE
:10076000AF900895FC01538D448D252F30E0842FE8
:1007700090E0821B930B541710F0CF9608950197C9
:100780000895FC01918D828D981761F0A28DAE0FB6
:10079000BF2FB11D5D968C91928D9F5F9F73928F3D
:1007A00090E008958FEF9FEF0895FC01918D828D69
:1007B000981731F0828DE80FF11D858D90E0089536
:1007C0008FEF9FEF0895FC01918D228D892F90E08E
:1007D000805C9F4F821B91098F73992708958CE548
:1007E00099E00E94E30321E0892B09F420E0822FA5
:1007F0000895FC01A48DA80FB92FB11DA35ABF4FB6
:100800002C91848D90E001968F739927848FA6890F
:10081000B7892C93A089B1898C91837080648C9363
:10082000938D848D981306C00288F389E02D808112
:100830008F7D80830895EF92FF920F931F93CF9344
:10084000DF93EC0181E0888F9B8D8C8D98131AC00B
:10085000E889F989808185FF15C09FB7F894EE89F2
:10086000FF896083E889F98980818370806480834F
:100870009FBF81E090E0DF91CF911F910F91FF909A
:10088000EF900895F62E0B8D10E00F5F1F4F0F7342
:100890001127E02E8C8D8E110CC00FB607FCFACFFD
:1008A000E889F989808185FFF5CFCE010E94F9039F
:1008B000F1CFEB8DEC0FFD2FF11DE35AFF4FF082CE
:1008C0009FB7F8940B8FEA89FB8980818062CFCF34
:1008D000682F8CE599E00C941B04CF93DF93EC0117
:1008E000888D8823B9F0AA89BB89E889F9898C9118
:1008F00085FD03C0808186FD0DC00FB607FCF7CFD4
:100900008C9185FFF2CF808185FFEDCFCE010E94D3
:10091000F903E9CFDF91CF91089580E090E0892B32
:1009200029F00E94EF0381110E94000080E090E016
:10093000892B49F080E090E0892B29F00E9400008B
:1009400081110E94000080E090E0892B49F080E056
:1009500090E0892B29F00E94000081110E94000084
:1009600080E090E0892B49F080E090E0892B29F02D
:100970000E94000081110C94000008958150823182
:1009800008F05AC0E82FF0E08827E653FB4F8F4F5E
:100990000C94C52BEA04EE04DC04E204E6041C0516
:1009A000F104F704FB040105050509050F0513050E
:1009B0001C0517051D052105809180008F77809308
:1009C00080000895809180008F7DF9CF8091800014
:1009D000877FF5CF84B58F7784BD089584B58F7DEB
:1009E000FBCF8091B0008F778093B0000895809105
:1009F000B0008F7DF9CF809190008F778093900029
:100A00000895809190008F7DF9CF80919000877F2D
:100A1000F5CF8091A0008F778093A00008958091FA
:100A2000A0008F7DF9CF8091A000877FF5CF8091C6
:100A300020018F77809320010895809120018F7D80
:100A4000F9CF80912001877FF5CFCF93DF93282FB7
:100A500030E0F901EE5AFD4F8491F901E45FFD4F5A
:100A6000D491F901EA53FE4FC491CC23A1F0811136
:100A70000E94BE04EC2FF0E0EE0FFF1FE455FE4F86
:100A8000A591B491EC91ED2381E090E009F480E030
:100A9000DF91CF91089580E090E0FACF862F0C94FB
:100AA00025051F93CF93DF93282F30E0F901EE5AED
:100AB000FD4F8491F901E45FFD4FD491F901EA53B0
:100AC000FE4FC491CC23A9F0162F81110E94BE04C1
:100AD000EC2FF0E0EE0FFF1FEE56FE4FA591B49104
:100AE0008FB7F894EC91111108C0D095DE23DC93F8
:100AF0008FBFDF91CF911F910895DE2BF8CF862F06
:100B0000642F0C945105CF93DF9390E0FC01E45FD8
:100B1000FD4F24918A539E4FFC0184918823C9F094
:100B200090E0880F991FFC01E858FE4FA591B49101
:100B3000FC01EE56FE4FC591D49161110DC09FB7D7
:100B4000F8948C91209582238C9388812823288384
:100B50009FBFDF91CF910895623051F49FB7F89411
:100B60003C91822F809583238C93E8812E2BEFCFAD
:100B70008FB7F894EC912E2B2C938FBFEACF862F52
:100B8000642F0C9483056F927F928F929F92AF9205
:100B9000BF92CF92DF92EF92FF920F931F93CF936A
:100BA000DF9381E080938B0A8FB7F89440915809C6
:100BB0005091590960915A0970915B098FBF8091DA
:100BC0007B0A90917C0AA0917D0AB0917E0A481B15
:100BD000590B6A0B7B0B8091870A9091880AB0E0D1
:100BE000A0E084179507A607B70708F01DC1C0E06D
:100BF0008091850AC81760F4E091810AF091820A19
:100C0000EC0FF11D62E080810E948305CF5FF0CF81
:100C1000712C812C912C540183948091860A781632
:100C200008F05FC0072D10E0E091830AF091840A7C
:100C3000E00FF11F61E080810E948305E091830A4B
:100C4000F091840AE00FF11F60E080810E9451055D
:100C5000D501C401072C04C0880F991FAA1FBB1F10
:100C60000A94D2F76C017C01E094F094612C80919D
:100C7000850A6816F8F4C62DD0E0E091810AF0915B
:100C8000820AEC0FFD1F80810E9425052496CC0F5F
:100C9000DD1FC15ED54F892B41F4888199818C2954
:100CA0009D29998388836394E2CF888199818E21DD
:100CB0009F21F7CFE091830AF091840AE00FF11FA2
:100CC00061E080810E9451058091830A9091840A9D
:100CD000080F191F60E0F80180810E94830573945A
:100CE0009CCFCFE1DAE0FE018FEF9FEF278D30A19F
:100CF000232B21F4148E968F858F11A236962AE02D
:100D0000EB35F20799F7F12C96E0D92E8091850A00
:100D1000F81608F050C0E12C0F2D10E0000F111F45
:100D2000095D154F2091860AE21608F042C0F801CD
:100D3000608171810E2C02C0769567950A94E2F766
:100D4000F29E900111242E0D311DEFE1FAE080E0BA
:100D5000458D568D2417350709F46AC08F5F369686
:100D60008A30B1F760FF23C0EFE1FAE090E080E065
:100D7000448D411117C0E0917F0AF091800AE20F83
:100D8000F31F4081D89EF001D99EF00D1124E15E41
:100D9000F54F448F368F258F10A2178E61E00E9489
:100DA000A50105C0019636968A30910509F7E394AE
:100DB000B9CFF394ABCF80E099A19111892F2696FA
:100DC000FAE0CB35DF07C1F79FB7F8944091580997
:100DD0005091590960915A0970915B099FBF4093E6
:100DE0007B0A50937C0A60937D0A70937E0A882365
:100DF000D9F08091400A8823B9F080913E0A909101
:100E00003F0A019789F480913B0ADF91CF911F91AE
:100E10000F91FF90EF90DF90CF90BF90AF909F9099
:100E20008F907F906F90089510928B0A80E0EDCFA5
:100E30006170B5CF863308F0865320917B00982FE0
:100E40009870277F922B90937B00877080648093AB
:100E50007C0080917A00806480937A0080917A008F
:100E600086FDFCCF809178009091790008953FB77E
:100E7000F8948091C3089091C408A091C508B091DE
:100E8000C60826B5A89B05C02F3F19F00196A11DE5
:100E9000B11D3FBFBA2FA92F982F8827BC01CD01C4
:100EA000620F711D811D911D42E0660F771F881F23
:100EB000991F4A95D1F708958F929F92AF92BF9252
:100EC000CF92DF92EF92FF924B015C010E943707B5
:100ED0006B017C010E9437076C197D098E099F09FF
:100EE000683E734081059105A8F321E0821A9108BC
:100EF000A108B10888EEC80E83E0D81EE11CF11CE1
:100F000081149104A104B10429F7FF90EF90DF90C0
:100F1000CF90BF90AF909F908F90089520919F08A1
:100F2000260F3327331F21323105ECF420910F09AE
:100F3000FC0190E080E0243069F082E00895A09107
:100F40009F082191AC014158574FA40FB52FB11DF7
:100F50002C930196861798F380919F08680F6093F1
:100F60009F0880E0089581E0089510920F0981E0C4
:100F700080930E091092090961E084E10E945105F5
:100F800061E085E10E945105E9EBF0E080818E7F10
:100F9000808380818D7F808388E48093B80085E49E
:100FA0008093BC000895CF93DF9391E090937E08E7
:100FB0008823B9F0C091B800D091BA008091BC00EC
:100FC0008A7B8093BC0060E084E10E94510560E070
:100FD00085E10E9451050E94B507D093BA00C093E5
:100FE000B800DF91CF9108950895E091000A8091B3
:100FF000FF09E81730F4F0E0EB5EF64F808190E0F7
:1010000008958FEF9FEF08959091000A8091FF0956
:101010002FEF3FEF981748F4E92FF0E0EB5EF64F23
:10102000208130E09F5F9093000AC9010895CF921C
:10103000DF92EF92FF920F931F93CF93DF937C0188
:10104000CB018A012091C708222389F0EB016B01B3
:10105000C40ED51ECC15DD0569F06991D701ED915F
:10106000FC910190F081E02DC7011995F3CF642F19
:101070000E948E07C801DF91CF911F910F91FF90C1
:10108000EF90DF90CF900895CF93DF931F92CDB76D
:10109000DEB769832091C7082223F9F02091FD096A
:1010A000203258F021E030E0FC013383228390E0CD
:1010B00080E00F90DF91CF9108958091FE09E82F95
:1010C000F0E0E853F74F998190838F5F8093FE099A
:1010D0008093FD0981E090E0ECCF61E0CE010196C4
:1010E0000E948E07F7CF90E080E008958F929F9244
:1010F000AF92BF92CF92DF92EF92FF920F931F9326
:10110000CF93DF93EC018A819B818230910509F4B2
:1011100053C03CF40197D9F1E12CF12C00E010E030
:101120003CC08330910509F49EC00497A9F78881DB
:1011300099818130910509F4EFC0029769F708851C
:101140001985C8010E9476086B017C010A84DB8541
:10115000C02D20E030E0A9010E94CF2A181654F0DB
:10116000CE010E94760820E030E0A9010E94CF2A3B
:10117000181694F6CE010E9476089B01AC01C701B7
:10118000B6010E94CF2A18160CF0BDCFECC0EC813E
:10119000FD81E088F18802891389B701C801DF91D8
:1011A000CF911F910F91FF90EF90DF90CF90BF9064
:1011B000AF909F908F90089588819981813091059B
:1011C00039F1029709F0A8CFEC81FD81A088B188A0
:1011D000C288D388EE81FF81E088F1880289138973
:1011E00020E030E0A901B501C6010E94CF2A1816FF
:1011F00054F020E030E0A901B701C8010E94CF2AD5
:1012000018160CF089CF9501A601B701C80124C0BA
:10121000EC81FD81A088B188C288D38820E030E0CD
:10122000A901B501C6010E94CF2A18160CF074CF8F
:10123000EE81FF81E088F1880289138920E030E0A7
:10124000A901B701C8010E94CF2A18160CF064CF7B
:101250009701A801B501C6010E94702987FF9DCFA3
:10126000750186019ACF888199818130910551F16C
:10127000029709F051CFEC81FD81E088F188028965
:1012800013890884D985C02D20E030E0A901B70179
:10129000C8010E94CF2A18165CF0CE010E94760881
:1012A00020E030E0A9010E94CF2A18160CF034CFBC
:1012B000CE010E9476089701A8010E94702987FF3D
:1012C00022CF6BCFEC81FD81E088F1880289138900
:1012D00020E030E0A901B701C8010E94CF2A18160A
:1012E0000CF01ACF0884D985C02DCE010E94760853
:1012F0004B015C0120E030E0A9010E94CF2A1816C2
:101300000CF00ACF9701A801C501B4010E94CF2AB1
:1013100018160CF0F8CE41CF08851985C8010E9437
:1013200076086B017C0120E030E0A9010E94CF2A01
:1013300018160CF0F1CE0A84DB85C02DCE010E9478
:1013400076084B015C0120E030E0A9010E94CF2A21
:1013500018160CF0E1CEA5019401C701B6010E9458
:10136000702987FFD0CEE801CECEFC014115510592
:1013700089F06115710571F081E090E091838083BF
:1013800083E090E0938382835583448371876087F1
:1013900081E0089580E00895FC011182108213829B
:1013A0001282158214821782168211861086138685
:1013B00012860895DC01ED91FC913097A1F0A08197
:1013C000B1818D919C9111976817790741F412961C
:1013D0002D933D934D935C93159781E00895028082
:1013E000F381E02DEACF80E00895EF92FF920F9312
:1013F0001F93CF93DF937C010AE010E0D0E0C0E0C0
:10140000F70180850E941A07C80FD91F6AE070E0B3
:1014100080E090E00E945C070150110989F7CE013D
:101420006AE070E00E94B12BEB01072E000C880BE4
:10143000990B0E941F2AF701608371838283938333
:10144000CE01DF91CF911F910F91FF90EF90089502
:101450000F931F93CF93DF930E94C305C82F10E013
:1014600000E0DAE0C332F1F0CA3249F024F080ED56
:101470008C0F8A3038F00E94C305C82FF3CF10E0DC
:1014800000E0F9CF8C2F0E946804D09F9001D19F7B
:10149000300D11248C2FCC0F990BC0978C01020FAB
:1014A000131FE9CFC801DF91CF911F910F910895CC
:1014B0000F931F93CF93DF93EC018B0184E090E0B7
:1014C0000E94E12B0097D1F0FC011183008313826D
:1014D0001282E881F981309749F49983888381E009
:1014E000DF91CF911F910F910895F90122813381EE
:1014F00021153105D1F793838283F1CF80E0F0CFBE
:101500000F931F93CF93DF93EC018B0184E090E066
:101510000E94E12B0097D1F0FC011183008313821C
:101520001282EE81FF81309749F49F838E8381E0A0
:10153000DF91CF911F910F910895F901228133819D
:1015400021153105D1F793838283F1CF80E0F0CF6D
:101550008F929F92AF92BF92CF92DF92EF92FF92C3
:101560000F931F93CF93DF93EC014A015B01680156
:1015700079018CE090E00E94E12BFC0180E0309743
:1015800099F01182108282829382A482B582C682EF
:10159000D782E086F18613861286A881B9811097DA
:1015A00089F4F983E88381E0DF91CF911F910F9156
:1015B000FF90EF90DF90CF90BF90AF909F908F9073
:1015C0000895DC011A968D919C911B970097C9F79D
:1015D000B183A0831B96FC93EE931A97E4CF0F93ED
:1015E0001F93CF93DF93EC018B0184E090E00E9486
:1015F000E12B0097D1F0FC0111830083138212824A
:10160000EC81FD81309749F49D838C8381E0DF91EB
:10161000CF911F910F910895F901228133812115F6
:101620003105D1F793838283F1CF80E0F0CF0F9320
:101630001F93CF93DF93EC018B0184E090E00E9435
:10164000E12B0097D1F0FC011183008313821282F9
:10165000E881F981309749F49983888381E0DF91AB
:10166000CF911F910F910895F901228133812115A6
:101670003105D1F793838283F1CF80E0F0CFFC0175
:1016800001900020E9F73197AF01481B590BBC01CD
:101690008CE599E00C9485038BE492E00C943F0B6D
:1016A0008F929F92AF92BF920F931F93CF93DF932E
:1016B000CDB7DEB7A1970FB6F894DEBF0FBECDBF92
:1016C00019A2423008F44AE08E010F5D1F4F842EAC
:1016D000912CB12CA12CA50194010E94D228E62FB7
:1016E000B901CA01EA30F4F4E05DD801EE938D014E
:1016F000232B242B252B79F790E080E0109719F00D
:10170000CD010E943F0BA1960FB6F894DEBF0FBE2D
:10171000CDBFDF91CF911F910F91BF90AF909F9060
:101720008F900895E95CE1CFCF93DF930E943F0B48
:10173000EC010E944C0B8C0F9D1FDF91CF910895FF
:101740000C943F0B4F925F926F927F928F929F9279
:10175000AF92BF92CF92DF92EF92FF920F931F93BF
:10176000CF936B017C01742EAC019B010E94872BEF
:10177000882399F08EE492E0CF911F910F91FF9012
:10178000EF90DF90CF90BF90AF909F908F907F9021
:101790006F905F904F900C943F0B46015701E89477
:1017A000B7F82FEF3FEF4FE75FE7C501B4010E94A5
:1017B000872B81110DC02FEF3FEF4FE75FE7C5018A
:1017C000B4010E94702918161CF482E592E0D4CF6F
:1017D0002FEF3FEF4FE75FE4C701B6010E94CF2A2A
:1017E00018161CF486E592E0C7CF2FEF3FEF4FE7C6
:1017F0005FECC701B6010E94702987FDF3CF20E09E
:1018000030E0A901C701B6010E94702910E000E094
:1018100087FF08C08DE20E9468048C01F7FAF094FB
:10182000F7F8F094C0E060E070E080E09FE37C16A1
:1018300041F020E030E040E251E40E947529CF5FA2
:10184000F6CFA70196010E9404292B013C010E94BA
:10185000EE294B015C014AE00E94500B7C01E00E36
:10186000F11ECC23B1F1C501B4010E941D2A9B01D8
:10187000AC01C301B2010E9403294B015C018EE25D
:101880000E946804E80EF91EC15018F120E030E013
:1018900040E251E4C501B4010E94D42A2B013C016D
:1018A0000E94EE294B01B12CA12C4AE0C501B401E4
:1018B0000E94500BE80EF91EC501B4010E941D2ABA
:1018C0009B01AC01C301B2010E9403294B015C01E1
:1018D000DBCFC701CF911F910F91FF90EF90DF9069
:1018E000CF90BF90AF909F908F907F906F905F90C0
:1018F0004F900895CF93DF9342E00E94A20BEC013A
:101900000E944C0B8C0F9D1FDF91CF91089542E0F8
:101910000C94A20BCF92DF92EF92FF92CF93DF93C2
:101920006C01990FEE08FF08F7FE17C08DE20E94C8
:101930006804EC0166277727CB016C197D098E09B5
:101940009F094AE00E94500B8C0F9D1FDF91CF91A1
:10195000FF90EF90DF90CF9008954AE0C701B60165
:10196000DF91CF91FF90EF90DF90CF900C94500BD0
:10197000CF93DF93EB016A857B856115710511F0CB
:101980000E94B80CCE01DF91CF910C947D2C85ED97
:101990008093BC008091110990911209A0911309C4
:1019A000B09114090796A11DB11D23E0B695A79526
:1019B000979587952A95D1F72091BC0024FD03C007
:1019C00010920F09089540911109509112096091E8
:1019D000130970911409452B462B472B69F3009787
:1019E000A105B10541F025E32A95F1F70000019723
:1019F000A109B109E1CF809110090C94D3074F924E
:101A00005F926F927F928F929F92AF92BF92CF928E
:101A1000DF92EF92FF92CF93DF9300D000D0CDB74B
:101A2000DEB79E838D830E9437072B013C01C12CBA
:101A3000D12C7601812C912C54010E943707641916
:101A400075098609970960327E448105910570F514
:101A5000AD81BE818D919D910D90BC91A02D89830A
:101A60009A83AB83BC83ED81FE8180850E941A0737
:101A7000BC01990F880B990B0E941F2A9B01AC0196
:101A800069817A818B819C810E9403290E94E729C8
:101A90009B01AC010E94A12B860E971EA81EB91EA9
:101AA000FFEFCF1ADF0AEF0AFF0AC7CFC501B40163
:101AB000A70196010E94D228CA01B9010E941D2ADD
:101AC0000E94472B20E030EC4FE754E40E94752938
:101AD00020E030E040EA50E40E94D42AAD81BE818B
:101AE00014962D913D914D915C9117970E94752907
:101AF00026960FB6F894DEBF0FBECDBFDF91CF9113
:101B0000FF90EF90DF90CF90BF90AF909F908F901D
:101B10007F906F905F904F9008951F920F920FB635
:101B20000F9211240BB60F922F933F934F935F9315
:101B30006F937F938F939F93AF93BF93EF93FF9395
:101B40008CE599E00E94F903FF91EF91BF91AF916D
:101B50009F918F917F916F915F914F913F912F91C5
:101B60000F900BBE0F900FBE0F901F9018951F92F5
:101B70000F920FB60F9211240BB60F922F938F93E3
:101B80009F93EF93FF93E0916C09F0916D09808131
:101B9000E0917209F091730982FD1DC090818091DE
:101BA00075098F5F8F7320917609821741F0E0915C
:101BB0007509F0E0E45AF64F958F80937509FF910F
:101BC000EF919F918F912F910F900BBE0F900FBEB1
:101BD0000F901F9018958081F2CF1F920F920FB631
:101BE0000F9211242F933F938F939F93AF93BF93A3
:101BF0008091580990915909A0915A09B0915B09B7
:101C00003091C20823E0230F2D3758F50196A11D0E
:101C1000B11D2093C2088093580990935909A0934D
:101C20005A09B0935B098091C3089091C408A091B0
:101C3000C508B091C6080196A11DB11D8093C308C7
:101C40009093C408A093C508B093C608BF91AF9104
:101C50009F918F913F912F910F900FBE0F901F90EA
:101C6000189526E8230F0296A11DB11DD2CF1F9211
:101C70000F920FB60F9211240BB60F922F933F9332
:101C80004F935F936F937F938F939F93AF93BF9384
:101C9000EF93FF938091B900887F803609F44DC09F
:101CA00008F040C0883209F4A9C028F5803109F451
:101CB0009DC0C8F4882309F4FBC0883009F496C09D
:101CC000FF91EF91BF91AF919F918F917F916F9114
:101CD0005F914F913F912F910F900BBE0F900FBED0
:101CE0000F901F901895883109F488C0803241F711
:101CF00080930D0914C0803409F49DC040F48033F2
:101D0000B9F38833E9F680930D0985ECB0C08035CE
:101D100009F485C0883509F496C0883489F60E9494
:101D2000C70CCECF883909F48CC038F5883729F034
:101D300050F4883611F0803719F683E080930F094C
:101D40001092C10857C0883809F47BC0803919F057
:101D5000803809F0B5CF8091C108803208F071C099
:101D6000E091C10881E08E0F8093C1088091BB0093
:101D7000F0E0EF55F74F80833DC0803B39F0E0F451
:101D8000803A09F479C0883A09F09ACF84E08093C8
:101D90000F091092A00810929F08E091FB09F091A2
:101DA000FC09199580919F0881110FC081E08093F3
:101DB0009F0810927F0809C0803C09F4A6CF883C98
:101DC00009F4A3CF883B09F07BCFE091A00881E024
:101DD0008E0F8093A008F0E0E158F74F8081809348
:101DE000BB009091A00880919F0829C080910A09AA
:101DF0008093BB0085EC8093BC0062CF90910C096E
:101E000080910B09981758F5E0910C0981E08E0F2D
:101E100080930C09F0E0E751F74F8081E9CFE09122
:101E20000C0981E08E0F80930C098091BB00F0E0DB
:101E3000E751F74F808390910C0980910B09981717
:101E4000C8F285E8D8CFE0910C0981E08E0F80932D
:101E50000C098091BB00F0E0E751F74F808380913F
:101E60000E0981115CCF81E08093090984EA809397
:101E7000BC0010920F0924CF85EC8093BC00109217
:101E80000F098091C108803230F4E091C108F0E080
:101E9000EF55F74F10826091C10870E0E091F909A9
:101EA000F091FA0981EA98E019951092C10808CFDB
:101EB00010920D0934CF4F925F926F927F928F9262
:101EC0009F92AF92BF92CF92DF92EF92FF921092C9
:101ED0005F0910925E0988EE93E0A0E0B0E0809385
:101EE000600990936109A0936209B093630921E2AC
:101EF00032E030935D0920935C0925EC30E03093AB
:101F000069092093680924EC30E030936B09209331
:101F10006A0920EC30E030936D0920936C0921ECC4
:101F200030E030936F0920936E0922EC30E030935B
:101F300071092093700926EC30E0309373092093E7
:101F40007209109275091092760910927709109211
:101F500078091092040A1092030A8093050A90935C
:101F6000060AA093070AB093080A83E392E09093CD
:101F7000020A8093010A1092000A1092FF0910923F
:101F8000FE091092FD090E94B50780E891E0909348
:101F9000FC098093FB0981E891E09093FA09809312
:101FA000F90986E090E00E94E12BFC011182108289
:101FB00013821282158214829093A70A8093A60A34
:101FC00084E190E00E94E12BFC01C12CD12C80EA3D
:101FD000E82E80E4F82EC082D182E282F38280E093
:101FE00090E0A0ECB0E484839583A683B783412C72
:101FF000512C98E8692E91E4792E408651866286AC
:102000007386812C912C20E9A22E21E4B22E8486A5
:102010009586A686B786108A118A128A138AF0934B
:10202000A50AE093A40A84E190E00E94E12BFC0160
:10203000408251826282738284829582A682B782B4
:1020400080E090E0A8EBB1E480879187A287B38716
:1020500080E090E0A0ECB1E484879587A687B787FD
:10206000108A118A128A138AF093A30AE093A20AB3
:1020700084E190E00E94E12BFC01812C912C30EA5C
:10208000A32E30ECB32E80829182A282B38214827E
:10209000158216821782C086D186E286F38680E09A
:1020A00090E0A0ECB0E484879587A687B787108A74
:1020B000118A128A138AF093A10AE093A00A84E19C
:1020C00090E00E94E12BFC0180829182A282B38287
:1020D0001482158216821782412C512C40EA642EFC
:1020E00041E4742E4086518662867386C12CD12CC1
:1020F00058EAE52E51E4F52EC486D586E686F786A5
:10210000108A118A128A138A90939F0A80939E0ADA
:1021100084E190E00E94E12BFC01408251826282C6
:102120007382C482D582E682F78280E090E0A0EFDD
:10213000B1E480879187A287B38784879587A68734
:10214000B787108A118A128A138AF0939D0AE09346
:102150009C0A84E190E00E94E12BFC0180E090E089
:10216000A0E2B1EC80839183A283B38384829582C1
:10217000A682B7821086118612861386C12CD12CB6
:1021800060E8E62E6FE3F62EC486D586E686F786EF
:10219000108A118A128A138AF0939B0AE0939A0A92
:1021A00084E190E00E94E12BFC01108211821282F6
:1021B0001382C482D582E682F782812C912C70E250
:1021C000A72E71E4B72E80869186A286B386848678
:1021D0009586A686B786108A118A128A138A9093EA
:1021E000990A8093980A84E190E00E94E12BFC0117
:1021F000412C512CA0E16A2EA1E47A2E408251821A
:102200006282738284829582A682B78280E090E0A7
:10221000A0E4B1E480879187A287B38784879587FC
:10222000A687B787108A118A128A138AF093970AB1
:10223000E093960A84E190E00E94E12BFC01108279
:10224000118212821382C482D582E682F78240868E
:1022500051866286738684869586A686B786108A9E
:10226000118A128A138A9093950A8093940A84E1C2
:1022700090E00E94E12BFC0180E090E0A0E8BFEB41
:1022800080839183A283B38314821582168217827E
:102290001086118612861386C486D586E686F78652
:1022A000108A118A128A138AF093930AE093920A91
:1022B00084E190E00E94E12BFC01C082D182E282A5
:1022C000F382812C912CA12CB0E4BB2E84829582C8
:1022D000A682B78280869186A286B38680E090E04F
:1022E000A0E4B0E484879587A687B787108A118A0F
:1022F000128A138AF093910AE093900A84E190E0A5
:102300000E94E12BFC011082118212821382C4828E
:10231000D582E682F782C086D186E286F3868486FD
:102320009586A686B786108A118A128A138A909398
:102330008F0A80938E0A1092210A1092250A109219
:10234000240A1092260A85E492E09093200A809352
:102350001F0AEBE3FAE0108214821382158236968C
:102360009AE0E737F907B9F783E092E09093820AA1
:102370008093810A80E092E09093840A8093830A9C
:1023800084E08093850A83E08093860A87E092E068
:102390009093800A80937F0A8AE090E09093880A65
:1023A0008093870A84EF91E090938A0A8093890A48
:1023B00010928D0A10928C0A10927B0A10927C0A5D
:1023C00010927D0A10927E0A10928B0A40E050E033
:1023D00060E074E44093160A5093170A6093180A59
:1023E0007093190A84EA90E7ADE3BEE380931A0A7A
:1023F00090931B0AA0931C0AB0931D0A26E3209316
:102400001E0A40930D0A50930E0A60930F0A7093B0
:10241000100A8093110A9093120AA093130AB093A2
:10242000140A87E38093150AFF90EF90DF90CF9016
:10243000BF90AF909F908F907F906F905F904F90E4
:102440000895CF93DF93CDB7DEB7CD54D1090FB642
:10245000F894DEBF0FBECDBF789484B5826084BD92
:1024600084B5816084BD85B5826085BD85B5816098
:1024700085BD80916E00816080936E001092810016
:1024800080918100826080938100809181008160D1
:102490008093810080918000816080938000809192
:1024A000B10084608093B1008091B000816080931E
:1024B000B0008091910082608093910080919100A2
:1024C0008160809391008091900081608093900062
:1024D0008091A10082608093A1008091A100816021
:1024E0008093A1008091A00081608093A0008091E2
:1024F000210182608093210180912101816080937C
:1025000021018091200181608093200180917A00D7
:10251000846080937A0080917A00826080937A0050
:1025200080917A00816080937A0080917A0080683F
:1025300080937A001092C10086E19AE00E94F5092A
:102540008DE09AE00E94F50960E082E40E94830534
:1025500060E083E40E94830561E089E00E948305D6
:1025600061E088E00E94830561E082E00E948305CB
:1025700061E083E00E94830561E084E00E948305BE
:10258000E0916C09F0916D0982E08083E091680927
:10259000F09169091082E0916A09F0916B098FEC62
:1025A000808310927409E0917009F091710986E0BE
:1025B0008083E0916E09F0916F0980818061808352
:1025C000E0916E09F0916F09808188608083E091CD
:1025D0006E09F0916F09808180688083E0916E09B7
:1025E000F0916F0980818F7D808360E089E00E9497
:1025F000510560E088E00E94510568EC70E080E0E1
:1026000090E00E945C0780E00E941A07BC01990FCD
:10261000880B990B611571058105910511F00E94D8
:1026200097288AE592E00E94940B80E892E00E944D
:10263000940B88E090E00E94E12B8C01EE24E3945F
:10264000F12CDC01ED92FC92FC01128213821482C7
:10265000158217821682A090A40AB090A50AB5012F
:102660000E94800A2091A20A3091A30A3DAB2CABB4
:10267000B901C8010E94800A8091A00A9091A10A24
:1026800099AF88AFBC01C8010E94800A6090A60A79
:102690007090A70AB801C3010E94170B88E090E070
:1026A0000E94E12B8C0182E090E0D8018D939C93F5
:1026B000F8011282138214821582178216822091E9
:1026C0009E0A30919F0A3DA72CA7B901C8010E941C
:1026D000800A80919C0A90919D0A99AB88ABBC01BD
:1026E000C8010E94800AB801C3010E94170B88E04C
:1026F00090E00E94E12B8C0183E090E0D8018D9363
:102700009C93F8011282138214821582178216821A
:1027100020919A0A30919B0A3BAB2AABB901C801C0
:102720000E94800A8091980A9091990A99A788A797
:10273000BC01C8010E94800AB801C3010E94170BA6
:1027400088E090E00E94E12B8C0184E090E0D801C9
:102750008D939C93F8011282138214821582178242
:1027600016822091960A3091970A39A328A3B901BD
:10277000C8010E94800A8091940A9091950A9DA3B5
:102780008CA3BC01C8010E94800A2090920A30905C
:10279000930AB101C8010E94800AB801C3010E94D6
:1027A000170B8AE090E00E94E12B8C01DC01ED9296
:1027B000FC92FC0112821382148215821782168207
:1027C00082E090E00E94E12BDC011D921C92F80156
:1027D000918780878090900A9090910AB401C801F7
:1027E0000E94800A20918E0A30918F0A3DAF2CAF53
:1027F000B901C8010E94800A84E090E00E94E12BA8
:102800002C01009709F464C0DC0111961C930E930F
:1028100013961C921E921297F801F6812996FFAF2B
:102820002997D8011796BC912B96BFAF2B97EF2E07
:10283000FB2EE114F10409F43FC029960FAD29974E
:102840002B961FAD2B970115110589F1F801C28058
:10285000D380C114D10459F12081318122963FAF38
:102860002EAF2297D6010D90BC91A02D2696BFAF1A
:10287000AEAF2697F90120813181428153816D915C
:102880007D918D919C910E94702987FF0EC02696A4
:10289000EEADFFAD2697D801ED93FC932296EEADF9
:1028A000FFAD2297D601ED93FC938601CCCFD701E3
:1028B0001296ED90FC90BDCFD3011296ED91FC9154
:1028C0001397309709F07CC413965C924E9212973E
:1028D0008CE090E00E94E12B8C010E94CC09A114B5
:1028E000B104C1F0ECA5FDA53097A1F081E090E026
:1028F000D80111969C938E9382E090E013969C935E
:102900008E9312971596BC92AE9214971796FC93DD
:10291000EE9316978CE090E00E94E12B7C010E94E0
:10292000CC0948A559A5B801C7010E94B5098CE09A
:1029300090E00E94E12B6C010E94CC0948A159A1B2
:10294000B701C6010E94B50982E090E00E94E12B28
:102950002C01FC0111821082B4010E94580A87E008
:1029600090E00E94E12BFC0121E030E031832083E4
:102970001282D482C38256824582BC01C3010E9466
:10298000EF0A8CE090E00E94E12B6C010E94CC09E0
:102990004CA15DA1B701C6010E94B50987E090E096
:1029A0000E94E12BFC0182E090E0918380831282FF
:1029B000D482C38256824582BF01C3010E94EF0ABE
:1029C0008CE090E00E94E12B6C010E94CC09A101F7
:1029D000B701C6010E94B50982E090E00E94E12B98
:1029E0004C01DC011D921C926CAD7DAD0E94580A19
:1029F00087E090E00E94E12BFC0183E090E091836E
:102A000080831282D482C38296828582BF01C301F1
:102A10000E94EF0A8CE090E00E94E12B7C010E9472
:102A2000CC094AA95BA9B801C7010E94B5098CE08D
:102A300090E00E94E12B8C010E94CC0948A159A191
:102A4000B701C8010E94B50987E090E00E94E12B20
:102A5000FC0184E090E091838083128214830383DD
:102A600056824582BF01C3010E94EF0A8CE090E0CC
:102A70000E94E12B8C010E94CC094CA15DA1B70101
:102A8000C8010E94B50987E090E00E94E12BFC019B
:102A900085E090E0918380831282148303835682C1
:102AA0004582BF01C3010E94EF0A8CE090E00E94C2
:102AB000E12B8C010E94CC09A101B701C8010E9441
:102AC000B50987E090E00E94E12BFC0186E090E0F0
:102AD0009183808312821483038396828582BF014F
:102AE000C3010E94EF0A8CE090E00E94E12B8C0170
:102AF0000E94CC09A114B104D1F0E8A9F9A9EF2BE7
:102B0000B1F0E1E0F0E0D8011196FC93EE9322E001
:102B100030E013963C932E9312971596BC92AE928A
:102B2000149788A999A917969C938E9316978CE071
:102B300090E00E94E12B7C010E94CC0948A559A598
:102B4000B801C7010E94B5098CE090E00E94E12B1A
:102B50006C010E94CC0948A159A1B701C6010E948D
:102B6000B50987E090E00E94E12BFC0187E090E04E
:102B7000918380831282D482C38256824582BF01B0
:102B8000C3010E94EF0A8CE090E00E94E12B6C01EF
:102B90000E94CC094CA15DA1B701C6010E94B509F4
:102BA00087E090E00E94E12BFC0188E090E09183B7
:102BB00080831282D482C38256824582BF01C301C0
:102BC0000E94EF0A8CE090E00E94E12B6C010E94D1
:102BD000CC09A101B701C6010E94B50987E090E0C8
:102BE0000E94E12BFC0189E090E0918380831282B6
:102BF000D482C38296828582BF01C3010E94EF0AFC
:102C00008CE090E00E94E12B7C010E94CC094AA953
:102C10005BA9B801C7010E94B5098CE090E00E9451
:102C2000E12B8C010E94CC0948A159A1B701C80130
:102C30000E94B50987E090E00E94E12BFC018AE048
:102C400090E09183808312821483038356824582AD
:102C5000BF01C3010E94EF0A8CE090E00E94E12BCB
:102C60008C010E94CC094CA15DA1B701C8010E9452
:102C7000B50987E090E00E94E12BFC018BE090E039
:102C80009183808312821483038396828582BF019D
:102C9000C3010E94EF0A8CE090E00E94E12B8C01BE
:102CA0000E94CC09A101B701C8010E94B50987E0C3
:102CB00090E00E94E12BFC018CE090E09183808306
:102CC00012821483038396828582BF01C3010E940E
:102CD000EF0A8CE090E00E94E12B8C010E94CC096D
:102CE000ACA9BDA9AB2BD1F0E8ADF9ADEF2BB1F09C
:102CF00082E090E0D80111969C938E9313969C935A
:102D00008E931297ECA9FDA91596FC93EE93149758
:102D100028AD39AD17963C932E9316978CE090E032
:102D20000E94E12B6C010E94CC094CA55DA5B80165
:102D3000C6010E94B5098CE090E00E94E12B7C0165
:102D40000E94CC0948A559A5B601C7010E94B50942
:102D50008CE090E00E94E12B5C010E94CC0948A12C
:102D600059A1B701C5010E94B50987E090E00E9412
:102D7000E12BFC018DE090E0918380831282B4828C
:102D8000A38256824582BF01C3010E94EF0A8CE0F4
:102D900090E00E94E12B5C010E94CC094CA15DA156
:102DA000B701C5010E94B50987E090E00E94E12BC0
:102DB000FC018EE090E0918380831282B482A38232
:102DC00096828582BF01C3010E94EF0A8CE090E0E9
:102DD0000E94E12B5C010E94CC09A101B701C50151
:102DE0000E94B50987E090E00E94E12BFC018FE092
:102DF00090E0918380831282B482A382968285823E
:102E0000BF01C3010E94EF0A8CE090E00E94E12B19
:102E10007C010E94CC094AA95BA9B601C7010E94A6
:102E2000B5098CE090E00E94E12B6C010E94CC0976
:102E300048A159A1B701C6010E94B50987E090E0F9
:102E40000E94E12BFC0180E190E09183808312825B
:102E5000D482C38256824582BF01C3010E94EF0A19
:102E60008CE090E00E94E12B6C010E94CC094CA107
:102E70005DA1B701C6010E94B50987E090E00E94FC
:102E8000E12BFC0181E190E0918380831282D48266
:102E9000C38256824582BF01C3010E94EF0A8CE0C3
:102EA00090E00E94E12B6C010E94CC09A101B701C6
:102EB000C6010E94B50987E090E00E94E12BFC0169
:102EC00082E190E0918380831282D482C3829682D1
:102ED0008582BF01C3010E94EF0A8CE090E00E944E
:102EE000E12B7C010E94CC0948A959A9B801C7016E
:102EF0000E94B5098CE090E00E94E12B8C010E94B9
:102F0000CC0948A559A5B701C8010E94B5098CE0B4
:102F100090E00E94E12B6C010E94CC0948A159A1CC
:102F2000B801C6010E94B50987E090E00E94E12B3C
:102F3000FC0183E190E0918380831282D482C3827A
:102F400096828582BF01C3010E94EF0A8CE090E067
:102F50000E94E12B6C010E94CC094CA15DA1B8013B
:102F6000C6010E94B50987E090E00E94E12BFC01B8
:102F700084E190E0918380831282D482C38296821E
:102F80008582BF01C3010E94EF0A8CE090E00E949D
:102F9000E12B6C010E94CC09A101B801C6010E947D
:102FA000B50987E090E00E94E12BFC0185E190E00B
:102FB000918380831282D482C38296828582BF01EC
:102FC000C3010E94EF0A8CE090E00E94E12B8C018B
:102FD0000E94CC094AA95BA9B701C8010E94B509A2
:102FE0008CE090E00E94E12B7C010E94CC0948A17A
:102FF00059A1B801C7010E94B50987E090E00E947D
:10300000E12BFC0186E190E0918380831282F482BF
:10301000E38256824582BF01C3010E94EF0A8CE021
:1030200090E00E94E12B7C010E94CC094CA15DA1A3
:10303000B801C7010E94B50987E090E00E94E12B2A
:10304000FC0187E190E0918380831282F482E38225
:1030500096828582BF01C3010E94EF0A8CE090E056
:103060000E94E12B7C010E94CC09A101B801C7019B
:103070000E94B50987E090E00E94E12BFC0188E105
:1030800090E0918380831282F482E382968285822B
:10309000BF01C3010E94EF0ACE0140969B8F8A8F29
:1030A000DE015496BD8FAC8FFE013896FF8FEE8FF8
:1030B00081E08093C70888E68093E8081092FE09B3
:1030C0001092FD0960E081E09AE00E9444081091AE
:1030D000FD09113208F0EAC00E9437076B017C013C
:1030E00080910F09811173C082E080930F0981E004
:1030F00080930E098FEF80930D0910920C091093A5
:103100000B09E8ECF8E0A9EEB8E080E01813A6C0DF
:1031100010920A0980910A09806D80930A098091B2
:103120000909813009F09EC0109209090E943707F1
:103130006B017C0180910A098093BB008091110989
:1031400090911209A0911309B0911409892B8A2B2F
:103150008B2BA1F00E9437070091110910911209E1
:1031600020911309309114096C197D098E099F096A
:10317000061717072807390708F44AC08091BC00D2
:1031800083FDD8CF85EC8093BC000E9437076B018C
:103190007C0180910F09823009F466C080910D098D
:1031A00010E08F3FD1F180910D0912E08032A9F13A
:1031B00080910D0913E0803381F114E02EC0FC01F1
:1031C000828193810097D9F75382428281CB80918B
:1031D000110990911209A0911309B0911409892B3A
:1031E0008A2B8B2B09F47CCF0E9437078090110922
:1031F00090901209A0901309B09014096C197D09E0
:103200008E099F0986169706A806B90608F068CFAA
:10321000809110090E94D30715E01092FE091092C8
:10322000FD091092C708112309F442C01092390910
:1032300080913909882311F40C94DA278DEE97E0F8
:103240000E94940B8CE198E00E94940B0E944C0B1E
:1032500068EE73E080E090E00C94A32791919D9339
:103260008F5F54CF85EE8FCF809111099091120915
:10327000A0911309B0911409892B8A2B8B2B09F487
:1032800088CF0E94370700911109109112092091EF
:103290001309309114096C197D098E099F090617CD
:1032A00017072807390708F074CFB2CF11E0B5CF60
:1032B00081E0809339090E9437076B017C0180917E
:1032C0000F09811164C081E080930F0980930E097A
:1032D0009FEF90930D0910920C0996E090930B09C3
:1032E00080930A0980910A09806D80930A09809170
:1032F0000909813009F0CFC5109209090E943707EA
:103300006B017C0180910A098093BB0080911109B7
:1033100090911209A0911309B0911409892B8A2B5D
:103320008B2BA1F00E943707809011099090120911
:10333000A0901309B09014096C197D098E099F099A
:1033400086169706A806B90608F442C08091BC000C
:1033500083FDD8CF85EC8093BC000E9437076B01BA
:103360007C0180910F09813009F497C580910C0987
:10337000873008F0B4C580910C09A9EEB8E0E5E10A
:10338000F9E0181749F19D9191931F5FFACF809151
:10339000110990911209A0911309B0911409892B78
:1033A0008A2B8B2B09F48BCF0E9437078090110951
:1033B00090901209A0901309B09014096C197D091E
:1033C0008E099F0986169706A806B90608F077CFDA
:1033D000809110090E94D3071092000A1093FF09F0
:1033E000173008F425CF81E09AE00E940408A82E47
:1033F000829587705AE0B52E9A2D9F70C92E8B9DAD
:10340000C00C112481E09AE00E940408982F929544
:103410009F708F70E82E9B9DE00C112481E09AE054
:103420000E940408982F929593708F70D82E9B9DC0
:10343000D00C112481E09AE00E940408982F929504
:103440009F708F709B9D800D11248C8381E09AE08A
:103450000E940408982F92959F708F70F82E9B9D64
:10346000F00C112481E09AE00E940408982F9295B4
:103470009F708F70082F9B9D000D112481E09AE0B2
:103480000E940408982F92959F70182F1F70125E4B
:103490009B9D100D1124A7FCCBCE60ED77E080E062
:1034A00090E00E945C0782E40E941A07BC01990F19
:1034B000880B990B0E941F2A20E030E040EA50E47C
:1034C0000E94D42A20E030E040E85AE30E94D42A47
:1034D0002CE83EE24AEB5DE30E94752960935409B3
:1034E00070935509809356099093570983E40E947D
:1034F0001A07BC01990F880B990B0E941F2A20E024
:1035000030E040EA50E40E94D42A20E030E040E875
:103510005AE30E94D42A2CE83EE24AEB5DE30E9483
:1035200075296093500970935109809352099093C3
:10353000530986ED92E00E94940B87EF92E00E947F
:10354000A00B609154097091550980915609909192
:1035500057090E94870C84E093E00E94940B87E057
:1035600093E00E94A00B60915009709151098091E5
:103570005209909153090E94870C84E093E00E94C5
:10358000940B8DE492E00E94940B8DE492E00E94F3
:10359000940B84E193E00E94940B86E19AE00E94F0
:1035A000FF0C2B013C0168EE73E080E090E00E948C
:1035B0005C078DE09AE00E94FF0C4B015C0168EE15
:1035C00073E080E090E00E945C078BE293E00E9451
:1035D000A00BC301B2010E94870C8AE393E00E9412
:1035E000940B80E493E00E94A00BC501B4010E94FB
:1035F000870C8AE393E00E94940B8DE492E00E9492
:10360000940B8DE492E00E94940B8FE493E00E946F
:10361000A00B80904C0990904D09A0904E09B0905D
:103620004F09C501B4016F5F7F4F8F4F9F4F97FFC9
:1036300009C08DE20E946804C501B40160957095CF
:10364000809590954AE00E94500B81E097E00E949F
:10365000940B8DE492E00E94940B8AE693E00E9422
:10366000940B80E993E00E94A00B8D2D90E00E94C6
:103670008A0C8AE30E9468048E2D90E00E948A0CD6
:103680008AE30E9468048C2D90E00E948A0C8CE9E9
:1036900093E00E94A00B8F2D90E00E948A0C8FE295
:1036A0000E946804802F90E00E948A0C8FE20E94A2
:1036B0006804812F90E08E54984F0E948A0C0E94DB
:1036C0004C0B8DE492E00E94940B8EEA93E00E94F2
:1036D000940B0E94280A8C018DE492E00E94940BC6
:1036E0008DE492E00E94940B83EC93E00E94940B93
:1036F0008CEE93E00E94940B0E94280A7C018DE4DA
:1037000092E00E94940B8DE492E00E94940BE114ED
:10371000F10411F40C94DE27B701FF0C880B990B10
:103720000E941F2A6093540970935509809356098B
:103730009093570985E094E00E94A00B6091540992
:103740007091550980915609909157090E94870CF4
:1037500081E194E00E94940B8DE492E00E94940B2E
:1037600088E194E00E94940B0E94280A7C018DE479
:1037700092E00E94940B8DE492E00E94940BE1147D
:10378000F10411F40C94E827B701FF0C880B990B96
:103790000E941F2A60935009709351098093520927
:1037A0009093530981E394E00E94A00B609150092B
:1037B0007091510980915209909153090E94870C90
:1037C00081E194E00E94940BC0905409D090550977
:1037D000E0905609F090570920E030E040E451E4D1
:1037E000C701B6010E94CF2A87FD20C020E030E04B
:1037F00040E451E46091500970915109809152095F
:10380000909153090E94CF2A87FD10C060E082E0AA
:103810000E94510560E083E00E9451051092350935
:103820001092360910923709109238098090500989
:1038300090905109A0905209B0905309A5019401AC
:10384000C701B6010E94702987FF1EC020E030E04A
:1038500040E85FE3C701B6010E94CF2A1816A4F41E
:103860008091350990913609A0913709B0913809B6
:10387000892B8A2B8B2B41F460E082E00E9451055A
:1038800060E083E00E945105A5019401C701B601E3
:103890000E94CF2A18160CF024C320E030E040E844
:1038A0005FE3C501B4010E94CF2A18160CF019C3BA
:1038B0008091350990913609A0913709B091380966
:1038C000892B8A2B8B2BA1F461E082E00E945105A9
:1038D00061E083E00E94510581E090E0A0E0B0E06B
:1038E0008093350990933609A0933709B09338092E
:1038F00020E030E040E85FE3C701B6010E94702994
:1039000087FD19C320E030E040E85FE3C501B40162
:103910000E94702987FF10C060E082E00E9451057C
:1039200060E083E00E94510510923509109236093B
:103930001092370910923809809135099091360913
:10394000A0913709B0913809892B8A2B8B2BA1F4D0
:103950008DE394E00E94940B809154099091550955
:10396000A0915609B091570980933E0990933F0961
:10397000A0934009B093410980913509909136098F
:10398000A0913709B09138090197A105B105A1F4BB
:1039900087E594E00E94940B809150099091510921
:1039A000A0915209B091530980933E0990933F0929
:1039B000A0934009B0934109C0903E09D0903F09BF
:1039C000E0904009F090410920E030E040E85FE3FA
:1039D000C701B6010E94CF2A181624F461E084E0E2
:1039E0000E94510520E030E040E85FE3C701B601E6
:1039F0000E94702987FF04C060E084E00E945105A6
:103A000060ED77E080E090E00E945C078DE492E05A
:103A10000E94940B64EF71E080E090E00E945C07EC
:103A200081E794E00E94940B8DE09AE00E94FF0CE5
:103A30004B015C0187E994E00E94940B0E94280AE4
:103A40007C018DE492E00E94940B8DE492E00E9450
:103A5000940B91E0E916F10409F478C2EF2809F417
:103A60007CC28FEB96E00E94A00B20E030E0A90121
:103A7000C501B4010E947029811124C080914C09B4
:103A800090914D09A0914E09B0914F09892B8A2B35
:103A90008B2B61F481E090E0A0E0B0E080934809D6
:103AA00090934909A0934A09B0934B091092440995
:103AB0001092450910924609109247098BEA94E04A
:103AC0000E94940B20E030E0A901C501B4010E94DE
:103AD000CF2A181684F480E090E0A0E8BFE380933A
:103AE000440990934509A0934609B09347098EEA8B
:103AF00094E00E94940B20E030E0A9016091440919
:103B00007091450980914609909147090E9470295A
:103B1000811189C08091480990914909A0914A0971
:103B2000B0914B09892B8A2B8B2B09F04EC08091C9
:103B3000420990914309019709F047C020E030E025
:103B400040E85FE360913E0970913F098091400930
:103B5000909141090E94CF2A1816BCF582EB94E09F
:103B60000E94940B8CED94E00E94940B8FEF94E0F4
:103B70000E94940B83E495E00E94940B86E795E005
:103B80000E94940B0E94280A019781F481E090E042
:103B9000A0E0B0E08093480990934909A0934A09B6
:103BA000B0934B098DE492E00E94940B20E030E04A
:103BB000A90160914409709145098091460990914D
:103BC00047090E94702981112EC080914809909167
:103BD0004909A0914A09B0914B090197A105B10586
:103BE00011F520E030E040E85FE360913E0970911C
:103BF0003F0980914009909141090E94CF2A1816EF
:103C000094F48091420990914309029760F481E90C
:103C100095E00E94940B61E089E00E94510561E00B
:103C200088E00E9451058DE492E00E94940B68EEBA
:103C300073E080E090E00E945C0782EE95E00E94D5
:103C4000940B88E096E00E94940B0E94280A7C0165
:103C50008DE492E00E94940B8DE492E00E94940B1C
:103C600086E19AE00E94FF0C68EE73E080E090E04D
:103C70000E945C07E114F10411F40C94F227B701DF
:103C8000FF0C880B990B0E941F2A60933A097093CE
:103C90003B0980933C0990933D0982E296E00E94A3
:103CA000A00B60913A0970913B0980913C09909179
:103CB0003D090E94870C89E396E00E94940B8DE4F5
:103CC00092E00E94940B68EE73E080E090E00E9426
:103CD0005C0760913A0970913B0980913C09909191
:103CE0003D090E94E7294B01409044095090450945
:103CF0006090460970904709C301B2010E94E7290C
:103D000068A379A38AA39BA360913E0970913F09A0
:103D100080914009909141090E94E7296B0120E0C0
:103D200030E0A901C301B2010E94702981111EC0B7
:103D30008091480990914909A0914A09B0914B0995
:103D40000197A105B10591F4809142099091430931
:103D5000029760F480E496E00E94940B60E089E0B2
:103D60000E94510560E088E00E945105609144097D
:103D70007091450980914609909147090E94E72971
:103D8000609348097093490980934A0990934B09BD
:103D900086E896E00E94940B8CEA96E00E94A00BC5
:103DA000C8010E948A0C84EB96E00E94A00BC4011B
:103DB0000E948A0C8DEB96E00E94A00B88A199A12D
:103DC0000E948A0C86EC96E00E94A00BC6010E941D
:103DD0008A0C0E944C0B8DE492E00E94940B209080
:103DE000A60A3090A70AB801110F880B990B0E9400
:103DF0001F2A9B01AC0161E070E0C1010E94DA0959
:103E0000B401990C880B990B0E941F2A9B01AC01ED
:103E100062E070E0C1010E94DA09A8A1B9A1BD0168
:103E2000BB0F880B990B0E941F2A9B01AC0163E01A
:103E300070E0C1010E94DA09B601DD0C880B990B14
:103E40000E941F2A9B01AC0164E070E0C1010E9446
:103E5000DA09F1010190F081E02DF9A3E8A39F01B7
:103E60002115310509F482C0F901A081B1811696AE
:103E70000D90BC91A02D109709F473C08D919C9169
:103E80001197FC01108A118A128A138A12960D90DA
:103E9000BC91A02DF0CF85EE5ECA80911109909162
:103EA0001209A0911309B0911409892B8A2B8B2B2D
:103EB00009F457CA0E94370780901109909012099F
:103EC000A0901309B09014096C197D098E099F09FF
:103ED00086169706A806B90608F043CA79CA87E08D
:103EE0004CCA20E030E040E85FE3C701B6010E9421
:103EF000702987FF07CD8091350990913609A091EF
:103F00003709B0913809892B8A2B8B2BA1F461E0FA
:103F100082E00E94510561E083E00E94510581E04A
:103F200090E0A0E0B0E08093350990933609A0932B
:103F30003709B093380920E030E040E85FE3C5017D
:103F4000B4010E94702987FF17CDE6CC812C912CFB
:103F500040E8A42E4FE3B42E84CD812C912C540143
:103F600080CDD90112962D913C917ACFF10102803A
:103F7000F381E02DFBABEAAB9F012115310509F47C
:103F8000E5C0F901A081B18116960D90BC91A02DDC
:103F9000109769F08D919C911197FC01108A118AFC
:103FA000128A138A12960D90BC91A02DF1CFD901DF
:103FB00012962D913C91E1CF2CA13DA14EA15FA184
:103FC000C701B6010E94CF2A87FD39C0A50194011F
:103FD000C701B6010E94702987FF31C02CA13DA105
:103FE0004EA15FA1C501B4010E9403299B01AC0150
:103FF00060E070E080E89FE30E9475292B013C019E
:10400000A5019401C701B6010E9403299B01AC01DF
:10401000C301B2010E94D42A20E030E040E85FE30F
:104020000E940429F801608B718B828B938BECA525
:10403000FDA50280F381E02DFDA7ECA797C0D80174
:1040400018964D905D906D907C901B97A501940102
:10405000C701B6010E94CF2A87FD12C0A7019601B1
:10406000C301B2010E94CF2A87FD0AC080E090E020
:10407000A0E8BFE3F801808B918BA28BB38BD7CFE5
:10408000D8011C968D919D910D90BC91A02D88A773
:1040900099A7AAA7BBA7A7019601C301B2010E94D5
:1040A000702987FF27C0A701960168A579A58AA571
:1040B0009BA50E94CF2A87FD1DC028A539A54AA52A
:1040C0005BA5C301B2010E9403299B01AC0160E022
:1040D00070E080E89FE30E9475294B015C01A30119
:1040E0009201C701B6010E9403299B01AC01C501E1
:1040F000B40190CFA701960168A579A58AA59BA5D3
:104100000E94702987FF93CFA301920168A579A52A
:104110008AA59BA50E947029811171C0A5019401F7
:10412000C301B2010E947029882309F468C0A50167
:1041300094016CA17DA18EA19FA15DC0A8A1B9A190
:1041400012960D90BC91A02DB9A3A8A3E8A1F9A146
:10415000309709F45CC02081318139AB28ABD9019B
:1041600016960D90BC91A02DBDA7ACA7ECA5FDA502
:10417000309721F300811181A8A9B9A91296CD9099
:10418000DD90ED90FC901597D8018D919D910D904B
:10419000BC91A02D8CA39DA3AEA3BFA3F8018480E6
:1041A0009580A680B7809C01AD01C701B6010E9431
:1041B000702987FF01CFA50194016CA17DA18EA17B
:1041C0009FA10E94702981111AC0D8011896CD9024
:1041D000DD90ED90FC901B97A5019401C701B601FD
:1041E0000E947029882359F0F80124853585468579
:1041F0005785C701B6010E947029811137CFD801B8
:1042000050961D921D921D921C92539710CFF10152
:1042100004811581772473940115110509F0B2C04A
:104220009E01245F3F4F398F288F2AA93BA9211572
:10423000310509F439C4D9018D909C90F4010085B1
:104240001185D8016D917C916115710519F0C80136
:104250000E94B80CF80111821082D40116966D905C
:104260007C906114710409F412C2F3010081118180
:1042700020E030E0A901D80150966D917D918D919B
:104280009C9153970E94CF2A18160CF077C1F80121
:10429000C080D180E280F380A7019601648175819E
:1042A000868197810E947029882359F000E010E0F0
:1042B0009801B701A601D40118968D919C910E9496
:1042C000A80AF30100811181D80114962D903D9028
:1042D0004D905C9017975096CC9050975196DC90EB
:1042E00051975296EC9052975396FC905397A20197
:1042F000910118966D917D918D919C911B970E94D3
:104300007029811140C1F801F081F8A3D8011196FC
:10431000BC91BCA3F801F281F8A7D8011396BC9117
:10432000BCA7F801F485F8ABD8011D96BC901D9789
:104330001E96AC901E971F961C9178A16CA198A513
:104340008CA5272F362F492F582FBF2F6B2F7B2D52
:104350008A2D912F0E947029882309F493C120E0AF
:1043600030E040E85FE36C2D7D2D8E2D9F2D0E9467
:104370007029811149C000E010E020E83FE3B2015C
:10438000A10123C1D801ED90FC90F70183819481B4
:104390000097B1F1C580D680C114D10489F10E9483
:1043A00076084B015C0120E030E0A9010E94CF2A91
:1043B00018161CF5D70112967C92D601ED90FC9050
:1043C000E114F104E9F0F701C080D180D6015096E4
:1043D0002D913D914D915C915397C501B4010E947F
:1043E000CF2A18162CF4F601808A918AA28AB38A01
:1043F000D7011296ED90FC90E3CFF7011282DDCF4A
:10440000F8010281138108CF2C8A3D8A4E8A5F8A87
:104410009601A701C901DA01888B998BAA8BBB8B06
:10442000FB8DFF938A8D8F939D8D9F93AC8DAF9362
:104430005F934F933F932F931F93AF92BF92B8A96F
:10444000BF935F934F933F932F93ECA5EF93F8A502
:10445000FF932CA12F9338A13F93A12CB12C30E8CE
:10446000C32E3FE3D32E8201710120E030E0A90189
:10447000B8A1ACA1F8A5ECA56B2F7A2F8F2F9E2F9A
:104480000E941502088919892A893B894C895D890E
:104490006E897F89D40118968D919C910E94A80AFB
:1044A000D301ED91FC9160857185828593856C8740
:1044B0007D878E879F870089118932892389A8018A
:1044C000A32FB22F9D01088719872A873B87E48491
:1044D000F584068517852F8D2F933E8D3F93298D6B
:1044E0002F93388D3F93BF93AF935F934F931F9359
:1044F0000F93FF92EF92BF93AF935F934F932381FC
:104500002F9322812F9321812F9320812F93A12CF0
:10451000B12C650120E030E040E85FE30E94150225
:104520000FB6F894DEBF0FBECDBF088519852A856A
:104530003B854C855D856E857F85D40118968D9170
:104540009C910E94A80AD301ED91FC91C484D5846A
:10455000E684F7842085318542855385C701B601FD
:104560000E947029882351F000E010E09801B70103
:10457000A601F401808591850E94A80AD3011296B4
:104580006D907C906ECE20E030E040E85FE36C2DD3
:104590007D2D8E2D9F2D0E94702981111AC000E063
:1045A00010E020E83FE3B201A101F401808591858C
:1045B0000E94A80AD301ED91FC91008911892289FA
:1045C00033894085518562857385F40180859185A5
:1045D000B8CF2C8A3D8A4E8A5F8A9601A701C9010D
:1045E000DA01888B998BAA8BBB8BD8017C911196B1
:1045F0006C91119712969C91129713968C91BB8D8A
:10460000BF93EA8DEF93FD8DFF93AC8DAF935F93D6
:104610004F933F932F93D8011F96EC911F97EF93E1
:104620001E96EC911E97EF931D96EC911D97EF93BC
:104630001C96EC91EF935F934F933F932F938F933F
:104640009F936F937F93A12CB12C20E8C22E2FE370
:10465000D22E8201710120E030E0A901DB01FC01D2
:104660006B2F7A2F8F2F9E2F0E9415020889198990
:104670002A893B894C895D896E897F89F40180850F
:1046800091850CCF0C2D1D2D2E2D3F2D78CEF401B4
:104690000084F185E02D2A96FFAFEEAF2A972080A7
:1046A00031802114310409F4F6C18101D801ED9063
:1046B000FC901197E114F10409F4E7C112968D9171
:1046C0009D910D90BC91A02D8CA79DA7AEA7BFA7D3
:1046D000F7012281338144815581BC01CD010E94C3
:1046E000702987FFD6C119A308A3A8A1B9A10D906D
:1046F000BC91A02DB9A3A8A3109709F4C6C1ED9150
:10470000FC91F9A7E8A7309781F3D8011A960D908C
:10471000BC91A02DB9ABA8ABD80116968D919D91F7
:104720000D90BC91A02D8CAB9DABAEABBFABA8A147
:10473000B9A112968D919D910D90BC91A02D88AF3D
:1047400099AFAAAFBBAFA8A1B9A116968D919D91C3
:104750000D90BC91A02D8CAF9DAFAEAFBFAF9C01B3
:10476000AD0166817781808591850E9403292E960F
:104770006CAF7DAF8EAF9FAF2E972CA53DA54EA5FC
:104780005FA5E8A9F9A962817381848195810E945E
:10479000032924966CAF7DAF8EAF9FAF249728ADD1
:1047A00039AD4AAD5BADA8A5B9A512966D917D91C5
:1047B0008D919C9115970E9403292B013C012CA9F6
:1047C0003DA94EA95FA9E8A9F9A9668177818085ED
:1047D00091850E94032928966CAF7DAF8EAF9FAF65
:1047E000289724962CAD3DAD4EAD5FAD24972E9607
:1047F0006CAD7DAD8EAD9FAD2E970E94D42A6B011E
:104800007C0128962CAD3DAD4EAD5FAD2897C30120
:10481000B2010E94D42A9B01AC01C701B6010E94DB
:1048200003296CA37DA38EA39FA320E030E0A90100
:104830000E94702987FF09C08CA19DA1AEA1BFA1D4
:10484000B0588CA39DA3AEA3BFA32FE632E143E8EB
:104850005AE36CA17DA18EA19FA10E94702987FDC2
:1048600044CF2CAD3DAD4EAD5FAD6CA97DA98EA9F9
:104870009FA90E9403294B015C0128AD39AD4AADC7
:104880005BAD6CA57DA58EA59FA50E9403296B013C
:104890007C01A5019401C301B2010E94D42A2B011D
:1048A0003C01A70196012E966CAD7DAD8EAD9FADFE
:1048B0002E970E94D42A9B01AC01C301B2010E9431
:1048C00003292B013C0120E030E0A9010E9470295E
:1048D00087FF04C077FA709477F87094A50194016B
:1048E00024966CAD7DAD8EAD9FAD24970E94D42AE9
:1048F0004B015C01A701960128966CAD7DAD8EAD94
:104900009FAD28970E94D42A9B01AC01C501B40138
:104910000E9403296B017C0120E030E0A9010E9484
:10492000702987FF04C0F7FAF094F7F8F0942CA1EF
:104930003DA14EA15FA1C301B2010E9475294B01A7
:104940005C0120E030E0A9010E94702987FDCDCEF6
:1049500020E030E040E85FE3C501B4010E94CF2AC7
:1049600018160CF4C2CE2CA13DA14EA15FA1C70127
:10497000B6010E9475296B017C0120E030E0A9019D
:104980000E94702987FDB1CE20E030E040E85FE36F
:10499000C701B6010E94CF2A18160CF4A6CE8CE0EF
:1049A00090E00E94E12B7C01009709F49ECEE8A5DF
:1049B000F9A5DC01ED93FC93A501940124966CAD5F
:1049C0007DAD8EAD9FAD24970E94D42A2CA53DA528
:1049D0004EA55FA50E940429D70112966D937D9381
:1049E0008D939C931597A501940128966CAD7DAD90
:1049F0008EAD9FAD28970E94D42A2CA93DA94EA91F
:104A00005FA90E940429F7016683778380879187D5
:104A100028A939A933872287A8A5B9A51B96FC9296
:104A2000EE921A97F901F182E082D80112968D90E8
:104A30009D90AD90BC90159716964D905D906D90A1
:104A40007C901997EC901196FC90C8010E947D2CE7
:104A5000A501940168AD79AD8AAD9BAD0E94702926
:104A600081110AC0A30192016CAD7DAD8EAD9FADE9
:104A70000E947029882319F08701EF28B1F62A9641
:104A8000EEADFFAD2A9720803180F101228433847E
:104A900008CE87010BCEAAA9BBA912960D90BC9196
:104AA000A02DBBABAAABC1CB86ED96E00E94940BC8
:104AB0008FE097E00E94A00BE091A40AF091A50A74
:104AC00060897189828993890E94870C8DE197E0C2
:104AD0000E94A00BE091A20AF091A30A608971895B
:104AE000828993890E94870C8AE297E00E94A00B3A
:104AF000E091A00AF091A10A608971898289938965
:104B00000E947A0C87E397E00E94A00BE0919E0A36
:104B1000F0919F0A60897189828993890E94870C2C
:104B200087E497E00E94A00BE0919C0AF0919D0A17
:104B300060897189828993890E947A0C83E597E064
:104B40000E94A00BE0919A0AF0919B0A60897189FA
:104B5000828993890E94870C80E697E00E94A00BCF
:104B6000E091980AF091990A608971898289938904
:104B70000E947A0C89E697E00E94A00BE091960AC9
:104B8000F091970A60897189828993890E94870CC4
:104B900086E897E00E94A00BE091940AF091950AB4
:104BA00060897189828993890E94870C86E997E0E0
:104BB0000E94A00BE091920AF091930A608971899A
:104BC000828993890E947A0CE091A60AF091A70A43
:104BD0000280F381E02D309709F4C1C1A081B18139
:104BE0008D919C911197019799F71896ED91FC91F1
:104BF0000190F081E02D1CAA1DAA1EAA1FAA18AEC2
:104C000019AE1AAE1BAE309709F436C10285138572
:104C10000115110509F430C1C280D380E480F5800C
:104C2000D80112968D909D90AD90BC901597B6814D
:104C3000B8A327812CA320843184A5019401C70146
:104C4000B6010E947029882309F40AC1D80116967A
:104C5000BC91BAABF801F781F8A7D8011896BC91BE
:104C6000BCA7F801F185F8AB20E030E0A90168A10C
:104C70007CA1C1010E947029882359F020E030E016
:104C8000A9016AA978A58CA598A90E94702981110B
:104C900062C020E030E0A90168A17CA1C1010E94AE
:104CA000CF2A18160CF048C028A12CAF3CA12196A1
:104CB0003FAF219725962FAE259729963FAE29978E
:104CC000A7019601C501B4010E9403292B013C01F3
:104CD0002CAD21963FAD219725964FAD259729966E
:104CE0005FAD29970E94D42A20E030E040E05FE3E6
:104CF0000E94D42A4B015C012AA938A54CA558A9C9
:104D000068A17CA1C1010E94702920E030E040EC44
:104D10005FE387FD04C020E030E040E450E4C301DD
:104D2000B2010E9475299B01AC01C701B6010E9426
:104D300004296B017C0150C08AA98CAF98A52196EB
:104D40009FAF2197ACA52596AFAF2597B8A9299617
:104D5000BFAF2997B5CF20E030E0A90168A17CA1C1
:104D6000C1010E94CF2A18160CF07EC020E030E06E
:104D7000A9016AA978A58CA598A90E94CF2A18161E
:104D80000CF072C02AA938A54CA558A968A17CA12D
:104D9000C1010E947029A701960181113DC0C50182
:104DA000B4010E9403294B015C0120E030E040E0A7
:104DB0005FE30E94D42A9B01AC01C701B6010E94A7
:104DC00004296B017C01A501940168A17CA1C101AA
:104DD0000E94D42A4B015C01A7019601B401C501D0
:104DE0000E94D42A9B01AC0168AD79AD8AAD9BAD20
:104DF0000E94042968AF79AF8AAF9BAF9401A501E7
:104E00006CA97DA98EA99FA90E9404296CAB7DABDA
:104E10008EAB9FABF801F7CEC501B4010E94032908
:104E20002B013C012AA938A54CA558A968A17CA151
:104E3000C1010E94042920E030E040E05FE30E94CD
:104E4000D42AA30192010E94D42A4B015C0120E0E4
:104E500030E040E05FE3C301B2010E94D42A63CF97
:104E600088A09CA05101B8CFC12CD12C7601812CF7
:104E7000912CA12CB12CB0CF20E030E0A9016CA97D
:104E80007DA98EA99FA90E947029882309F467C073
:104E90002CA93DA94EA95FA968AD79AD8AAD9BAD9E
:104EA0000E9475296B017C018DE492E00E94940BB5
:104EB0008FE997E00E94940B86EC97E00E94A00B8C
:104EC00020E030E040E85FE3C701B6010E947029AE
:104ED000811149C086ED97E00E94940B60E089E063
:104EE0000E94510560E088E00E94510581E090E059
:104EF00090934309809342098DE492E00E94940BC1
:104F00008DE492E00E94940B8DE492E00E94940B59
:104F10008DE492E00E94940B80914C0990914D0990
:104F2000A0914E09B0914F090196A11DB11D80932A
:104F30004C0990934D09A0934E09B0934F0964E634
:104F400070E080E090E00E945C0768EB7BE080E02E
:104F500090E00E945C070E948D040C945818C12CAC
:104F6000D12C7601A1CF20E030E040E050E4C70131
:104F7000B6010E94702981110FC08BED97E00E944D
:104F8000940B61E089E00E94510561E088E00E9495
:104F9000510582E090E0ACCF20E030E0A901C701EC
:104FA000B6010E9470298111A7CF83EE97E00E947D
:104FB000940BA2CF8EE498E00C942419109254091B
:104FC0001092550910925609109257090C949A1B89
:104FD00010925009109251091092520910925309DF
:104FE0000C94D21B10923A0910923B0910923C0982
:104FF00010923D090C944D1E8F929F92AF92BF92DA
:10500000CF92DF92EF92FF92CF93DF93EC01688112
:1050100079818A819B81611571058105910521F452
:1050200064E279ED8BE597E02DE133EF41E050E06C
:105030000E94A02849015A019B01AC01A7EAB1E4F2
:105040000E94BF286B017C01ACEEB4EFA501940176
:105050000E94CD28C60ED71EE81EF91EF7FE06C018
:1050600081E0C81AD108E10880E8F80AC882D9822C
:10507000EA82FB82C701B6019F77DF91CF91FF9053
:10508000EF90DF90CF90BF90AF909F908F9008955A
:105090008F929F92AF92BF92CF92DF92EF92FF9248
:1050A0006091130270911402809115029091160282
:1050B000611571058105910521F464E279ED8BE5B7
:1050C00097E02DE133EF41E050E00E94A028490134
:1050D0005A019B01AC01A7EAB1E40E94BF286B0111
:1050E0007C01ACEEB4EFA50194010E94CD28C60E60
:1050F000D71EE81EF91EF7FE06C081E0C81AD108C7
:10510000E10880E8F80AC0921302D0921402E092FB
:105110001502F0921602C701B6019F77FF90EF903B
:10512000DF90CF90BF90AF909F908F900895609345
:10513000130270931402809315029093160208953F
:10514000052E97FB1EF400940E94B72857FD07D048
:105150000E94D22807FC03D04EF40C94B728509537
:105160004095309521953F4F4F4F5F4F0895909553
:105170008095709561957F4F8F4F9F4F08950E9446
:10518000F428A59F900DB49F900DA49F800D911DB4
:1051900011240895B7FF0C94BF280E94BF28821BDA
:1051A000930B0895A1E21A2EAA1BBB1BFD010DC093
:1051B000AA1FBB1FEE1FFF1FA217B307E407F507C7
:1051C00020F0A21BB30BE40BF50B661F771F881FA3
:1051D000991F1A9469F760957095809590959B0139
:1051E000AC01BD01CF010895A29FB001B39FC001E2
:1051F000A39F700D811D1124911DB29F700D811D03
:105200001124911D08955058BB27AA270E941B29DD
:105210000C94952A0E94872A38F00E948E2A20F04A
:1052200039F49F3F19F426F40C94842A0EF4E09587
:10523000E7FB0C947E2AE92F0E94A62A58F3BA179E
:10524000620773078407950720F079F4A6F50C949C
:10525000C82A0EF4E0950B2EBA2FA02D0B01B90130
:1052600090010C01CA01A0011124FF27591B99F0DC
:10527000593F50F4503E68F11A16F040A22F232FE8
:10528000342F4427585FF3CF469537952795A79538
:10529000F0405395C9F77EF41F16BA0B620B730BDF
:1052A000840BBAF09150A1F0FF0FBB1F661F771F50
:1052B000881FC2F70EC0BA0F621F731F841F48F405
:1052C000879577956795B795F7959E3F08F0B0CF8E
:1052D0009395880F08F09927EE0F97958795089575
:1052E0000E945A2A08F481E008950E9489290C94AA
:1052F000952A0E948E2A58F00E94872A40F029F4AD
:105300005F3F29F00C947E2A51110C94C92A0C9409
:10531000842A0E94A62A68F39923B1F3552391F3B6
:10532000951B550BBB27AA2762177307840738F014
:105330009F5F5F4F220F331F441FAA1FA9F335D071
:105340000E2E3AF0E0E832D091505040E695001C25
:10535000CAF72BD0FE2F29D0660F771F881FBB1FDF
:10536000261737074807AB07B0E809F0BB0B802DBD
:10537000BF01FF2793585F4F3AF09E3F510578F0E9
:105380000C947E2A0C94C92A5F3FE4F3983ED4F330
:10539000869577956795B795F7959F5FC9F7880FBD
:1053A000911D9695879597F90895E1E0660F771F0F
:1053B000881FBB1F621773078407BA0720F0621BA0
:1053C000730B840BBA0BEE1F88F7E09508950E94CB
:1053D000EE296894B1110C94C92A08950E94AE2A4E
:1053E00088F09F5798F0B92F9927B751B0F0E1F0A6
:1053F000660F771F881F991F1AF0BA95C9F714C056
:10540000B13091F00E94C82AB1E008950C94C82AE6
:10541000672F782F8827B85F39F0B93FCCF386958E
:1054200077956795B395D9F73EF4909580957095EB
:1054300061957F4F8F4F9F4F0895E89409C097FB68
:105440003EF490958095709561957F4F8F4F9F4F5B
:105450009923A9F0F92F96E9BB279395F69587959F
:1054600077956795B795F111F8CFFAF4BB0F11F462
:1054700060FF1BC06F5F7F4F8F4F9F4F16C0882309
:1054800011F096E911C0772321F09EE8872F762F3F
:1054900005C0662371F096E8862F70E060E02AF080
:1054A0009A95660F771F881FDAF7880F969587956C
:1054B00097F90895990F0008550FAA0BE0E8FEEF41
:1054C00016161706E807F907C0F012161306E407C8
:1054D000F50798F0621B730B840B950B39F40A26C1
:1054E00061F0232B242B252B21F408950A2609F49F
:1054F000A140A6958FEF811D811D089597F99F67A3
:1055000080E870E060E008959FEF80EC089500244B
:105510000A941616170618060906089500240A9418
:1055200012161306140605060895092E0394000C9E
:1055300011F4882352F0BB0F40F4BF2B11F460FF2D
:1055400004C06F5F7F4F8F4F9F4F089557FD905856
:10555000440F551F59F05F3F71F04795880F97FB37
:10556000991F61F09F3F79F08795089512161306F1
:105570001406551FF2CF4695F1DF08C01616170620
:105580001806991FF1CF8695710561050894089555
:10559000E894BB2766277727CB0197F908950E94E7
:1055A0005A2A08F48FEF08950E94E72A0C94952A4E
:1055B0000E94872A38F00E948E2A20F0952311F04D
:1055C0000C947E2A0C94842A11240C94C92A0E94DB
:1055D000A62A70F3959FC1F3950F50E0551F629F67
:1055E000F001729FBB27F00DB11D639FAA27F00D3C
:1055F000B11DAA1F649F6627B00DA11D661F829F63
:105600002227B00DA11D621F739FB00DA11D621F47
:10561000839FA00D611D221F749F3327A00D611D64
:10562000231F849F600D211D822F762F6A2F112446
:105630009F5750409AF0F1F088234AF0EE0FFF1F79
:10564000BB1F661F771F881F91505040A9F79E3FD0
:10565000510580F00C947E2A0C94C92A5F3FE4F334
:10566000983ED4F3869577956795B795F795E79526
:105670009F5FC1F7FE2B880F911D9695879597F92F
:10568000089519F416F40C94842A0C948C2B0E941F
:10569000AE2AB8F39923C9F3B6F39F57550B87FF8A
:1056A0000E949A2B0024A0E640EA9001805856956B
:1056B000979528F4805C660F771F881F20F02617C7
:1056C0003707480730F4621B730B840B20293129FC
:1056D0004A2BA69517940794202531254A2758F779
:1056E000660F771F881F20F026173707480730F40A
:1056F000620B730B840B200D311D411DA09581F7AA
:10570000B901842F9158880F9695879508950E9426
:105710005A2A880B990B08959F3F31F0915020F43D
:10572000879577956795B795880F911D969587957D
:1057300097F9089591505040660F771F881FD2F750
:105740000895DB018F939F930E94BF28BF91AF9173
:10575000A29F800D911DA39F900DB29F900D1124CB
:10576000089597FB072E16F4009407D077FD09D013
:105770000E94CD2B07FC05D03EF4909581959F4F5C
:105780000895709561957F4F0895EE0FFF1F881F54
:105790008BBF0790F691E02D1994AA1BBB1B51E11A
:1057A00007C0AA1FBB1FA617B70710F0A61BB70B91
:1057B000881F991F5A95A9F780959095BC01CD0136
:1057C00008950F931F93CF93DF938230910510F4C8
:1057D00082E090E0E091AA0AF091AB0A30E020E08C
:1057E000B0E0A0E0309799F42115310509F44AC0E2
:1057F000281B390B24303105D8F58A819B8161152E
:10580000710589F1FB0193838283FE0111C0408100
:1058100051810281138148175907E0F04817590751
:1058200099F4109761F012960C93129713961C93AB
:105830003296CF01DF91CF911F910F910895009380
:10584000AA0A1093AB0AF4CF2115310551F0421783
:10585000530738F0A901DB019A01BD01DF01F8010E
:10586000C1CFEF01F9CF9093AB0A8093AA0ACDCFB5
:10587000FE01E20FF31F8193919322503109398386
:105880002883D7CF2091A80A3091A90A232B41F46D
:105890002091190230911A023093A90A2093A80A84
:1058A00020911702309118022115310541F42DB7CE
:1058B0003EB740911B0250911C02241B350BE09116
:1058C000A80AF091A90AE217F307A0F42E1B3F0BD8
:1058D0002817390778F0AC014E5F5F4F2417350762
:1058E00048F04E0F5F1F5093A90A4093A80A819376
:1058F00091939FCFF0E0E0E09CCFCF93DF930097B0
:10590000E9F0FC01329713821282A091AA0AB091A9
:10591000AB0AED0130E020E01097A1F42081318145
:10592000820F931F2091A80A3091A90A28173907DE
:1059300009F061C0F093A90AE093A80ADF91CF9122
:105940000895EA01CE17DF07E8F54A815B819E01E1
:1059500041155105B1F7E901FB83EA83499159915A
:10596000C40FD51FEC17FD0761F480819181029669
:10597000840F951FE90199838883828193819B839A
:105980008A83F0E0E0E012968D919C911397009746
:10599000B9F52D913C911197CD010296820F931F7D
:1059A0002091A80A3091A90A2817390739F63097AB
:1059B00051F51092AB0A1092AA0AB093A90AA093CB
:1059C000A80ABCCFD383C28340815181840F951F25
:1059D000C817D90761F44E5F5F4F88819981480FDE
:1059E000591F518340838A819B8193838283211530
:1059F000310509F0B0CFF093AB0AE093AA0A9ECF2D
:105A0000FD01DC01C0CF13821282D7CFF894FFCF03
:105A10001918171D1C1B1A313233343536373839F3
:105A20002A3023010000000000AC0A8000000000C2
:105A3000001B048503B2036D04E303C103D5030017
:105A4000000000440817087308F4077E030408F5F3
:105A50000700000000BF057F054E050D0A006E61BE
:105A60006E00696E66006F766600534D4152542099
:105A700048594252494420454E45524759204D41CC
:105A80004E4147454D454E542053595354454D00C2
:105A90002D2D2D2D2D2D2D2D2D2D2D2D2D2D2D2D36
:105AA0002D2D2D2D2D2D2D2D2D2D2D2D2D2D2D2D26
:105AB0002D2D2D2D2D2D2D2D2D2D2D2D2D2D2D2D16
:105AC0002D2D2D2D2D2D2D2D2D2D2D2D2D2D2D2D06
:105AD0002D2D2D2D2D2D2D2D2D2D2D2D2D2D2D2DF6
