:100000000C944D010C947E010C947E010C947E01A5
:100010000C947E010C947E010C947E010C947E0164
:100020000C947E010C947E010C947E010C947E0154
:100030000C947E010C947E010C947E010C947E0144
:100040000C947E010C947E010C947E010C947E0134
:100050000C947E010C947E010C947E010C94AB13E5
:100060000C947E010C9475130C944B130C947E012C
:100070000C947E010C947E010C947E010C947E0104
:100080000C947E010C947E010C947E010C947E01F4
:100090000C947E010C947E010C947E010C94F5135B
:1000A0000C947E010C947E010C947E010C947E01D4
:1000B0000C947E010C947E010C947E010C947E01C4
:1000C0000C947E010C947E010C947E010C947E01B4
:1000D0000C947E010C947E010C947E010C947E01A4
:1000E0000C947E010C94E2040C941D050C940408FD
:1000F0000C9409050C9481010C9444080C941C0583
:100100000C94EA040C94F1040C944E050C94FB043A
:100110000C9405050C94F7040C9473080C94DC04FF
:100120000C9417050C94EE040C9417080C94E3033C
:100130000C94D5030C94E6040C940F050C946D04F8
:100140000C947F050C9401050C9413050C94C103C9
:100150000C94F4070C94F5070C941B040C941915DB
:100160000C9421050C94B2030C94BF050C948001EF
:100170000C9485030C947E030000210024002700CA
:100180002A002D00300033000101000004010701A6
:100190000A0100002200250028002B002E0031005B
:1001A000340002010000050108010B0100002000DD
:1001B0002300260029002C002F003200000100003F
:1001C00003010601090105050505070508080808DA
:1001D000020202020A0A08080404040401010101DF
:1001E00001010101030303030303030304070707DA
:1001F0000C0C0C0C0C0C0C0C02020202060606067F
:10020000060606060B0B0B0B0B0B0B0B010210204B
:10021000200808102040102040800201020108043C
:1002200002010102040810204080804020100804D0
:100230000201800402018040201008040201080429
:10024000020101020408102040800102040810206D
:10025000408000000A0B02090C0D0E080703040180
:10026000000000000000000000000000000000008E
:10027000000000000000000000000000000012115B
:10028000100000000000000000000000000000005E
:100290000000000000000000191511241FBECFEF60
:1002A000D1E2DEBFCDBF00E00CBF17E0A0E0B2E0BE
:1002B000EEEBF9E500E00BBF02C007900D92AC3EFB
:1002C000B107D9F72AE0ACEEB7E001C01D92A83023
:1002D000B207E1F711E0CDE4D1E000E006C02197DC
:1002E0000109802FFE010E949C2BCC34D10780E0B5
:1002F0000807A9F70E94BD170C94DD2C0C94000090
:100300000895089596E0899FD0011124A558B64F0D
:1003100090967C936E935F9791E091969C939197C2
:10032000E091E809F091E9099091E709992339F002
:10033000309751F0811108C0809197091994309736
:1003400019F05C968C91FACF0895CF92DF92EF92DC
:10035000FF920F931F9396E0899FF0011124E558B7
:10036000F64F11A2278D30A12130310551F178F0DF
:100370002230310509F451C02330310509F452C04F
:100380001F910F91FF90EF90DF90CF90089566231B
:10039000B9F361E070E00E9482012FB7F894809178
:1003A000C6089091C708A091C808B091C9082FBF8E
:1003B0008093D3099093D409A093D509B093D6091B
:1003C000DFCF9FB7F894C090C608D090C708E090E0
:1003D000C808F090C9089FBF0091D3091091D409B3
:1003E0002091D5093091D609C01AD10AE20AF30A40
:1003F0000091E5091091E60930E020E00C151D059B
:100400002E053F0550F462E070E01F910F91FF90C0
:10041000EF90DF90CF900C9482016111B1CF63E037
:1004200070E0F3CF70E060E0F0CF4F925F926F9298
:100430007F928F929F92AF92BF92CF92DF92EF9274
:10044000FF920F931F93CF93DF93CDB7DEB76C97D7
:100450000FB6F894DEBF0FBECDBF6D877E878F8746
:10046000988B298B3A8B4B8B5C8B2CA93DA94EA981
:100470005FA96CAD7DAD8EAD9FAD0E94DA286D8B0E
:100480007E8B8F8B988F2D853E854F855889C8012F
:10049000B7010E94DA286D837E838F83988728A90D
:1004A00039A94AA95BA968AD79AD8AAD9BAD0E9417
:1004B000DA28698F7A8F8B8F9C8F29893A894B89AB
:1004C0005C89C601B5010E94DA2869877A878B8723
:1004D0009C872D813E814F8158856D897E898F89CA
:1004E000988D0E94AB2A4B015C0129853A854B858A
:1004F0005C85698D7A8D8B8D9C8D0E94AB2A9B01CA
:10050000AC01C501B4010E94DA282B013C0120E0B6
:1005100030E0A9010E94472987FF04C077FA709450
:1005200077F870942FE632E143E85AE3C301B20151
:100530000E94472987FDE0C02CA93DA94EA95FA9CB
:1005400069897A898B899C890E94DA284B015C0130
:1005500028A939A94AA95BA96D857E858F859889C7
:100560000E94DA2869837A838B839C83A501940196
:10057000698D7A8D8B8D9C8D0E94AB2A6B017C01DD
:1005800029813A814B815C816D897E898F89988D23
:100590000E94AB2A9B01AC01C701B6010E94DA2878
:1005A0006B017C0120E030E0A9010E94472987FF10
:1005B00004C0F7FAF094F7F8F094A50194016D8166
:1005C0007E818F8198850E94AB2A4B015C01298135
:1005D0003A814B815C8169857A858B859C850E94F7
:1005E000AB2A9B01AC01C501B4010E94DA284B0182
:1005F0005C0120E030E0A9010E94472987FF04C088
:10060000B7FAB094B7F8B094A3019201C701B6014C
:100610000E944C296B017C0120E030E0A9010E947E
:10062000472987FD69C020E030E040E85FE3C7016B
:10063000B6010E94A62A18160CF45EC0A30192010E
:10064000C501B4010E944C294B015C0120E030E05F
:10065000A9010E94472987FD4FC020E030E040E813
:100660005FE3C501B4010E94A62A18160CF444C029
:10067000A70196016D817E818F8198850E94AB2AAA
:100680002D853E854F8558890E94DB282296EEAD48
:10069000FFAD22976083718382839383A7019601C4
:1006A00069857A858B859C850E94AB2A29893A8940
:1006B0004B895C890E94DB282496EEADFFAD249720
:1006C000608371838283938381E06C960FB6F89484
:1006D000DEBF0FBECDBFDF91CF911F910F91FF9075
:1006E000EF90DF90CF90BF90AF909F908F907F90D2
:1006F0006F905F904F90089580E0E7CF80916D09F3
:1007000090916E09891B990B0895AF92BF92CF9279
:10071000DF92EF92FF920F931F93CF93DF936C01C1
:100720007B018B01040F151FEB015E01AE18BF08A2
:10073000C017D10759F06991D601ED91FC91019054
:10074000F081E02DC6011995892B79F7C501DF915C
:10075000CF911F910F91FF90EF90DF90CF90BF90BE
:10076000AF900895FC01538D448D252F30E0842FE8
:1007700090E0821B930B541710F0CF9608950197C9
:100780000895FC01918D828D981761F0A28DAE0FB6
:10079000BF2FB11D5D968C91928D9F5F9F73928F3D
:1007A00090E008958FEF9FEF0895FC01918D828D69
:1007B000981731F0828DE80FF11D858D90E0089536
:1007C0008FEF9FEF0895FC01918D228D892F90E08E
:1007D000805C9F4F821B91098F73992708958AEC43
:1007E00098E00E94E30321E0892B09F420E0822FA6
:1007F0000895FC01A48DA80FB92FB11DA35ABF4FB6
:100800002C91848D90E001968F739927848FA6890F
:10081000B7892C93A089B1898C91837080648C9363
:10082000938D848D981306C00288F389E02D808112
:100830008F7D80830895EF92FF920F931F93CF9344
:10084000DF93EC0181E0888F9B8D8C8D98131AC00B
:10085000E889F989808185FF15C09FB7F894EE89F2
:10086000FF896083E889F98980818370806480834F
:100870009FBF81E090E0DF91CF911F910F91FF909A
:10088000EF900895F62E0B8D10E00F5F1F4F0F7342
:100890001127E02E8C8D8E110CC00FB607FCFACFFD
:1008A000E889F989808185FFF5CFCE010E94F9039F
:1008B000F1CFEB8DEC0FFD2FF11DE35AFF4FF082CE
:1008C0009FB7F8940B8FEA89FB8980818062CFCF34
:1008D000682F8AEC98E00C941B04CF93DF93EC0113
:1008E000888D8823B9F0AA89BB89E889F9898C9118
:1008F00085FD03C0808186FD0DC00FB607FCF7CFD4
:100900008C9185FFF2CF808185FFEDCFCE010E94D3
:10091000F903E9CFDF91CF91089580E090E0892B32
:1009200029F00E94EF0381110E94000080E090E016
:10093000892B49F080E090E0892B29F00E9400008B
:1009400081110E94000080E090E0892B49F080E056
:1009500090E0892B29F00E94000081110E94000084
:1009600080E090E0892B49F080E090E0892B29F02D
:100970000E94000081110C94000008958150823182
:1009800008F05AC0E82FF0E08827E653FB4F8F4F5E
:100990000C949C2BEA04EE04DC04E204E6041C053F
:1009A000F104F704FB040105050509050F0513050E
:1009B0001C0517051D052105809180008F77809308
:1009C00080000895809180008F7DF9CF8091800014
:1009D000877FF5CF84B58F7784BD089584B58F7DEB
:1009E000FBCF8091B0008F778093B0000895809105
:1009F000B0008F7DF9CF809190008F778093900029
:100A00000895809190008F7DF9CF80919000877F2D
:100A1000F5CF8091A0008F778093A00008958091FA
:100A2000A0008F7DF9CF8091A000877FF5CF8091C6
:100A300020018F77809320010895809120018F7D80
:100A4000F9CF80912001877FF5CFCF93DF93282FB7
:100A500030E0F901EE5AFD4F8491F901E45FFD4F5A
:100A6000D491F901EA53FE4FC491CC23A1F0811136
:100A70000E94BE04EC2FF0E0EE0FFF1FE455FE4F86
:100A8000A591B491EC91ED2381E090E009F480E030
:100A9000DF91CF91089580E090E0FACF862F0C94FB
:100AA00025051F93CF93DF93282F30E0F901EE5AED
:100AB000FD4F8491F901E45FFD4FD491F901EA53B0
:100AC000FE4FC491CC23A9F0162F81110E94BE04C1
:100AD000EC2FF0E0EE0FFF1FEE56FE4FA591B49104
:100AE0008FB7F894EC91111108C0D095DE23DC93F8
:100AF0008FBFDF91CF911F910895DE2BF8CF862F06
:100B0000642F0C945105CF93DF9390E0FC01E45FD8
:100B1000FD4F24918A539E4FFC0184918823C9F094
:100B200090E0880F991FFC01E858FE4FA591B49101
:100B3000FC01EE56FE4FC591D49161110DC09FB7D7
:100B4000F8948C91209582238C9388812823288384
:100B50009FBFDF91CF910895623051F49FB7F89411
:100B60003C91822F809583238C93E8812E2BEFCFAD
:100B70008FB7F894EC912E2B2C938FBFEACF862F52
:100B8000642F0C9483056F927F928F929F92AF9205
:100B9000BF92CF92DF92EF92FF920F931F93CF936A
:100BA000DF9381E08093E7098FB7F8944091C608FE
:100BB0005091C7086091C8087091C9088FBF809193
:100BC000D7099091D809A091D909B091DA09481BA9
:100BD000590B6A0B7B0B8091E3099091E409B0E01B
:100BE000A0E084179507A607B70708F01DC1C0E06D
:100BF0008091E109C81760F4E091DD09F091DE0908
:100C0000EC0FF11D62E080810E948305CF5FF0CF81
:100C1000712C812C912C540183948091E2097816D7
:100C200008F05FC0072D10E0E091DF09F091E009C6
:100C3000E00FF11F61E080810E948305E091DF09F0
:100C4000F091E009E00FF11F60E080810E94510502
:100C5000D501C401072C04C0880F991FAA1FBB1F10
:100C60000A94D2F76C017C01E094F094612C80919D
:100C7000E1096816F8F4C62DD0E0E091DD09F091A5
:100C8000DE09EC0FFD1F80810E9425052496CC0F04
:100C9000DD1FC558D64F892B41F4888199818C2955
:100CA0009D29998388836394E2CF888199818E21DD
:100CB0009F21F7CFE091DF09F091E009E00FF11FEC
:100CC00061E080810E9451058091DF099091E009E7
:100CD000080F191F60E0F80180810E94830573945A
:100CE0009CCFCBE7D9E0FE018FEF9FEF278D30A19E
:100CF000232B21F4148E968F858F11A2369629E02E
:100D0000E73BF20799F7F12C96E0D92E8091E109A3
:100D1000F81608F050C0E12C0F2D10E0000F111F45
:100D20000D57164F2091E209E21608F042C0F80173
:100D3000608171810E2C02C0769567950A94E2F766
:100D4000F29E900111242E0D311DEBE7F9E080E0B9
:100D5000458D568D2417350709F46AC08F5F369686
:100D60008A30B1F760FF23C0EBE7F9E090E080E064
:100D7000448D411117C0E091DB09F091DC09E20FCD
:100D8000F31F4081D89EF001D99EF00D1124E55843
:100D9000F64F448F368F258F10A2178E61E00E9488
:100DA000A50105C0019636968A30910509F7E394AE
:100DB000B9CFF394ABCF80E099A19111892F2696FA
:100DC000F9E0C73BDF07C1F79FB7F8944091C60829
:100DD0005091C7086091C8087091C9089FBF40939F
:100DE000D7095093D8096093D9097093DA098823F9
:100DF000D9F080919C098823B9F080919A0990914B
:100E00009B09019789F480919709DF91CF911F91F8
:100E10000F91FF90EF90DF90CF90BF90AF909F9099
:100E20008F907F906F9008951092E70980E0EDCF4A
:100E30006170B5CF863308F0865320917B00982FE0
:100E40009870277F922B90937B00877080648093AB
:100E50007C0080917A00806480937A0080917A008F
:100E600086FDFCCF809178009091790008953FB77E
:100E7000F8948091310890913208A0913308B09194
:100E8000340826B5A89B05C02F3F19F00196A11D77
:100E9000B11D3FBFBA2FA92F982F8827BC01CD01C4
:100EA000620F711D811D911D42E0660F771F881F23
:100EB000991F4A95D1F708958F929F92AF92BF9252
:100EC000CF92DF92EF92FF924B015C010E943707B5
:100ED0006B017C010E9437076C197D098E099F09FF
:100EE000683E734081059105A8F321E0821A9108BC
:100EF000A108B10888EEC80E83E0D81EE11CF11CE1
:100F000081149104A104B10429F7FF90EF90DF90C0
:100F1000CF90BF90AF909F908F90089520910D0833
:100F2000260F3327331F21323105ECF420917D0841
:100F3000FC0190E080E0243069F082E00895A09107
:100F40000D082191AC014351584FA40FB52FB11D8D
:100F50002C930196861798F380910D08680F609383
:100F60000D0880E0089581E0089510927D0881E0E9
:100F700080937C081092770861E084E10E9451051B
:100F800061E085E10E945105E9EBF0E080818E7F10
:100F9000808380818D7F808388E48093B80085E49E
:100FA0008093BC000895CF93DF9391E09093EC077A
:100FB0008823B9F0C091B800D091BA008091BC00EC
:100FC0008A7B8093BC0060E084E10E94510560E070
:100FD00085E10E9451050E94B507D093BA00C093E5
:100FE000B800DF91CF9108950895E0916E09809146
:100FF0006D09E81730F4F0E0ED57F74F808190E08D
:1010000008958FEF9FEF089590916E0980916D097B
:101010002FEF3FEF981748F4E92FF0E0ED57F74F27
:10102000208130E09F5F90936E09C9010895CF92AF
:10103000DF92EF92FF920F931F93CF93DF937C0188
:10104000CB018A0120913508222389F0EB016B0145
:10105000C40ED51ECC15DD0569F06991D701ED915F
:10106000FC910190F081E02DC7011995F3CF642F19
:101070000E948E07C801DF91CF911F910F91FF90C1
:10108000EF90DF90CF900895CF93DF931F92CDB76D
:10109000DEB76983209135082223F9F020916B098E
:1010A000203258F021E030E0FC013383228390E0CD
:1010B00080E00F90DF91CF91089580916C09E82F27
:1010C000F0E0EA5CF74F998190838F5F80936C0921
:1010D00080936B0981E090E0ECCF61E0CE01019656
:1010E0000E948E07F7CF90E080E008958F929F9244
:1010F000AF92BF92CF92DF92EF92FF920F931F9326
:10110000CF93DF93EC018A819B818230910509F4B2
:1011100053C03CF40197D9F1E12CF12C00E010E030
:101120003CC08330910509F49EC00497A9F78881DB
:1011300099818130910509F4EFC0029769F708851C
:101140001985C8010E9476086B017C010A84DB8541
:10115000C02D20E030E0A9010E94A62A181654F004
:10116000CE010E94760820E030E0A9010E94A62A64
:10117000181694F6CE010E9476089B01AC01C701B7
:10118000B6010E94A62A18160CF0BDCFECC0EC8167
:10119000FD81E088F18802891389B701C801DF91D8
:1011A000CF911F910F91FF90EF90DF90CF90BF9064
:1011B000AF909F908F90089588819981813091059B
:1011C00039F1029709F0A8CFEC81FD81A088B188A0
:1011D000C288D388EE81FF81E088F1880289138973
:1011E00020E030E0A901B501C6010E94A62A181628
:1011F00054F020E030E0A901B701C8010E94A62AFE
:1012000018160CF089CF9501A601B701C80124C0BA
:10121000EC81FD81A088B188C288D38820E030E0CD
:10122000A901B501C6010E94A62A18160CF074CFB8
:10123000EE81FF81E088F1880289138920E030E0A7
:10124000A901B701C8010E94A62A18160CF064CFA4
:101250009701A801B501C6010E94472987FF9DCFCC
:10126000750186019ACF888199818130910551F16C
:10127000029709F051CFEC81FD81E088F188028965
:1012800013890884D985C02D20E030E0A901B70179
:10129000C8010E94A62A18165CF0CE010E947608AA
:1012A00020E030E0A9010E94A62A18160CF034CFE5
:1012B000CE010E9476089701A8010E94472987FF66
:1012C00022CF6BCFEC81FD81E088F1880289138900
:1012D00020E030E0A901B701C8010E94A62A181633
:1012E0000CF01ACF0884D985C02DCE010E94760853
:1012F0004B015C0120E030E0A9010E94A62A1816EB
:101300000CF00ACF9701A801C501B4010E94A62ADA
:1013100018160CF0F8CE41CF08851985C8010E9437
:1013200076086B017C0120E030E0A9010E94A62A2A
:1013300018160CF0F1CE0A84DB85C02DCE010E9478
:1013400076084B015C0120E030E0A9010E94A62A4A
:1013500018160CF0E1CEA5019401C701B6010E9458
:10136000472987FFD0CEE801CECEFC0141155105BB
:1013700089F06115710571F081E090E091838083BF
:1013800083E090E0938382835583448371876087F1
:1013900081E0089580E00895FC011182108213829B
:1013A0001282158214821782168211861086138685
:1013B00012860895DC01ED91FC913097A1F0A08197
:1013C000B1818D919C9111976817790741F412961C
:1013D0002D933D934D935C93159781E00895028082
:1013E000F381E02DEACF80E008950F931F93CF9310
:1013F000DF93EC018B0184E090E00E94B82B009712
:10140000D1F0FC011183008313821282E881F981FB
:10141000309749F49983888381E0DF91CF911F91C0
:101420000F910895F9012281338121153105D1F7FA
:1014300093838283F1CF80E0F0CF0F931F93CF93FC
:10144000DF93EC018B0184E090E00E94B82B0097C1
:10145000D1F0FC011183008313821282EE81FF819F
:10146000309749F49F838E8381E0DF91CF911F9164
:101470000F910895F9012281338121153105D1F7AA
:1014800093838283F1CF80E0F0CF8F929F92AF92CF
:10149000BF92CF92DF92EF92FF920F931F93CF9361
:1014A000DF93EC014A015B01680179018CE090E077
:1014B0000E94B82BFC0180E0309799F011821082D5
:1014C00082829382A482B582C682D782E086F18628
:1014D00013861286A881B981109789F4F983E8836D
:1014E00081E0DF91CF911F910F91FF90EF90DF90FE
:1014F000CF90BF90AF909F908F900895DC011A9687
:101500008D919C911B970097C9F7B183A0831B967F
:10151000FC93EE931A97E4CF0F931F93CF93DF932F
:10152000EC018B0184E090E00E94B82B0097D1F091
:10153000FC011183008313821282EC81FD813097BC
:1015400049F49D838C8381E0DF91CF911F910F91AE
:101550000895F9012281338121153105D1F7938353
:101560008283F1CF80E0F0CF0F931F93CF93DF936F
:10157000EC018B0184E090E00E94B82B0097D1F041
:10158000FC011183008313821282E881F981309774
:1015900049F49983888381E0DF91CF911F910F9166
:1015A0000895F9012281338121153105D1F7938303
:1015B0008283F1CF80E0F0CFFC0101900020E9F7B9
:1015C0003197AF01481B590BBC018AEC98E00C9491
:1015D00085038BE492E00C94DC0A8F929F92AF9289
:1015E000BF920F931F93CF93DF93CDB7DEB7A19731
:1015F0000FB6F894DEBF0FBECDBF19A2423008F47B
:101600004AE08E010F5D1F4F842E912CB12CA12C2E
:10161000A50194010E94A928E62FB901CA01EA3068
:10162000F4F4E05DD801EE938D01232B242B252BC0
:1016300079F790E080E0109719F0CD010E94DC0A64
:10164000A1960FB6F894DEBF0FBECDBFDF91CF914C
:101650001F910F91BF90AF909F908F900895E95C7C
:10166000E1CFCF93DF930E94DC0AEC010E94E90AEC
:101670008C0F9D1FDF91CF9108950C94DC0A4F923F
:101680005F926F927F928F929F92AF92BF92CF9212
:10169000DF92EF92FF920F931F93CF936B017C0128
:1016A000742EAC019B010E945E2B882399F08EE47E
:1016B00092E0CF911F910F91FF90EF90DF90CF902C
:1016C000BF90AF909F908F907F906F905F904F9062
:1016D0000C94DC0A46015701E894B7F82FEF3FEF6E
:1016E0004FE75FE7C501B4010E945E2B81110DC079
:1016F0002FEF3FEF4FE75FE7C501B4010E94472995
:1017000018161CF482E592E0D4CF2FEF3FEF4FE79D
:101710005FE4C701B6010E94A62A18161CF486E5EC
:1017200092E0C7CF2FEF3FEF4FE75FECC701B60165
:101730000E94472987FDF3CF20E030E0A901C701CF
:10174000B6010E94472910E000E087FF08C08DE243
:101750000E9468048C01F7FAF094F7F8F094C0E066
:1017600060E070E080E09FE37C1641F020E030E034
:1017700040E251E40E944C29CF5FF6CFA7019601C9
:101780000E94DB282B013C010E94C5294B015C0112
:101790004AE00E94ED0A7C01E00EF11ECC23B1F17B
:1017A000C501B4010E94F4299B01AC01C301B2013F
:1017B0000E94DA284B015C018EE20E946804E80E68
:1017C000F91EC15018F120E030E040E251E4C501BB
:1017D000B4010E94AB2A2B013C010E94C5294B0198
:1017E000B12CA12C4AE0C501B4010E94ED0AE80E1B
:1017F000F91EC501B4010E94F4299B01AC01C3018B
:10180000B2010E94DA284B015C01DBCFC701CF9106
:101810001F910F91FF90EF90DF90CF90BF90AF900E
:101820009F908F907F906F905F904F900895CF938F
:10183000DF9342E00E943F0BEC010E94E90A8C0F0B
:101840009D1FDF91CF91089542E00C943F0BCF9202
:10185000DF92EF92FF92CF93DF936C01990FEE0826
:10186000FF08F7FE17C08DE20E946804EC016627AE
:101870007727CB016C197D098E099F094AE00E94E8
:10188000ED0A8C0F9D1FDF91CF91FF90EF90DF90BD
:10189000CF9008954AE0C701B601DF91CF91FF9044
:1018A000EF90DF90CF900C94ED0ACF93DF93EB0194
:1018B0006A857B856115710511F00E94550CCE017A
:1018C000DF91CF910C94542C85ED8093BC008091D6
:1018D0007F0890918008A0918108B09182080796B6
:1018E000A11DB11D23E0B695A795979587952A95DB
:1018F000D1F72091BC0024FD03C010927D0808950B
:1019000040917F0850918008609181087091820811
:10191000452B462B472B69F30097A105B10541F0F4
:1019200025E32A95F1F700000197A109B109E1CF5C
:1019300080917E080C94D3074F925F926F927F92B2
:101940008F929F92AF92BF92CF92DF92EF92FF92CF
:101950000F931F93CF93DF9300D01F921F92CDB7A9
:10196000DEB78D830AE010E0F12CE12C8D810E941E
:101970001A07E80EF91E6AE070E080E090E00E942D
:101980005C070150110991F7C7016AE070E00E94FD
:10199000882B072E000C880B990B0E94F6292B012F
:1019A0003C010E94370769837A838B839C83C12C17
:1019B000D12C7601812C912C54010E94370729816A
:1019C0003A814B815C81621B730B840B950B6032F7
:1019D0007E4481059105F8F48D810E941A07BC01AF
:1019E000990F880B990B0E94F6299B01AC01C3014A
:1019F000B2010E94DA280E94BE299B01AC010E941C
:101A0000782B860E971EA81EB91E4FEFC41AD40A53
:101A1000E40AF40AD2CFC501B401A70196010E94DD
:101A2000A928CA01B9010E94F4290E941E2B20E0B6
:101A300030EC4FE754E40E944C2920E030E040EACB
:101A400050E40E94AB2A22E03BE247E85DE30E94BB
:101A50004C290F900F900F900F900F90DF91CF9126
:101A60001F910F91FF90EF90DF90CF90BF90AF90BC
:101A70009F908F907F906F905F904F9008952F92DE
:101A80003F924F925F926F927F928F929F92AF920E
:101A9000BF92CF92DF92EF92FF920F931F93CF935B
:101AA000DF93CDB7DEB768970FB6F894DEBF0FBEF1
:101AB000CDBF60E082E40E94830560E083E40E9481
:101AC000830561E08DE00E94830561E08CE00E9467
:101AD000830561E08BE00E94830561E08AE00E945B
:101AE000830561E089E00E94830561E088E00E944F
:101AF000830561E087E00E94830561E086E00E9443
:101B0000830561E082E00E94830561E083E00E943A
:101B1000830561E085E00E948305E091DA08F09199
:101B2000DB0882E08083E091D608F091D70810822C
:101B3000E091D808F091D9088FEC80831092E208E8
:101B4000E091DE08F091DF0886E08083E091DC0818
:101B5000F091DD08808180618083E091DC08F09164
:101B6000DD08808188608083E091DC08F091DD08E9
:101B7000808180688083E091DC08F091DD088081BD
:101B80008F7D808360E08DE00E94510560E08CE0F5
:101B90000E94510560E08BE00E94510560E08AE000
:101BA0000E94510560E089E00E94510560E088E0F4
:101BB0000E94510560E087E00E94510560E086E0E8
:101BC0000E94510568EC70E080E090E00E945C07A4
:101BD00080E00E941A07BC01990F880B990B6115D0
:101BE00071058105910511F00E946E288AE592E049
:101BF0000E94310B80E892E00E94310B88E090E077
:101C00000E94B82B8C01EE24E394F12CD801ED92C4
:101C1000FC92F801128213821482158217821682B6
:101C2000A090000AB090010AB501C8010E941D0AE7
:101C30008091FE099091FF099C878B87BC01C801A8
:101C40000E941D0AA091FC09B091FD09BE87AD87D5
:101C5000BD01C8010E941D0AE091020AF091030A29
:101C6000F88FEF8BB801CF010E94B40A88E090E0B2
:101C70000E94B82B8C0182E090E0D8018D939C9358
:101C8000F8011282138214821582178216828091C3
:101C9000FA099091FB0998878F83BC01C8010E94C3
:101CA0001D0AA091F809B091F909BA87A987BD0169
:101CB000C8010E941D0AB8018F89988D0E94B40A3C
:101CC00088E090E00E94B82B8C0183E090E0F8015E
:101CD0009183808312821382148215821782168266
:101CE000E091F609F091F709FC83EB83BF01C8018D
:101CF0000E941D0A8091F4099091F5099E838D83BD
:101D0000BC01C8010E941D0AB8018F89988D0E94EC
:101D1000B40A88E090E00E94B82B8C0184E090E047
:101D2000D8018D939C93F80112821382148215823C
:101D3000178216828091F2099091F3099A83898320
:101D4000BC01C8010E941D0A4090F0095090F109A1
:101D5000B201C8010E941D0A2090EE093090EF09DF
:101D6000B101C8010E941D0AB8018F89988D0E9497
:101D7000B40A8AE090E00E94B82B8C01DC01ED925D
:101D8000FC92FC0112821382148215821782168241
:101D900082E090E00E94B82BDC011D921C92F801B9
:101DA000918780878090EC099090ED09B401C8017B
:101DB0000E941D0A8091EA099091EB09988B8F8708
:101DC000BC01C8010E941D0A84E090E00E94B82B6B
:101DD0003C01009709F454C0DC0111961C930E934A
:101DE00013961C921E921297F801F681FD8BD80172
:101DF0001796BC91BE8BEF2EFB2EE114F10499F1E6
:101E00000D891E890115110549F1F801C280D380A1
:101E1000C114D10419F1808191819A8B898BD601EB
:101E20000D90BC91A02DBC8BAB8BFC01208131812E
:101E3000428153816D917D918D919C910E944729A2
:101E400087FF0AC0EB89FC89D801ED93FC93E989EF
:101E5000FA89D601ED93FC938601D4CFD70112966F
:101E6000ED90FC90CACFAF89B88D1296ED91FC91A0
:101E70001397309709F008C413967C926E921297CC
:101E80008CE090E00E94B82B8C010E94CC09A11438
:101E9000B104C1F0EF81F8853097A1F081E090E0C6
:101EA000D80111969C938E9382E090E013969C93B8
:101EB0008E9312971596BC92AE9214971796FC9338
:101EC000EE9316978CE090E00E94B82B7C010E9464
:101ED000CC094D815E81B801C7010E94B5098CE033
:101EE00090E00E94B82B6C010E94CC0949815A8174
:101EF000B701C6010E94B50982E090E00E94B82BAC
:101F00003C01FC0111821082B4010E94F50987E0B6
:101F100090E00E94B82BFC0181E090E091838083E7
:101F20001282D482C38276826582BF018F89988DA6
:101F30000E948C0A8CE090E00E94B82B6C010E94F9
:101F4000CC09A201B701C6010E94B50987E090E063
:101F50000E94B82BFC01A2E0B0E0B183A083128202
:101F6000D482C38276826582BC018F89988D0E945B
:101F70008C0A8CE090E00E94B82B6C010E94CC0986
:101F8000A101B701C6010E94B50982E090E00E945C
:101F9000B82B4C01FC01118210826F8578890E9458
:101FA000F50987E090E00E94B82BFC0183E090E007
:101FB000918380831282D482C38296828582BF01FC
:101FC0008F89988D0E948C0A8CE090E00E94B82B3B
:101FD0007C010E94CC094B815C81B801C7010E9441
:101FE000B5098CE090E00E94B82B8C010E94CC09CE
:101FF00049815A81B701C8010E94B50987E090E084
:102000000E94B82BFC0184E090E0918380831282CF
:102010001483038376826582BF018F89988D0E9425
:102020008C0A8CE090E00E94B82B8C010E94CC09B5
:10203000A201B701C8010E94B50987E090E00E94A3
:10204000B82BFC0185E090E0918380831282148399
:10205000038376826582BF018F89988D0E948C0AE6
:102060008CE090E00E94B82B8C010E94CC09A10169
:10207000B701C8010E94B50987E090E00E94B82B23
:10208000FC0186E090E091838083128214830383B5
:1020900096828582BF018F89988D0E948C0A8CE080
:1020A00090E00E94B82B8C010E94CC09A114B104CD
:1020B000D1F089859A85892BB1F0E1E0F0E0D80173
:1020C0001196FC93EE9382E090E013969C938E938E
:1020D00012971596BC92AE921497E985FA851796D9
:1020E000FC93EE9316978CE090E00E94B82B7C0155
:1020F0000E94CC094D815E81B801C7010E94B509DB
:102100008CE090E00E94B82B6C010E94CC094981C0
:102110005A81B701C6010E94B50987E090E00E948C
:10212000B82BFC0187E090E0918380831282D482F7
:10213000C38276826582BF018F89988D0E948C0A46
:102140008CE090E00E94B82B6C010E94CC09A201A7
:10215000B701C6010E94B50987E090E00E94B82B44
:10216000FC0188E090E0918380831282D482C38254
:1021700076826582BF018F89988D0E948C0A8CE0DF
:1021800090E00E94B82B6C010E94CC09A101B7011C
:10219000C6010E94B50987E090E00E94B82BFC01BF
:1021A00089E090E0918380831282D482C3829682F8
:1021B0008582BF018F89988D0E948C0A8CE090E007
:1021C0000E94B82B7C010E94CC094B815C81B80134
:1021D000C7010E94B5098CE090E00E94B82B8C01E9
:1021E0000E94CC0949815A81B701C8010E94B509F2
:1021F00087E090E00E94B82BFC018AE090E0918398
:10220000808312821483038376826582BF018F8963
:10221000988D0E948C0A8CE090E00E94B82B8C0173
:102220000E94CC09A201B701C8010E94B50987E04C
:1022300090E00E94B82BFC018BE090E091838083BA
:1022400012821483038396828582BF018F89988DC1
:102250000E948C0A8CE090E00E94B82B8C010E94B6
:10226000CC09A101B701C8010E94B50987E090E03F
:102270000E94B82BFC018CE090E091838083128255
:102280001483038396828582BF018F89988D0E9473
:102290008C0A8CE090E00E94B82B8C010E94CC0943
:1022A0008B859C85892B89F0AD85BE85109769F05B
:1022B00082E090E0F80191838083938382838B8511
:1022C0009C8595838483B783A6838CE090E00E94ED
:1022D000B82B6C010E94CC094F815885B801C6010A
:1022E0000E94B5098CE090E00E94B82B7C010E940E
:1022F000CC094D815E81B601C7010E94B5098CE011
:1023000090E00E94B82B5C010E94CC0949815A815F
:10231000B701C5010E94B50987E090E00E94B82B83
:10232000FC018DE090E0918380831282B482A382CD
:1023300076826582BF018F89988D0E948C0A8CE01D
:1023400090E00E94B82B5C010E94CC09A201B70169
:10235000C5010E94B50987E090E00E94B82BFC01FE
:102360008EE090E0918380831282B482A382968271
:102370008582BF018F89988D0E948C0A8CE090E045
:102380000E94B82B5C010E94CC09A101B701C501D4
:102390000E94B50987E090E00E94B82BFC018FE015
:1023A00090E0918380831282B482A3829682858298
:1023B000BF018F89988D0E948C0A8CE090E00E946A
:1023C000B82B7C010E94CC094B815C81B601C7010E
:1023D0000E94B5098CE090E00E94B82B6C010E942D
:1023E000CC0949815A81B701C6010E94B50987E02D
:1023F00090E00E94B82BFC0180E190E09183808303
:102400001282D482C38276826582BF018F89988DC1
:102410000E948C0A8CE090E00E94B82B6C010E9414
:10242000CC09A201B701C6010E94B50987E090E07E
:102430000E94B82BFC0181E190E09183808312829D
:10244000D482C38276826582BF018F89988D0E9473
:102450008C0A8CE090E00E94B82B6C010E94CC09A1
:10246000A101B701C6010E94B50987E090E00E9472
:10247000B82BFC0182E190E0918380831282D482A8
:10248000C38296828582BF018F89988D0E948C0AB3
:102490008CE090E00E94B82B7C010E94CC09498519
:1024A0005A85B801C7010E94B5098CE090E00E94EE
:1024B000B82B8C010E94CC094D815E81B701C80107
:1024C0000E94B5098CE090E00E94B82B6C010E943C
:1024D000CC0949815A81B801C6010E94B50987E03B
:1024E00090E00E94B82BFC0183E190E0918380830F
:1024F0001282D482C38296828582BF018F89988D91
:102500000E948C0A8CE090E00E94B82B6C010E9423
:10251000CC09A201B801C6010E94B50987E090E08C
:102520000E94B82BFC0184E190E0918380831282A9
:10253000D482C38296828582BF018F89988D0E9442
:102540008C0A8CE090E00E94B82B6C010E94CC09B0
:10255000A101B801C6010E94B50987E090E00E9480
:10256000B82BFC0185E190E0918380831282D482B4
:10257000C38296828582BF018F89988D0E948C0AC2
:102580008CE090E00E94B82B8C010E94CC094B811A
:102590005C81B701C8010E94B5098CE090E00E94FF
:1025A000B82B7C010E94CC0949815A81B801C7012E
:1025B0000E94B50987E090E00E94B82BFC0186E1FB
:1025C00090E0918380831282F482E3827682658236
:1025D000BF018F89988D0E948C0A8CE090E00E9448
:1025E000B82B7C010E94CC09A201B801C7010E944E
:1025F000B50987E090E00E94B82BFC0187E190E0EC
:10260000918380831282F482E38296828582BF0165
:102610008F89988D0E948C0A8CE090E00E94B82BE4
:102620007C010E94CC09A101B801C7010E94B50933
:1026300087E090E00E94B82BFC0188E190E0918354
:1026400080831282F482E38296828582BF018F8921
:10265000988D68960FB6F894DEBF0FBECDBFDF91A0
:10266000CF911F910F91FF90EF90DF90CF90BF908F
:10267000AF909F908F907F906F905F904F903F9022
:102680002F900C948C0AFC01828193810097D9F7DA
:1026900073826282F5CB1F920F920FB60F921124B4
:1026A0000BB60F922F933F934F935F936F937F934C
:1026B0008F939F93AF93BF93EF93FF938AEC98E030
:1026C0000E94F903FF91EF91BF91AF919F918F917C
:1026D0007F916F915F914F913F912F910F900BBE22
:1026E0000F900FBE0F901F9018951F920F920FB66C
:1026F0000F9211240BB60F922F938F939F93EF930A
:10270000FF93E091DA08F091DB088081E091E00826
:10271000F091E10882FD1DC090818091E3088F5FF8
:102720008F732091E408821741F0E091E308F0E014
:10273000E653F74F958F8093E308FF91EF919F91B8
:102740008F912F910F900BBE0F900FBE0F901F9087
:1027500018958081F2CF1F920F920FB60F9211241D
:102760002F933F938F939F93AF93BF938091C6080E
:102770009091C708A091C808B091C908309130085D
:1027800023E0230F2D3758F50196A11DB11D20938D
:1027900030088093C6089093C708A093C808B093E8
:1027A000C9088091310890913208A0913308B09106
:1027B00034080196A11DB11D809331089093320811
:1027C000A0933308B0933408BF91AF919F918F913C
:1027D0003F912F910F900FBE0F901F90189526E8F4
:1027E000230F0296A11DB11DD2CF1F920F920FB6DB
:1027F0000F9211240BB60F922F933F934F935F9339
:102800006F937F938F939F93AF93BF93EF93FF93B8
:102810008091B900887F803609F44DC008F040C02F
:10282000883209F4A9C028F5803109F49DC0C8F4A4
:10283000882309F4FBC0883009F496C0FF91EF911A
:10284000BF91AF919F918F917F916F915F914F91C8
:102850003F912F910F900BBE0F900FBE0F901F90C6
:102860001895883109F488C0803241F780937B083D
:1028700014C0803409F49DC040F48033B9F3883328
:10288000E9F680937B0885ECB0C0803509F485C0FB
:10289000883509F496C0883489F60E94640CCECF3E
:1028A000883909F48CC038F5883729F050F4883617
:1028B00011F0803719F683E080937D0810922F087D
:1028C00057C0883809F47BC0803919F0803809F086
:1028D000B5CF80912F08803208F071C0E0912F08A9
:1028E00081E08E0F80932F088091BB00F0E0E15FC4
:1028F000F74F80833DC0803B39F0E0F4803A09F423
:1029000079C0883A09F09ACF84E080937D081092CC
:102910000E0810920D08E0916909F0916A09199565
:1029200080910D0881110FC081E080930D081092F5
:10293000ED0709C0803C09F4A6CF883C09F4A3CF79
:10294000883B09F07BCFE0910E0881E08E0F8093E9
:102950000E08F0E0E351F84F80818093BB00909126
:102960000E0880910D0829C0809178088093BB00E3
:1029700085EC8093BC0062CF90917A0880917908B1
:10298000981758F5E0917A0881E08E0F80937A08C5
:10299000F0E0E95AF74F8081E9CFE0917A0881E0D1
:1029A0008E0F80937A088091BB00F0E0E95AF74FD0
:1029B000808390917A08809179089817C8F285E809
:1029C000D8CFE0917A0881E08E0F80937A088091C9
:1029D000BB00F0E0E95AF74F808380917C088111B9
:1029E0005CCF81E08093770884EA8093BC001092EA
:1029F0007D0824CF85EC8093BC0010927D088091E7
:102A00002F08803230F4E0912F08F0E0E15FF74FBB
:102A1000108260912F0870E0E0916709F0916809D9
:102A20008FE098E0199510922F0808CF10927B083C
:102A300034CF4F925F926F927F928F929F92AF921C
:102A4000BF92CF92DF92EF92FF921092CD08109238
:102A5000CC0888EE93E0A0E0B0E08093CE0890939D
:102A6000CF08A093D008B093D10821E232E0309390
:102A7000CB082093CA0825EC30E03093D708209388
:102A8000D60824EC30E03093D9082093D80820EC05
:102A900030E03093DB082093DA0821EC30E030930B
:102AA000DD082093DC0822EC30E03093DF0820932F
:102AB000DE0826EC30E03093E1082093E008109225
:102AC000E3081092E4081092E5081092E6081092CC
:102AD0007209109271098093730990937409A093FD
:102AE0007509B093760983E392E09093700980931F
:102AF0006F0910926E0910926D0910926C09109274
:102B00006B090E94B50780E891E090936A09809371
:102B1000690981E891E0909368098093670986E0EC
:102B200090E00E94B82BFC01118210821382128265
:102B3000158214829093030A8093020A84E190E044
:102B40000E94B82BFC01C12CD12C80EAE82E80E435
:102B5000F82EC082D182E282F38280E090E0A0EC85
:102B6000B0E484839583A683B783412C512C98E8E5
:102B7000692E91E4792E4086518662867386812C77
:102B8000912C20E9A22E21E4B22E84869586A68679
:102B9000B786108A118A128A138AF093010AE09389
:102BA000000A84E190E00E94B82BFC01408251822F
:102BB0006282738284829582A682B78280E090E0EE
:102BC000A8EBB1E480879187A287B38780E090E08B
:102BD000A0ECB1E484879587A687B787108A118A0D
:102BE000128A138AF093FF09E093FE0984E190E0D2
:102BF0000E94B82BFC01812C912C30EAA32E30ECE2
:102C0000B32E80829182A282B382148215821682B0
:102C10001782C086D186E286F38680E090E0A0EC41
:102C2000B0E484879587A687B787108A118A128AAD
:102C3000138AF093FD09E093FC0984E190E00E947F
:102C4000B82BFC0180829182A282B3821482158209
:102C500016821782412C512C48EC642E42E4742ECB
:102C60004086518662867386C12CD12C5AECE52EA3
:102C700052E4F52EC486D586E686F786108A118A38
:102C8000128A138A9093FB098093FA0984E190E0F9
:102C90000E94B82BFC014082518262827382C482FE
:102CA000D582E682F78280E090E0A8E4B3E48087F2
:102CB0009187A287B38780E090E0A9E4B3E484879A
:102CC0009587A687B787108A118A128A138AF0938C
:102CD000F909E093F80984E190E00E94B82BFC0127
:102CE00080E090E0A0E2B1EC80839183A283B38383
:102CF00084829582A682B7821086118612861386F8
:102D0000C12CD12C60E8E62E6FE3F62EC486D58662
:102D1000E686F786108A118A128A138AF093F709D9
:102D2000E093F60984E190E00E94B82BFC01108248
:102D3000118212821382C482D582E682F782812CAC
:102D4000912C70E2A72E71E4B72E80869186A28620
:102D5000B38684869586A686B786108A118A128ADB
:102D6000138A9093F5098093F40984E190E00E941E
:102D7000B82BFC01412C512CA0EE6A2EA0E47A2E37
:102D8000408251826282738280E090E0A0E0B1E4F0
:102D900084839583A683B78380869186A286B38633
:102DA00080E090E0A0E3B1E484879587A687B787A9
:102DB000108A118A128A138AF093F309E093F209B8
:102DC00084E190E00E94B82BFC01108211821282F3
:102DD0001382C482D582E682F7824086518662865B
:102DE000738680E090E0A0E0B1E484879587A687B1
:102DF000B787108A118A128A138AF093F109E09337
:102E0000F00984E190E00E94B82BFC0180E090E0A2
:102E1000A0E8BFEB80839183A283B38314821582E1
:102E2000168217821086118612861386C486D5866E
:102E3000E686F786108A118A128A138AF093EF09C0
:102E4000E093EE0984E190E00E94B82BFC01C0827F
:102E5000D182E282F382812C912CA12CB0E4BB2E92
:102E600084829582A682B78280869186A286B38666
:102E700080E090E0A0E4B0E484879587A687B787D8
:102E8000108A118A128A138AF093ED09E093EC09F3
:102E900084E190E00E94B82BFC0110821182128222
:102EA0001382C482D582E682F782C086D186E2860A
:102EB000F38684869586A686B786108A118A128A3A
:102EC000138A9093EB098093EA0910927D0910927E
:102ED0008109109280091092820985E492E0909312
:102EE0007C0980937B09E7E9F9E010821482138260
:102EF0001582369699E0E33DF907B9F783E092E051
:102F00009093DE098093DD0980E092E09093E009E0
:102F10008093DF0984E08093E10983E08093E209F4
:102F200087E092E09093DC098093DB098AE090E0EF
:102F30009093E4098093E30984EF91E09093E6098C
:102F40008093E5091092E9091092E8091092D709D7
:102F50001092D8091092D9091092DA091092E70953
:102F6000FF90EF90DF90CF90BF90AF909F908F90A9
:102F70007F906F905F904F900895CF93DF93CDB780
:102F8000DEB7CB54D1090FB6F894DEBF0FBECDBF6C
:102F9000789484B5826084BD84B5816084BD85B534
:102FA000826085BD85B5816085BD80916E00816040
:102FB00080936E00109281008091810082608093E6
:102FC00081008091810081608093810080918000E8
:102FD0008160809380008091B10084608093B10013
:102FE0008091B00081608093B000809191008260F8
:102FF00080939100809191008160809391008091F5
:1030000090008160809390008091A1008260809305
:10301000A1008091A10081608093A1008091A00017
:1030200081608093A00080912101826080932101C2
:103030008091210181608093210180912001816034
:103040008093200180917A00846080937A0080913F
:103050007A00826080937A0080917A008160809308
:103060007A0080917A00806880937A001092C10083
:103070000E943F0D9E01205F3F4F3B8F2A8FCE0164
:1030800044969D8F8C8FDE011896BF8FAE8F81E0A6
:103090008093350888E68093560810926C09109248
:1030A0006B0960E08FE699E00E94440810916B097B
:1030B000113208F0E2C00E9437076B017C01809159
:1030C0007D0881116BC082E080937D0881E0809350
:1030D0007C088FEF80937B0810927A081093790810
:1030E000E6E3F8E0A7E5B8E080E018139EC0109290
:1030F000780880917808806D8093780880917708AF
:10310000813009F096C0109277080E9437076B0152
:103110007C01809178088093BB0080917F0890911A
:103120008008A0918108B0918208892B8A2B8B2B73
:10313000A1F00E94370700917F081091800820912C
:103140008108309182086C197D098E099F09061744
:1031500017072807390708F442C08091BC0083FD97
:10316000D8CF85EC8093BC000E9437076B017C01AF
:1031700080917D08823009F45EC080917B0810E068
:103180008F3F91F180917B0812E0803269F180914C
:103190007B0813E0803341F114E026C080917F0862
:1031A00090918008A0918108B0918208892B8A2B88
:1031B0008B2B09F484CF0E94370780907F08909072
:1031C0008008A0908108B09082086C197D098E0952
:1031D0009F0986169706A806B90608F070CF809159
:1031E0007E080E94D30715E010926C0910926B09BB
:1031F00010923508112309F442C01092A70880915B
:10320000A708882311F40C94CF278BE597E00E9440
:10321000310B8AE897E00E94310B0E94E90A68EEC0
:1032200073E080E090E00C94802791919D938F5FF4
:103230005CCF85EE97CF80917F0890918008A09118
:103240008108B0918208892B8A2B8B2B09F490CFAF
:103250000E94370700917F08109180082091810813
:10326000309182086C197D098E099F09061717078E
:103270002807390708F07CCFB2CF11E0B5CF81E045
:103280008093A7080E9437076B017C0180917D081D
:10329000811164C081E080937D0880937C089FEF5A
:1032A00090937B0810927A0896E090937908809327
:1032B000780880917808806D8093780880917708ED
:1032C000813009F092C3109277080E9437076B0192
:1032D0007C01809178088093BB0080917F08909159
:1032E0008008A0918108B0918208892B8A2B8B2BB2
:1032F000A1F00E94370780907F0890908008A090EE
:103300008108B09082086C197D098E099F09861684
:103310009706A806B90608F442C08091BC0083FD58
:10332000D8CF85EC8093BC000E9437076B017C01ED
:1033300080917D08813009F45AC380917A088730E2
:1033400008F077C380917A08A7E5B8E0E3E8F8E0F1
:10335000181749F19D9191931F5FFACF80917F08D3
:1033600090918008A0918108B0918208892B8A2BC6
:103370008B2B09F48BCF0E94370780907F089090A9
:103380008008A0908108B09082086C197D098E0990
:103390009F0986169706A806B90608F077CF809190
:1033A0007E080E94D30710926E0910936D091730A2
:1033B00008F425CF8FE699E00E940408B82E829584
:1033C00087701AE09B2D9F70792E819F700C1124BD
:1033D0008FE699E00E940408982F92959F708F7055
:1033E000C82E919FC00C11248FE699E00E9404081A
:1033F000982F92959370082F0F70919F000D1124B4
:103400008FE699E00E940408982F92959F708F7024
:10341000919F800D11248C838FE699E00E9404080F
:10342000982F92959F708F70D82E919FD00C112459
:103430008FE699E00E940408982F92959F708F70F4
:10344000E82E919FE00C11248FE699E00E94040879
:10345000982F92959F708F70825EF82E919FF00C3E
:103460001124B7FCCCCE64EF71E080E090E00E94C4
:103470005C0782E40E941A07BC01990F880B990B24
:103480000E94F62920E030E040EA50E40E94AB2A96
:1034900020E030E040E85AE30E94AB2A2CE83EE20C
:1034A0004AEB5DE30E944C296093C2087093C30805
:1034B0008093C4089093C50883E40E941A07BC0156
:1034C000990F880B990B0E94F62920E030E040EA22
:1034D00050E40E94AB2A20E030E040E85AE30E942A
:1034E000AB2A2CE83EE24AEB5DE30E944C29609354
:1034F000BE087093BF088093C0089093C10886ED02
:1035000092E00E943D0B8090BA089090BB08A0907A
:10351000BC08B090BD08C501B4016F5F7F4F8F4FED
:103520009F4F97FF09C08DE20E946804C501B40156
:1035300060957095809590954AE00E94ED0A8FE61F
:1035400096E00E94310B8DE492E00E94310B81EFF6
:1035500092E00E94310B87E193E00E943D0B10E066
:10356000C8010E94270C8AE30E9468048C2D90E019
:103570000E94270C8AE30E946804872D90E00E9435
:10358000270C83E293E00E943D0B8D2D90E00E947A
:10359000270C8FE20E9468048E2D90E00E94270C79
:1035A0008FE20E9468048F2D90E08E54984F0E9405
:1035B000270C0E94E90A8DE492E00E94310B85E31A
:1035C00093E00E94310B8EE593E00E943D0B6091E9
:1035D000C2087091C3088091C4089091C5080E94E8
:1035E000240C8AE693E00E943D0B83E793E00E945F
:1035F0003D0B6091BE087091BF088091C00890910A
:10360000C1080E94240C81E893E00E94310BC09015
:10361000C208D090C308E090C408F090C50820E02C
:1036200030E040E251E4C701B6010E94A62A87FDBE
:1036300020C020E030E040E251E46091BE0870918B
:10364000BF088091C0089091C1080E94A62A87FDFA
:1036500010C060E083E00E94510561E082E00E94BA
:1036600051051092A3081092A4081092A508109278
:10367000A6088090BE089090BF08A090C008B090A7
:10368000C108A5019401C701B6010E94472987FF1F
:103690001EC020E030E040E85FE3C701B6010E94B1
:1036A000A62A1816A4F48091A3089091A408A091CA
:1036B000A508B091A608892B8A2B8B2B41F460E0DA
:1036C00083E00E94510561E082E00E945105A5015E
:1036D0009401C701B6010E94A62A18160CF0ABC1CE
:1036E00020E030E040E85FE3C501B4010E94A62A73
:1036F00018160CF0A0C18091A3089091A408A09185
:10370000A508B091A608892B8A2B8B2BA1F461E028
:1037100083E00E94510560E082E00E94510581E053
:1037200090E0A0E0B0E08093A3089093A408A09359
:10373000A508B093A60820E030E040E85FE3C701A9
:10374000B6010E94472987FDA0C120E030E040E893
:103750005FE3C501B4010E94472987FF10C060E004
:1037600083E00E94510561E082E00E9451051092C1
:10377000A3081092A4081092A5081092A6088091A0
:10378000A3089091A408A091A508B091A608892B40
:103790008A2B8B2BA1F488E893E00E94310B809157
:1037A000C2089091C308A091C408B091C508809345
:1037B000AC089093AD08A093AE08B093AF08809189
:1037C000A3089091A408A091A508B091A60801971C
:1037D000A105B105A1F482EA93E00E94310B80912A
:1037E000BE089091BF08A091C008B091C108809315
:1037F000AC089093AD08A093AE08B093AF08C0900A
:10380000AC08D090AD08E090AE08F090AF0820E092
:1038100030E040E85FE3C701B6010E94A62A18160F
:1038200024F461E085E00E94510520E030E040E8AA
:103830005FE3C701B6010E94472987FF04C060E02B
:1038400085E00E94510560ED77E080E090E00E9405
:103850005C078DE492E00E94310B64EF71E080E040
:1038600090E00E945C078CEB93E00E94310B8DE2AC
:1038700096E00E943D0B8BE390E00E949C0C20E0C0
:1038800030E0A9010E944729811124C08091BA0823
:103890009091BB08A091BC08B091BD08892B8A2BE0
:1038A0008B2B61F481E090E0A0E0B0E08093B6085B
:1038B0009093B708A093B808B093B9081092B208D3
:1038C0001092B3081092B4081092B50882EE93E0FB
:1038D0000E94310B8BE390E00E949C0C20E030E0D2
:1038E000A9010E94A62A181684F480E090E0A0E8BE
:1038F000BFE38093B2089093B308A093B408B09349
:10390000B50885EE93E00E94310B20E030E0A9017C
:103910006091B2087091B3088091B4089091B50895
:103920000E944729811127C18091B6089091B7085C
:10393000A091B808B091B908892B8A2B8B2B09F07C
:10394000D4C08091B0089091B108019709F0CDC022
:1039500020E030E040E85FE36091AC087091AD0892
:103960008091AE089091AF080E94A62A18160CF01C
:10397000BCC089EE93E00E94310B83E194E00E9489
:10398000310B86E394E00E94310B8AE794E00E94B9
:10399000310B8DEA94E00E94310B0E94C305E82EA2
:1039A000D12CC12C4AE0F42E93E2E91609F47BC035
:1039B000AAE2EA1609F474C0EA169CF080ED8E0DB6
:1039C0008A3078F48E2D0E946804FC9C9001FD9C46
:1039D000300D11248E2DEE0C990BC0976C01C20E88
:1039E000D31E0E94C305E82EDFCF85EE9BCC8091CD
:1039F0007F0890918008A0918108B0918208892B5E
:103A00008A2B8B2B09F494CC0E94370780907F0877
:103A100090908008A0908108B09082086C197D0970
:103A20008E099F0986169706A806B90608F080CC6D
:103A3000B6CC87E089CC20E030E040E85FE3C70106
:103A4000B6010E94472987FF80CE8091A3089091FC
:103A5000A408A091A508B091A608892B8A2B8B2BCE
:103A6000A1F461E083E00E94510560E082E00E94E1
:103A7000510581E090E0A0E0B0E08093A30890932E
:103A8000A408A093A508B093A60820E030E040E881
:103A90005FE3C501B4010E94472987FF90CE5FCE46
:103AA000D12CC12C9ECFCA94CD2881F481E090E026
:103AB000A0E0B0E08093B6089093B708A093B80850
:103AC000B093B9088DE492E00E94310B20E030E021
:103AD000A9016091B2087091B3088091B4089091E7
:103AE000B5080E944729811146C08091B60890917F
:103AF000B708A091B808B091B9080197A105B10520
:103B0000D1F520E030E040E85FE36091AC087091CF
:103B1000AD088091AE089091AF080E94A62A1816B1
:103B200054F58091B0089091B108029720F588EC87
:103B300094E00E94310B61E08DE00E94510561E04C
:103B40008CE00E94510561E08BE00E94510561E02C
:103B50008AE00E94510561E089E00E94510561E020
:103B600088E00E94510561E087E00E94510561E014
:103B700086E00E9451058DE492E00E94310B68EED0
:103B800073E080E090E00E945C0789E195E00E948C
:103B9000310B8FE395E00E943D0B87E390E00E949C
:103BA0009C0C20E030E046E653E40E94AB2A0E94E1
:103BB000240C80E595E00E943D0B89E595E00E948C
:103BC0003D0B88E390E00E949C0C20E030E046E64C
:103BD00053E40E94AB2A0E94240C8CE695E00E94DC
:103BE000310B83E795E00E943D0B89E390E00E9452
:103BF0009C0C20E030E046E653E40E94AB2A0E9491
:103C0000240C80E595E00E943D0B84E895E00E943D
:103C10003D0B8AE390E00E949C0C20E030E046E6F9
:103C200053E40E94AB2A0E94240C8CE695E00E948B
:103C3000310B64EF71E080E090E00E945C0787E365
:103C400090E00E949C0C6B017C0188E390E00E9454
:103C50009C0C4B015C0120E030E046E653E4C701D8
:103C6000B6010E94AB2A6B017C0120E030E046E601
:103C700053E4C501B4010E94AB2A9B01AC01C7010A
:103C8000B6010E94DB286B017C0189E390E00E9471
:103C90009C0C20E030E046E653E40E94AB2AA701EA
:103CA00096010E94DB286B017C018AE390E00E9470
:103CB0009C0C20E030E046E653E40E94AB2AA701CA
:103CC00096010E94DB286093A8087093A90880934E
:103CD000AA089093AB0887E995E00E943D0B60919C
:103CE000A8087091A9088091AA089091AB080E9439
:103CF000240C8CE695E00E94310B8DE492E00E944A
:103D0000310B68EE73E080E090E00E945C07609108
:103D1000A8087091A9088091AA089091AB080E9408
:103D2000BE294B014090B2085090B3086090B4088F
:103D30007090B508C301B2010E94BE2968A379A39F
:103D40008AA39BA36091AC087091AD088091AE08E6
:103D50009091AF080E94BE296B0120E030E0A901DC
:103D6000C301B2010E944729811136C08091B60873
:103D70009091B708A091B808B091B9080197A10532
:103D8000B10551F58091B0089091B108029720F5E6
:103D90008EEA95E00E94310B60E08DE00E945105B3
:103DA00060E08CE00E94510560E08BE00E945105CC
:103DB00060E08AE00E94510560E089E00E945105C0
:103DC00060E088E00E94510560E087E00E945105B4
:103DD00060E086E00E9451056091B2087091B308DE
:103DE0008091B4089091B5080E94BE296093B608EE
:103DF0007093B7088093B8089093B90884EF95E062
:103E00000E94310B8AE196E00E943D0BC8010E949E
:103E1000270C82E296E00E943D0BC4010E94270C11
:103E20008BE296E00E943D0B88A199A10E94270C8D
:103E300084E396E00E943D0BC6010E94270C0E947D
:103E4000E90A8DE492E00E94310B2090020A309042
:103E5000030AB801110F880B990B0E94F6299B01E8
:103E6000AC0161E070E0C1010E94DA09B401990C73
:103E7000880B990B0E94F6299B01AC0162E070E06F
:103E8000C1010E94DA09A8A1B9A1BD01BB0F880B2D
:103E9000990B0E94F6299B01AC0163E070E0C1011F
:103EA0000E94DA09B601DD0C880B990B0E94F629F5
:103EB0009B01AC0164E070E0C1010E94DA09F101EC
:103EC0000190F081E02DF9A3E8A39F0121153105B0
:103ED000D9F0F901A081B18116960D90BC91A02D69
:103EE000109769F08D919C911197FC01108A118AAD
:103EF000128A138A12960D90BC91A02DF1CFD90190
:103F000012962D913C91E2CFF1010280F381E02DD8
:103F1000F9ABE8AB9F012115310509F4E2C0F901C5
:103F2000A081B18116960D90BC91A02D109769F0DB
:103F30008D919C911197FC01108A118A128A138A23
:103F400012960D90BC91A02DF1CFD90112962D9112
:103F50003C91E1CFC701B6010E94A62A87FD39C076
:103F6000A7019601C301B2010E94A62A18168CF57A
:103F70002CA13DA14EA15FA1C301B2010E94DA288C
:103F80009B01AC0160E070E080E89FE30E944C2957
:103F90004B015C01A3019201C701B6010E94DA281E
:103FA0009B01AC01C501B4010E94AB2A20E030E0C6
:103FB00040E85FE30E94DB28F801608B718B828B05
:103FC000938BE8A5F9A50280F381E02DF9A7E8A776
:103FD00098C0D80118968D909D90AD90BC901B977D
:103FE000A7019601C301B2010E944729181694F057
:103FF000A5019401C701B6010E944729181654F083
:1040000080E090E0A0E8BFE3F801808B918BA28B69
:10401000B38BD7CFD8011C968D919D910D90BC91FB
:10402000A02D8AA79BA7ACA7BDA7A5019401C70196
:10403000B6010E94A62A18163CF52AA53BA54CA558
:104040005DA5C701B6010E9447291816ECF02AA504
:104050003BA54CA55DA5C501B4010E94DA289B01D2
:10406000AC0160E070E080E89FE30E944C292B01E6
:104070003C01A5019401C701B6010E94DA289B0109
:10408000AC01C301B20190CF2AA53BA54CA55DA50B
:10409000C701B6010E94A62A18160CF092CF2AA5D5
:1040A0003BA54CA55DA5C501B4010E94472981111E
:1040B00071C0A5019401C301B2010E944729882360
:1040C00009F468C02CA13DA14EA15FA1C301B201BA
:1040D0005DC0A8A1B9A112960D90BC91A02DB9A365
:1040E000A8A3E8A1F9A1309709F45CC0208131812F
:1040F0003FA72EA7D90116960D90BC91A02DB9A768
:10410000A8A7E8A5F9A5309721F300811181AEA5F4
:10411000BFA51296CD90DD90ED90FC901597D8013B
:104120008D919D910D90BC91A02D8CA39DA3AEA3CC
:10413000BFA3F80144805580668077809C01AD0163
:10414000C701B6010E9447292CA13DA14EA15FA144
:1041500087FF00CFC301B2010E94472981111AC015
:10416000D8011896CD90DD90ED90FC901B97A7019B
:104170009601C301B2010E944729882359F0F80132
:104180002485358546855785C701B6010E94472994
:10419000811136CFD80150961D921D921D921C920E
:1041A00053970FCFF1010481158177247394011582
:1041B000110509F0B2C09E01245F3F4F398F288F4F
:1041C00028A939A92115310509F439C4D9018D90DF
:1041D0009C90F40100851185D8016D917C91611549
:1041E000710519F0C8010E94550CF8011182108266
:1041F000D40116966D907C906114710409F412C27A
:10420000F3010081118120E030E0A901D80150962E
:104210006D917D918D919C9153970E94A62A1816BD
:104220000CF077C1F801C080D180E280F380A70153
:10423000960164817581868197810E944729882330
:1042400059F000E010E09801B701A601D4011896DA
:104250008D919C910E94450AF30100811181D80142
:1042600014962D903D904D905C9017975096CC9061
:1042700050975196DC9051975296EC9052975396E6
:10428000FC905397A201910118966D917D918D91AB
:104290009C911B970E944729811140C1F801F08130
:1042A000F8A3D8011196BC91BCA3F801F281F8A73C
:1042B000D8011396BC91BAA7F801F485FEA7D801DE
:1042C0001D96BC901D971E96AC901E971F961C9134
:1042D00078A16CA198A58AA5272F362F492F582F92
:1042E000BF2F6B2F7B2D8A2D912F0E94472988236A
:1042F00009F493C120E030E040E85FE36C2D7D2DB0
:104300008E2D9F2D0E944729811149C000E010E0A9
:1043100020E83FE3B201A10123C1D801ED90FC9058
:10432000F701838194810097B1F1C580D680C114D3
:10433000D10489F10E9476084B015C0120E030E055
:10434000A9010E94A62A18161CF5D70112967C9284
:10435000D601ED90FC90E114F104E9F0F701C08082
:10436000D180D60150962D913D914D915C915397FE
:10437000C501B4010E94A62A18162CF4F601808A01
:10438000918AA28AB38AD7011296ED90FC90E3CF6E
:10439000F7011282DDCFF8010281138108CF2C8A48
:1043A0003D8A4E8A5F8A9601A701C901DA01888B8E
:1043B000998BAA8BBB8BFB8DFF938A8D8F939D8DE1
:1043C0009F93AC8DAF935F934F933F932F931F9326
:1043D000AF92BF92BEA5BF935F934F933F932F932E
:1043E000EAA5EF93F8A5FF932CA12F9338A13F9353
:1043F000A12CB12C30E8C32E3FE3D32E82017101F2
:1044000020E030E0A901B8A1ACA1F8A5EAA56B2F86
:104410007A2F8F2F9E2F0E941502088919892A89C9
:104420003B894C895D896E897F89D40118968D916D
:104430009C910E94450AD301ED91FC9160857185A4
:10444000828593856C877D878E879F8700891189F8
:1044500032892389A801A32FB22F9D0108871987CC
:104460002A873B87E484F584068517852F8D2F9353
:104470003E8D3F93298D2F93388D3F93BF93AF93FC
:104480005F934F931F930F93FF92EF92BF93AF935E
:104490005F934F9323812F9322812F9321812F9319
:1044A00020812F93A12CB12C650120E030E040E861
:1044B0005FE30E9415020FB6F894DEBF0FBECDBFBA
:1044C000088519852A853B854C855D856E857F85A8
:1044D000D40118968D919C910E94450AD301ED91CB
:1044E000FC91C484D584E684F78420853185428597
:1044F0005385C701B6010E944729882351F000E087
:1045000010E09801B701A601F401808591850E9411
:10451000450AD30112966D907C906ECE20E030E07B
:1045200040E85FE36C2D7D2D8E2D9F2D0E94472945
:1045300081111AC000E010E020E83FE3B201A101C0
:10454000F401808591850E94450AD301ED91FC918B
:104550000089118922893389408551856285738557
:10456000F40180859185B8CF2C8A3D8A4E8A5F8A76
:104570009601A701C901DA01888B998BAA8BBB8BA5
:10458000D8017C9111966C91119712969C9112977B
:1045900013968C91BB8DBF93EA8DEF93FD8DFF93A6
:1045A000AC8DAF935F934F933F932F93D8011F969A
:1045B000EC911F97EF931E96EC911E97EF931D962B
:1045C000EC911D97EF931C96EC91EF935F934F93B3
:1045D0003F932F938F939F936F937F93A12CB12C35
:1045E00020E8C22E2FE3D22E8201710120E030E0BC
:1045F000A901DB01FC016B2F7A2F8F2F9E2F0E94C8
:104600001502088919892A893B894C895D896E8937
:104610007F89F401808591850CCF0C2D1D2D2E2DC9
:104620003F2D78CEF4010084F185E02D2896FFAF70
:10463000EEAF2897208031802114310409F4F6C1AF
:104640008101D801ED90FC901197E114F10409F477
:10465000E7C112968D919D910D90BC91A02D8AA7D6
:104660009BA7ACA7BDA7F701228133814481558167
:10467000BC01CD010E94472987FFD6C119A308A319
:10468000A8A1B9A10D90BC91A02DB9A3A8A3109782
:1046900009F4C6C1ED91FC91F9A7E8A7309781F321
:1046A000D8011A960D90BC91A02DBFA7AEA7D80136
:1046B00016968D919D910D90BC91A02D8AAB9BABD0
:1046C000ACABBDABA8A1B9A112968D919D910D90F7
:1046D000BC91A02D8EAB9FABA8AFB9AFA8A1B9A1DB
:1046E00016968D919D910D90BC91A02D8AAF9BAF98
:1046F000ACAFBDAF9C01AD016681778180859185AE
:104700000E94DA282C966CAF7DAF8EAF9FAF2C97AE
:104710002AA53BA54CA55DA5EEA5FFA562817381E9
:10472000848195810E94DA2822966CAF7DAF8EAF8E
:104730009FAF22972EA93FA948AD59ADA8A5B9A50D
:1047400012966D917D918D919C9115970E94DA281A
:104750002B013C012AA93BA94CA95DA9EEA5FFA507
:1047600066817781808591850E94DA2826966CAFD4
:104770007DAF8EAF9FAF269722962CAD3DAD4EAD4F
:104780005FAD22972C966CAD7DAD8EAD9FAD2C9715
:104790000E94AB2A6B017C0126962CAD3DAD4EAD3F
:1047A0005FAD2697C301B2010E94AB2A9B01AC0109
:1047B000C701B6010E94DA286CA37DA38EA39FA334
:1047C00020E030E0A9010E94472987FF09C08CA1A1
:1047D0009DA1AEA1BFA1B0588CA39DA3AEA3BFA3C2
:1047E0002FE632E143E85AE36CA17DA18EA19FA19F
:1047F0000E94472987FD44CF2AAD3BAD4CAD5DAD4E
:104800006AA97BA98CA99DA90E94DA284B015C01A9
:104810002EA93FA948AD59AD6AA57BA58CA59DA53C
:104820000E94DA286B017C01A5019401C301B20149
:104830000E94AB2A2B013C01A70196012C966CAD7E
:104840007DAD8EAD9FAD2C970E94AB2A9B01AC0134
:10485000C301B2010E94DA282B013C0120E030E0C4
:10486000A9010E94472987FF04C077FA709477F85E
:104870007094A501940122966CAD7DAD8EAD9FAD77
:1048800022970E94AB2A4B015C01A7019601269654
:104890006CAD7DAD8EAD9FAD26970E94AB2A9B017E
:1048A000AC01C501B4010E94DA286B017C0120E053
:1048B00030E0A9010E94472987FF04C0F7FAF0946D
:1048C000F7F8F0942CA13DA14EA15FA1C301B20164
:1048D0000E944C294B015C0120E030E0A9010E94BC
:1048E000472987FDCDCE20E030E040E85FE3C501F9
:1048F000B4010E94A62A18160CF4C2CE2CA13DA128
:104900004EA15FA1C701B6010E944C296B017C0139
:1049100020E030E0A9010E94472987FDB1CE20E0C8
:1049200030E040E85FE3C701B6010E94A62A1816EE
:104930000CF4A6CE8CE090E00E94B82B7C0100978E
:1049400009F49ECEE8A5F9A5DC01ED93FC93A50141
:10495000940122966CAD7DAD8EAD9FAD22970E94E5
:10496000AB2A2AA53BA54CA55DA50E94DB28D70153
:1049700012966D937D938D939C931597A501940149
:1049800026966CAD7DAD8EAD9FAD26970E94AB2A6D
:104990002AA93BA94CA95DA90E94DB28F7016683DF
:1049A0007783808791872EA53FA533872287A8A587
:1049B000B9A51B96FC92EE921A97F901F182E0825A
:1049C000D80112968D909D90AD90BC90159716963B
:1049D0004D905D906D907C901997EC901196FC90A5
:1049E000C8010E94542CA50194016EA97FA988AD2D
:1049F00099AD0E94472981110AC0A30192016AADB5
:104A00007BAD8CAD9DAD0E944729882319F08701AD
:104A1000EF28B1F62896EEADFFAD289720803180C3
:104A2000F1012284338408CE87010BCEA8A9B9A94D
:104A300012960D90BC91A02DB9ABA8ABC1CB84E46C
:104A400096E00E94310B8DE796E00E943D0BE091CD
:104A5000000AF091010A60897189828993890E9414
:104A6000240C8BE896E00E943D0BE091FE09F0914A
:104A7000FF0960897189828993890E94240C88E9E1
:104A800096E00E943D0BE091FC09F091FD096089E0
:104A90007189828993890E94170C85EA96E00E94A9
:104AA0003D0BE091FA09F091FB09608971898289D7
:104AB00093890E94240C85EB96E00E943D0BE091C7
:104AC000F809F091F90960897189828993890E94B6
:104AD000170C81EC96E00E943D0BE091F609F091F5
:104AE000F70960897189828993890E94240C8EEC70
:104AF00096E00E943D0BE091F409F091F509608980
:104B00007189828993890E94170C87ED96E00E9433
:104B10003D0BE091F209F091F30960897189828976
:104B200093890E94240C84EF96E00E943D0BE09153
:104B3000F009F091F10960897189828993890E9455
:104B4000240C84E097E00E943D0BE091EE09F09187
:104B5000EF0960897189828993890E94170CE0911D
:104B6000020AF091030A0280F381E02D309709F4E4
:104B7000D3C1A081B1818D919C911197019799F733
:104B80001896ED91FC910190F081E02D1AAA1BAAD4
:104B90001CAA1DAA1EAA1FAA18AE19AE309709F4A6
:104BA00030C1028513850115110509F42AC1C2809F
:104BB000D380E480F580D80112968D909D90AD90C1
:104BC000BC901597B681B8A327812CA3208431848B
:104BD000A5019401C701B6010E944729882309F461
:104BE00004C1D8011696BC91B8ABF801F781F8A7BB
:104BF000D8011896BC91BAA7F801F185FEA720E06C
:104C000030E0A90168A17CA1C1010E944729882345
:104C100059F020E030E0A90168A978A58AA59EA5F1
:104C20000E94472981115CC020E030E0A90168A101
:104C30007CA1C1010E94A62A18160CF044C028A12C
:104C40002AAF3CA13EAF23962FAE239727963FAEC7
:104C50002797A7019601C501B4010E94DA282B010C
:104C60003C012AAD3EAD23964FAD239727965FAD0D
:104C700027970E94AB2A20E030E040E05FE30E94EB
:104C8000AB2A4B015C0128A938A54AA55EA568A1FD
:104C90007CA1C1010E94472920E030E040EC5FE3A5
:104CA00087FD04C020E030E040E450E4C301B201DD
:104CB0000E944C299B01AC01C701B6010E94DB2870
:104CC0006B017C014EC088A98AAF98A59EAFAAA5AA
:104CD0002396AFAF2397BEA52796BFAF2797B9CF2F
:104CE00020E030E0A90168A17CA1C1010E94A62AB0
:104CF00018160CF07EC020E030E0A90168A978A564
:104D00008AA59EA50E94A62A18160CF072C028A992
:104D100038A54AA55EA568A17CA1C1010E944729CA
:104D2000A701960181113DC0C501B4010E94DA2896
:104D30004B015C0120E030E040E05FE30E94AB2AE1
:104D40009B01AC01C701B6010E94DB286B017C010D
:104D500028A13CA1A101C501B4010E94AB2A4B01CD
:104D60005C01A7019601B401C5010E94AB2A9B0119
:104D7000AC016EA97FA988AD99AD0E94DB286EAB0E
:104D80007FAB88AF99AF9401A5016AA97BA98CA9D3
:104D90009DA90E94DB286AAB7BAB8CAB9DABF80175
:104DA000FDCEC501B4010E94DA282B013C0128A9DF
:104DB00038A54AA55EA568A17CA1C1010E94DB2897
:104DC00020E030E040E05FE30E94AB2AA3019201C3
:104DD0000E94AB2A4B015C0120E030E040E05FE341
:104DE000C301B2010E94AB2A65CF88A09CA05101EB
:104DF000B8CFC12CD12C7601812C912CA12CB12CB7
:104E0000B0CF20E030E0A9016AA97BA98CA99DA9B7
:104E10000E944729882309F47FC02AA93BA94CA9ED
:104E20005DA96EA97FA988AD99AD0E944C296B013F
:104E30007C018DE492E00E94310B8DE097E00E94AE
:104E4000310B84E397E00E943D0B20E030E040E826
:104E50005FE3C701B6010E944729811161C084E464
:104E600097E00E94310B60E08DE00E94510560E008
:104E70008CE00E94510560E08BE00E94510560E0EB
:104E80008AE00E94510560E089E00E94510560E0DF
:104E900088E00E94510560E087E00E94510560E0D3
:104EA00086E00E94510581E090E09093B1088093E4
:104EB000B0088DE492E00E94310B8DE492E00E94F4
:104EC000310B8DE492E00E94310B8DE492E00E9460
:104ED000310B8091BA089091BB08A091BC08B091A9
:104EE000BD080196A11DB11D8093BA089093BB081F
:104EF000A093BC08B093BD0864E670E080E090E049
:104F00000E945C0768EB7BE080E090E00E945C0719
:104F10000E948D040C944718C12CD12C760189CFA6
:104F200020E030E040E050E4C701B6010E9447298C
:104F3000811127C089E497E00E94310B61E08DE088
:104F40000E94510561E08CE00E94510561E08BE018
:104F50000E94510561E08AE00E94510561E089E00C
:104F60000E94510561E088E00E94510561E087E000
:104F70000E94510561E086E00E94510582E090E0C8
:104F800094CF20E030E0A901C701B6010E94472973
:104F900081118FCF81E597E00E94310B8ACF8CEB96
:104FA00097E00C940B198F929F92AF92BF92CF9281
:104FB000DF92EF92FF92CF93DF93EC0168817981CA
:104FC0008A819B81611571058105910521F464E257
:104FD00079ED8BE597E02DE133EF41E050E00E9461
:104FE000772849015A019B01AC01A7EAB1E40E946C
:104FF00096286B017C01ACEEB4EFA50194010E94F0
:10500000A428C60ED71EE81EF91EF7FE06C081E0D2
:10501000C81AD108E10880E8F80AC882D982EA8271
:10502000FB82C701B6019F77DF91CF91FF90EF9090
:10503000DF90CF90BF90AF909F908F9008958F9208
:105040009F92AF92BF92CF92DF92EF92FF926091C8
:10505000130270911402809115029091160261154D
:1050600071058105910521F464E279ED8BE597E006
:105070002DE133EF41E050E00E94772849015A01C9
:105080009B01AC01A7EAB1E40E9496286B017C0168
:10509000ACEEB4EFA50194010E94A428C60ED71E61
:1050A000E81EF91EF7FE06C081E0C81AD108E10823
:1050B00080E8F80AC0921302D0921402E09215021E
:1050C000F0921602C701B6019F77FF90EF90DF9034
:1050D000CF90BF90AF909F908F90089560931302F0
:1050E0007093140280931502909316020895052E72
:1050F00097FB1EF400940E948E2857FD07D00E9453
:10510000A92807FC03D04EF40C948E2850954095A6
:10511000309521953F4F4F4F5F4F08959095809563
:10512000709561957F4F8F4F9F4F08950E94CB28B8
:10513000A59F900DB49F900DA49F800D911D1124EB
:105140000895B7FF0C9496280E949628821B930B13
:105150000895A1E21A2EAA1BBB1BFD010DC0AA1FB8
:10516000BB1FEE1FFF1FA217B307E407F50720F0D0
:10517000A21BB30BE40BF50B661F771F881F991F4B
:105180001A9469F760957095809590959B01AC0194
:10519000BD01CF010895A29FB001B39FC001A39F9D
:1051A000700D811D1124911DB29F700D811D112460
:1051B000911D08955058BB27AA270E94F2280C94ED
:1051C0006C2A0E945E2A38F00E94652A20F039F489
:1051D0009F3F19F426F40C945B2A0EF4E095E7FB4C
:1051E0000C94552AE92F0E947D2A58F3BA176207BA
:1051F00073078407950720F079F4A6F50C949F2A8D
:105200000EF4E0950B2EBA2FA02D0B01B9019001E1
:105210000C01CA01A0011124FF27591B99F0593F25
:1052200050F4503E68F11A16F040A22F232F342F6D
:105230004427585FF3CF469537952795A795F040BB
:105240005395C9F77EF41F16BA0B620B730B840BD0
:10525000BAF09150A1F0FF0FBB1F661F771F881F88
:10526000C2F70EC0BA0F621F731F841F48F48795E0
:1052700077956795B795F7959E3F08F0B0CF9395D2
:10528000880F08F09927EE0F9795879508950E944B
:10529000312A08F481E008950E9460290C946C2A58
:1052A0000E94652A58F00E945E2A40F029F45F3F70
:1052B00029F00C94552A51110C94A02A0C945B2AC5
:1052C0000E947D2A68F39923B1F3552391F3951B2E
:1052D000550BBB27AA2762177307840738F09F5F17
:1052E0005F4F220F331F441FAA1FA9F335D00E2E84
:1052F0003AF0E0E832D091505040E695001CCAF7F1
:105300002BD0FE2F29D0660F771F881FBB1F2617B3
:1053100037074807AB07B0E809F0BB0B802DBF018A
:10532000FF2793585F4F3AF09E3F510578F00C9459
:10533000552A0C94A02A5F3FE4F3983ED4F3869557
:1053400077956795B795F7959F5FC9F7880F911D7A
:105350009695879597F90895E1E0660F771F881F66
:10536000BB1F621773078407BA0720F0621B730B19
:10537000840BBA0BEE1F88F7E09508950E94C529AB
:105380006894B1110C94A02A08950E94852A88F08F
:105390009F5798F0B92F9927B751B0F0E1F0660FF9
:1053A000771F881F991F1AF0BA95C9F714C0B1303A
:1053B00091F00E949F2AB1E008950C949F2A672FD4
:1053C000782F8827B85F39F0B93FCCF38695779569
:1053D0006795B395D9F73EF4909580957095619552
:1053E0007F4F8F4F9F4F0895E89409C097FB3EF47D
:1053F00090958095709561957F4F8F4F9F4F992322
:10540000A9F0F92F96E9BB279395F695879577959F
:105410006795B795F111F8CFFAF4BB0F11F460FF5F
:105420001BC06F5F7F4F8F4F9F4F16C0882311F0B7
:1054300096E911C0772321F09EE8872F762F05C0CB
:10544000662371F096E8862F70E060E02AF09A9566
:10545000660F771F881FDAF7880F9695879597F95B
:105460000895990F0008550FAA0BE0E8FEEF1616F5
:105470001706E807F907C0F012161306E407F50748
:1054800098F0621B730B840B950B39F40A2661F0BC
:10549000232B242B252B21F408950A2609F4A1405F
:1054A000A6958FEF811D811D089597F99F6780E86C
:1054B00070E060E008959FEF80EC089500240A9466
:1054C0001616170618060906089500240A941216DF
:1054D0001306140605060895092E0394000C11F412
:1054E000882352F0BB0F40F4BF2B11F460FF04C0BF
:1054F0006F5F7F4F8F4F9F4F089557FD9058440F18
:10550000551F59F05F3F71F04795880F97FB991F22
:1055100061F09F3F79F087950895121613061406DF
:10552000551FF2CF4695F1DF08C01616170618066C
:10553000991FF1CF86957105610508940895E89447
:10554000BB2766277727CB0197F908950E94312A58
:1055500008F48FEF08950E94BE2A0C946C2A0E94D2
:105560005E2A38F00E94652A20F0952311F00C94F1
:10557000552A0C945B2A11240C94A02A0E947D2A9F
:1055800070F3959FC1F3950F50E0551F629FF00196
:10559000729FBB27F00DB11D639FAA27F00DB11DAF
:1055A000AA1F649F6627B00DA11D661F829F222738
:1055B000B00DA11D621F739FB00DA11D621F839FBF
:1055C000A00D611D221F749F3327A00D611D231F95
:1055D000849F600D211D822F762F6A2F11249F57E3
:1055E00050409AF0F1F088234AF0EE0FFF1FBB1FE6
:1055F000661F771F881F91505040A9F79E3F5105A5
:1056000080F00C94552A0C94A02A5F3FE4F3983E56
:10561000D4F3869577956795B795F795E7959F5F4E
:10562000C1F7FE2B880F911D9695879597F90895E0
:1056300019F416F40C945B2A0C94632B0E94852AAF
:10564000B8F39923C9F3B6F39F57550B87FF0E9410
:10565000712B0024A0E640EA90018058569597955A
:1056600028F4805C660F771F881F20F02617370705
:10567000480730F4621B730B840B202931294A2B15
:10568000A69517940794202531254A2758F7660FC9
:10569000771F881F20F026173707480730F4620B62
:1056A000730B840B200D311D411DA09581F7B901AD
:1056B000842F9158880F9695879508950E94312AD6
:1056C000880B990B08959F3F31F0915020F48795F6
:1056D00077956795B795880F911D9695879597F95A
:1056E000089591505040660F771F881FD2F7089594
:1056F000DB018F939F930E949628BF91AF91A29F49
:10570000800D911DA39F900DB29F900D11240895BF
:1057100097FB072E16F4009407D077FD09D00E945E
:10572000A42B07FC05D03EF4909581959F4F0895DA
:10573000709561957F4F0895EE0FFF1F881F8BBFF7
:105740000790F691E02D1994AA1BBB1B51E107C0ED
:10575000AA1FBB1FA617B70710F0A61BB70B881F01
:10576000991F5A95A9F780959095BC01CD01089590
:105770000F931F93CF93DF938230910510F482E053
:1057800090E0E091060AF091070A30E020E0B0E0F6
:10579000A0E0309799F42115310509F44AC0281B7F
:1057A000390B24303105D8F58A819B81611571054B
:1057B00089F1FB0193838283FE0111C040815181F5
:1057C0000281138148175907E0F04817590799F4E7
:1057D000109761F012960C93129713961C933296C1
:1057E000CF01DF91CF911F910F9108950093060A89
:1057F0001093070AF4CF2115310551F042175307D2
:1058000038F0A901DB019A01BD01DF01F801C1CF28
:10581000EF01F9CF9093070A8093060ACDCFFE01DE
:10582000E20FF31F8193919322503109398328832A
:10583000D7CF2091040A3091050A232B41F42091FF
:10584000190230911A023093050A2093040A20911C
:105850001702309118022115310541F42DB73EB7DA
:1058600040911B0250911C02241B350BE091040A4D
:10587000F091050AE217F307A0F42E1B3F0B28173F
:10588000390778F0AC014E5F5F4F2417350748F0B9
:105890004E0F5F1F5093050A4093040A8193919322
:1058A0009FCFF0E0E0E09CCFCF93DF930097E9F04B
:1058B000FC01329713821282A091060AB091070A66
:1058C000ED0130E020E01097A1F420813181820FBA
:1058D000931F2091040A3091050A2817390709F00F
:1058E00061C0F093050AE093040ADF91CF91089517
:1058F000EA01CE17DF07E8F54A815B819E01411579
:105900005105B1F7E901FB83EA8349915991C40F2D
:10591000D51FEC17FD0761F4808191810296840FF9
:10592000951FE90199838883828193819B838A8370
:10593000F0E0E0E012968D919C9113970097B9F5F5
:105940002D913C911197CD010296820F931F2091CA
:10595000040A3091050A2817390739F6309751F5AE
:105960001092070A1092060AB093050AA093040A3F
:10597000BCCFD383C28340815181840F951FC81748
:10598000D90761F44E5F5F4F88819981480F591F95
:10599000518340838A819B819383828321153105C2
:1059A00009F0B0CFF093070AE093060A9ECFFD01FD
:0E59B000DC01C0CF13821282D7CFF894FFCF54
:1059BE001918171D1C1B1A31323334353637383946
:1059CE002A3023010000000000080A8000000000B9
:1059DE00001B048503B2036D04E303C103D503006A
:1059EE00000000440817087308F4077E030408F546
:1059FE000700000000BF057F054E050D0A006E6111
:105A0E006E00696E66006F766600534D41525420EB
:105A1E0048594252494420454E45524759204D411E
:105A2E004E4147454D454E542053595354454D0014
:105A3E002D2D2D2D2D2D2D2D2D2D2D2D2D2D2D2D88
:105A4E002D2D2D2D2D2D2D2D2D2D2D2D2D2D2D2D78
:105A5E002D2D2D2D2D2D2D2D2D2D2D2D2D2D2D2D68
:105A6E002D2D2D2D2D2D2D2D2D2D2D2D2D2D2D2D58
:105A7E002D2D2D2D2D2D2D2D2D2D2D2D2D2D2D2D48
:105A8E002D2D2D2D2D002D2D2D2D2D2D2D2D2D2D65
:105A9E002D2D204F7065726174696F6E204E6F3AB6
:105AAE00002D2D2D2D2D2D2D2D2D2D2D2D205469EF
:105ABE006D6520537461747573202D2D2D2D2D2D34
:105ACE002D2D2D2D2D2D004F6B2C2054696D652005
